{
  "_format": "hh-sol-artifact-1",
  "contractName": "LoanEscrow",
  "sourceName": "contracts/LoanEscrow.sol",
  "abi": [
    {
      "inputs": [
        {
          "internalType": "address",
          "name": "_projectRegistry",
          "type": "address"
        },
        {
          "internalType": "address",
          "name": "_feeRecipient",
          "type": "address"
        },
        {
          "internalType": "address",
          "name": "_acceptedToken",
          "type": "address"
        }
      ],
      "stateMutability": "nonpayable",
      "type": "constructor"
    },
    {
      "anonymous": false,
      "inputs": [
        {
          "indexed": true,
          "internalType": "uint256",
          "name": "projectId",
          "type": "uint256"
        },
        {
          "indexed": false,
          "internalType": "uint256",
          "name": "goalAmount",
          "type": "uint256"
        },
        {
          "indexed": true,
          "internalType": "address",
          "name": "artist",
          "type": "address"
        }
      ],
      "name": "EscrowCreated",
      "type": "event"
    },
    {
      "anonymous": false,
      "inputs": [
        {
          "indexed": true,
          "internalType": "uint256",
          "name": "projectId",
          "type": "uint256"
        },
        {
          "indexed": true,
          "internalType": "address",
          "name": "investor",
          "type": "address"
        },
        {
          "indexed": false,
          "internalType": "uint256",
          "name": "amount",
          "type": "uint256"
        },
        {
          "indexed": false,
          "internalType": "uint256",
          "name": "totalRaised",
          "type": "uint256"
        }
      ],
      "name": "FundsDeposited",
      "type": "event"
    },
    {
      "anonymous": false,
      "inputs": [
        {
          "indexed": true,
          "internalType": "uint256",
          "name": "projectId",
          "type": "uint256"
        },
        {
          "indexed": true,
          "internalType": "address",
          "name": "investor",
          "type": "address"
        },
        {
          "indexed": false,
          "internalType": "uint256",
          "name": "amount",
          "type": "uint256"
        }
      ],
      "name": "FundsRefunded",
      "type": "event"
    },
    {
      "anonymous": false,
      "inputs": [
        {
          "indexed": true,
          "internalType": "uint256",
          "name": "projectId",
          "type": "uint256"
        },
        {
          "indexed": true,
          "internalType": "address",
          "name": "artist",
          "type": "address"
        },
        {
          "indexed": false,
          "internalType": "uint256",
          "name": "amount",
          "type": "uint256"
        },
        {
          "indexed": false,
          "internalType": "uint256",
          "name": "platformFeeAmount",
          "type": "uint256"
        }
      ],
      "name": "FundsReleased",
      "type": "event"
    },
    {
      "anonymous": false,
      "inputs": [
        {
          "indexed": true,
          "internalType": "uint256",
          "name": "projectId",
          "type": "uint256"
        },
        {
          "indexed": false,
          "internalType": "uint256",
          "name": "totalRaised",
          "type": "uint256"
        }
      ],
      "name": "GoalReached",
      "type": "event"
    },
    {
      "anonymous": false,
      "inputs": [
        {
          "indexed": true,
          "internalType": "address",
          "name": "previousOwner",
          "type": "address"
        },
        {
          "indexed": true,
          "internalType": "address",
          "name": "newOwner",
          "type": "address"
        }
      ],
      "name": "OwnershipTransferred",
      "type": "event"
    },
    {
      "inputs": [],
      "name": "acceptedToken",
      "outputs": [
        {
          "internalType": "contract IERC20",
          "name": "",
          "type": "address"
        }
      ],
      "stateMutability": "view",
      "type": "function"
    },
    {
      "inputs": [
        {
          "internalType": "uint256",
          "name": "_projectId",
          "type": "uint256"
        }
      ],
      "name": "createEscrow",
      "outputs": [],
      "stateMutability": "nonpayable",
      "type": "function"
    },
    {
      "inputs": [
        {
          "internalType": "uint256",
          "name": "_projectId",
          "type": "uint256"
        },
        {
          "internalType": "uint256",
          "name": "_amount",
          "type": "uint256"
        }
      ],
      "name": "depositFunds",
      "outputs": [],
      "stateMutability": "payable",
      "type": "function"
    },
    {
      "inputs": [
        {
          "internalType": "uint256",
          "name": "",
          "type": "uint256"
        }
      ],
      "name": "emergencyWithdraw",
      "outputs": [],
      "stateMutability": "nonpayable",
      "type": "function"
    },
    {
      "inputs": [
        {
          "internalType": "uint256",
          "name": "",
          "type": "uint256"
        }
      ],
      "name": "escrowExists",
      "outputs": [
        {
          "internalType": "bool",
          "name": "",
          "type": "bool"
        }
      ],
      "stateMutability": "view",
      "type": "function"
    },
    {
      "inputs": [
        {
          "internalType": "uint256",
          "name": "",
          "type": "uint256"
        }
      ],
      "name": "escrows",
      "outputs": [
        {
          "internalType": "uint256",
          "name": "projectId",
          "type": "uint256"
        },
        {
          "internalType": "uint256",
          "name": "totalRaised",
          "type": "uint256"
        },
        {
          "internalType": "uint256",
          "name": "goalAmount",
          "type": "uint256"
        },
        {
          "internalType": "bool",
          "name": "fundsReleased",
          "type": "bool"
        },
        {
          "internalType": "bool",
          "name": "fundsRefunded",
          "type": "bool"
        },
        {
          "internalType": "uint256",
          "name": "createdAt",
          "type": "uint256"
        }
      ],
      "stateMutability": "view",
      "type": "function"
    },
    {
      "inputs": [],
      "name": "feeRecipient",
      "outputs": [
        {
          "internalType": "address",
          "name": "",
          "type": "address"
        }
      ],
      "stateMutability": "view",
      "type": "function"
    },
    {
      "inputs": [
        {
          "internalType": "uint256",
          "name": "_projectId",
          "type": "uint256"
        }
      ],
      "name": "getEscrowData",
      "outputs": [
        {
          "internalType": "uint256",
          "name": "totalRaised",
          "type": "uint256"
        },
        {
          "internalType": "uint256",
          "name": "goalAmount",
          "type": "uint256"
        },
        {
          "internalType": "bool",
          "name": "fundsReleased",
          "type": "bool"
        },
        {
          "internalType": "bool",
          "name": "fundsRefunded",
          "type": "bool"
        },
        {
          "internalType": "uint256",
          "name": "investorCount",
          "type": "uint256"
        }
      ],
      "stateMutability": "view",
      "type": "function"
    },
    {
      "inputs": [
        {
          "internalType": "uint256",
          "name": "_projectId",
          "type": "uint256"
        },
        {
          "internalType": "address",
          "name": "_investor",
          "type": "address"
        }
      ],
      "name": "getInvestorData",
      "outputs": [
        {
          "internalType": "uint256",
          "name": "",
          "type": "uint256"
        }
      ],
      "stateMutability": "view",
      "type": "function"
    },
    {
      "inputs": [],
      "name": "owner",
      "outputs": [
        {
          "internalType": "address",
          "name": "",
          "type": "address"
        }
      ],
      "stateMutability": "view",
      "type": "function"
    },
    {
      "inputs": [
        {
          "internalType": "uint256",
          "name": "_projectId",
          "type": "uint256"
        },
        {
          "internalType": "uint256",
          "name": "_percentage",
          "type": "uint256"
        }
      ],
      "name": "partialRelease",
      "outputs": [],
      "stateMutability": "nonpayable",
      "type": "function"
    },
    {
      "inputs": [],
      "name": "platformFee",
      "outputs": [
        {
          "internalType": "uint256",
          "name": "",
          "type": "uint256"
        }
      ],
      "stateMutability": "view",
      "type": "function"
    },
    {
      "inputs": [],
      "name": "projectRegistry",
      "outputs": [
        {
          "internalType": "contract IProjectRegistry",
          "name": "",
          "type": "address"
        }
      ],
      "stateMutability": "view",
      "type": "function"
    },
    {
      "inputs": [
        {
          "internalType": "uint256",
          "name": "_projectId",
          "type": "uint256"
        }
      ],
      "name": "refundInvestors",
      "outputs": [],
      "stateMutability": "nonpayable",
      "type": "function"
    },
    {
      "inputs": [
        {
          "internalType": "uint256",
          "name": "_projectId",
          "type": "uint256"
        }
      ],
      "name": "releaseFunds",
      "outputs": [],
      "stateMutability": "nonpayable",
      "type": "function"
    },
    {
      "inputs": [],
      "name": "renounceOwnership",
      "outputs": [],
      "stateMutability": "nonpayable",
      "type": "function"
    },
    {
      "inputs": [
        {
          "internalType": "address",
          "name": "_newRecipient",
          "type": "address"
        }
      ],
      "name": "setFeeRecipient",
      "outputs": [],
      "stateMutability": "nonpayable",
      "type": "function"
    },
    {
      "inputs": [
        {
          "internalType": "uint256",
          "name": "_newFee",
          "type": "uint256"
        }
      ],
      "name": "setPlatformFee",
      "outputs": [],
      "stateMutability": "nonpayable",
      "type": "function"
    },
    {
      "inputs": [
        {
          "internalType": "address",
          "name": "newOwner",
          "type": "address"
        }
      ],
      "name": "transferOwnership",
      "outputs": [],
      "stateMutability": "nonpayable",
      "type": "function"
    }
  ],
  "bytecode": "0x608034620000f357601f62001de038819003918201601f19168301916001600160401b03831184841017620000f857808492606094604052833981010312620000f3576200004d816200010e565b62000069604062000061602085016200010e565b93016200010e565b6001600081815581546001600160a01b0319808216339081179094556040519690956001600160a01b039594869492938593908416907f8be0079c531659141344cd1fd0a4f28419497f9722a3daafe3b4186f6b6457e09080a360fa600555168560025416176002551683600654161760065516906007541617600755611cbc9081620001248239f35b600080fd5b634e487b7160e01b600052604160045260246000fd5b51906001600160a01b0382168203620000f35756fe6080604081815260048036101561001557600080fd5b600092833560e01c908163012f52ee146114cc5750806312e8e2c31461146957806326232a2e1461144a578063451c3d801461142157806346904840146113f85780634d68282f146110cc5780635312ea8e14610fed5780635a33d8dc14610fc457806361638ed514610c74578063715018a614610c165780638da2c873146109f95780638da5cb5b146109d05780638e0eac0f146109a557806396a9d91314610668578063999b601914610604578381639ee987b2146102b757508063ae89aeb914610241578063e74b981b146101c05763f2fde38b146100f657600080fd5b346101bc5760203660031901126101bc5761010f611546565b9061011861155c565b6001600160a01b0391821692831561016a575050600154826001600160601b0360a01b821617600155167f8be0079c531659141344cd1fd0a4f28419497f9722a3daafe3b4186f6b6457e0600080a380f35b906020608492519162461bcd60e51b8352820152602660248201527f4f776e61626c653a206e6577206f776e657220697320746865207a65726f206160448201526564647265737360d01b6064820152fd5b8280fd5b50346101bc5760203660031901126101bc576101da611546565b6101e261155c565b6001600160a01b031691821561020a5750506001600160601b0360a01b600654161760065580f35b906020606492519162461bcd60e51b83528201526011602482015270456e64657265636f20696e76616c69646f60781b6044820152fd5b50346101bc5760203660031901126101bc5760a092818392359081835260205261027060ff848420541661186b565b81526003602052209060ff60018301549260028101549260066003830154920154938151958652602086015282821615159085015260081c16151560608301526080820152f35b9190503461060057602092836003193601126101bc5781356102d7611815565b8084528285526102ec60ff838620541661186b565b600280548351631e1e7e5960e31b81528581018490526024986001600160a01b039893959282908b9082908c165afa9081156105f65787916105d4575b5060c0810151421180156105bc575b1561056657610120015196600797888110156105545760031461051e57838752600383528187209760038901610100815460ff8116158061050f575b61037d906118ab565b61ff0019161790556006889901985b89548110156104a45761039f818b611966565b5084516103ab816115de565b878786808554168085526001860154908d8487019783895201548b870152816103f9575b5050505050505060001981146103e75760010161038c565b634e487b7160e01b8952601188528a89fd5b8854831680610471575050508d8093508092508091855116865190828215610468575bf11561045e577f80b577b4fc190ab86d963549e29f496afd079c5d81a2480d61217d4b5060a28c87868a935b511693518851908152a3388087878683806103cf565b85513d8c823e3d90fd5b506108fc61041c565b9161049f917f80b577b4fc190ab86d963549e29f496afd079c5d81a2480d61217d4b5060a28c969793611bd3565b610448565b88808c868b8a888d5416803b1561050b5785928360449260068751988996879563d11d498b60e01b87528601528401525af190811561050257506104eb575b506001905580f35b6104f4906115b4565b6104ff5780826104e3565b80fd5b513d84823e3d90fd5b8580fd5b50600881901c60ff1615610374565b815162461bcd60e51b81528087018490526011818b0152704d65746120666f69206174696e6769646160781b6044820152606490fd5b634e487b7160e01b8852602187528988fd5b815162461bcd60e51b8152808701849052602b818b01527f5072617a6f206e616f20657870697261646f206f752070726f6a65746f206e6160448201526a6f2063616e63656c61646f60a81b6064820152608490fd5b50610120810151600781101561055457600614610338565b6105f091503d8089833e6105e881836115fa565b8101906116ad565b38610329565b82513d89823e3d90fd5b5080fd5b50346101bc57816003193601126101bc576024356001600160a01b03811691803591839003610663578482859260059460209852875261064960ff848420541661186b565b815260038652200190600052825280600020549051908152f35b600080fd5b5090346101bc5761067836611530565b91610681611815565b81855260209284845261069960ff838820541661186b565b60018060a01b03806002541695835192631e1e7e5960e31b80855286838601526024948a8187818d5afa908b821561099a576106e6928792828d939261097f575b50500151163314611b74565b81151580610973575b1561093a578990858751809b819382528a878301525afa978815610930578998610914575b5061012088015160078110156109025782036108c0578589526003875284892060ff6003820154161561086b576107558a9493926001612710930154611bc0565b049382600754169182156000146107cb5750505061077583471015611c25565b8180808086858b8d0151168282156107c2575bf1156107b65785600080516020611c678339815191529596975b015116958351928352820152a36001815580f35b508251903d90823e3d90fd5b506108fc610788565b978099979887519283916370a0823160e01b8352309083015281855afa9081156108615790899291859161082d575b5085600080516020611c67833981519152989261081c82610828941015611c25565b85858501511690611bd3565b6107a2565b92809295508391503d831161085a575b61084781836115fa565b81010312610663575188928891856107fa565b503d61083d565b86513d86823e3d90fd5b855162461bcd60e51b8152808401899052602a818701527f46756e646f73207072696e63697061697320646576656d20746572207369646f604482015269206c6962657261646f7360b01b6064820152608490fd5b845162461bcd60e51b81528083018890526018818601527f50726f6a65746f206465766520657374617220617469766f00000000000000006044820152606490fd5b634e487b7160e01b8a5260218352848afd5b6109299198503d808b833e6105e881836115fa565b9638610714565b85513d8b823e3d90fd5b855162461bcd60e51b815280840189905260148187015273506f7263656e746167656d20696e76616c69646160601b6044820152606490fd5b506127108211156106ef565b61099392503d8091833e6105e881836115fa565b388e6106da565b8851903d90823e3d90fd5b50346101bc5760203660031901126101bc57816020938260ff93358252855220541690519015158152f35b50503461060057816003193601126106005760015490516001600160a01b039091168152602090f35b50346101bc5760209081600319360112610c1257803591610a18611815565b82855281815260ff8486205416610bdd576002548451631e1e7e5960e31b8152838101859052906001600160a01b039087908390602490829085165afa918215610bd3578792610bb7575b506101208201516007811015610ba457600103610b6157610a8960c083015142106117c9565b84875260038352868681209486865581600187015560a0840195865160028201556003810161ffff1981541690558142910155808552878220600160ff19825416179055826002541690813b156101bc578760448492838c51958694859363d11d498b60e01b8552840152600260248401525af18015610b5757610b3f575b5050827f4c98e229e2f01f3e7de1e15f4599733605128275cac56f442301b55975b538bc9451920151169451908152a36001815580f35b610b48906115b4565b610b53578638610b08565b8680fd5b88513d84823e3d90fd5b855162461bcd60e51b8152808501849052601b60248201527f50726f6a65746f2064657665206573746172206170726f7661646f00000000006044820152606490fd5b634e487b7160e01b885260218552602488fd5b610bcc9192503d8089833e6105e881836115fa565b9038610a63565b86513d89823e3d90fd5b835162461bcd60e51b815291820152601060248201526f457363726f77206a612065786973746560801b604482015260649150fd5b8380fd5b83346104ff57806003193601126104ff57610c2f61155c565b600180546001600160a01b031981169091556000906001600160a01b03167f8be0079c531659141344cd1fd0a4f28419497f9722a3daafe3b4186f6b6457e08280a380f35b50610c7e36611530565b919092610c89611815565b83855284602092808452610ca260ff848420541661186b565b6002548351631e1e7e5960e31b81528281018890526024936001600160a01b039282908690829086165afa908115610930578991610faa575b506101208101516007811015610f9857600203610f565760c0610d0191015142106117c9565b8688526003855283882095610d26600388015460ff8116159081610f47575b506118ab565b60075482169081610edb57505034610d3f8115156118f7565b3360005260058701865284600020610d58828254611943565b90556001870196610d6a828954611943565b8855855160068201610d7b826115de565b3382528882018481528883019142835280549068010000000000000000821015610ec95790610daf91600182018155611966565b939093610eb85786959492600294928f9a9998869351166001600160601b0360a01b855416178455516001840155519101558954928851908152838a8201528b7f1c5831173620d6383a8570c099431dfb1eb2fcafeb44302976ed2cfecc4b788b8a3393a301541115610e25575b836001815580f35b6002541690813b15610c12576044889185809460038951978896879563d11d498b60e01b87528601528401525af18015610eae57610e96575b50507f85b3ed4e45559c5f41fb220aa4ac86a440dfc741f219089de694242940aaa09c92549051908152a23880808084818080610e1d565b610e9f906115b4565b610eaa578438610e5e565b8480fd5b83513d84823e3d90fd5b634e487b7160e01b8e528d8852888efd5b634e487b7160e01b8f5260418952898ffd5b8091610ee88215156118f7565b8651916323b872dd60e01b89840152338784015230604484015260648301526064825260a0820182811067ffffffffffffffff821117610f33578752610f2e9190611998565b610d3f565b86604187634e487b7160e01b600052526000fd5b60ff915060081c161538610d20565b845162461bcd60e51b8152808401879052601e818601527f50726f6a65746f206465766520657374617220656d20636170746163616f00006044820152606490fd5b634e487b7160e01b8a5260218452848afd5b610fbe91503d808b833e6105e881836115fa565b38610cdb565b50503461060057816003193601126106005760025490516001600160a01b039091168152602090f35b5090346101bc5760203660031901126101bc5761100861155c565b6007546001600160a01b0392849184168061104f5750508080809394600154164790828215611046575bf11561103c575080f35b51903d90823e3d90fd5b506108fc611032565b91509260015416908251936370a0823160e01b85523090850152602084602481845afa9283156110c35750849261108e575b61108b9350611bd3565b80f35b91506020833d82116110bb575b816110a8602093836115fa565b810103126106635761108b925191611081565b3d915061109b565b513d86823e3d90fd5b5091903461060057602090816003193601126101bc578335906110ed611815565b81845284835261110260ff828620541661186b565b60018060a01b03806002541695825191631e1e7e5960e31b8084528583850152602493888186818d5afa9081156112b35783898b949361114e9386916113de575b500151163314611b74565b848651809b8193825289878301525afa9788156113d45787986113b8575b5061012088015160078110156113a657600303611365578487526003865283872060038101805460ff81161580611357575b156113035790600180939260ff19161790550154926127106111c260055486611bc0565b0492838503948086116112f15784846007541680156000146112c657508a8080809388600654168282156112bd575bf1156112b3578980808881948f8e8a91015116908a8491146112aa575bf11561129c575b826002541691823b156112a6579060448a92838951958694859363d11d498b60e01b85528d828601528401525af1801561129c57611277575b5085600080516020611c6783398151915295969798015116958351928352820152a36001815580f35b958097611293600080516020611c6783398151915297986115b4565b9796955061124e565b85513d8a823e3d90fd5b8980fd5b506108fc61120e565b86513d8b823e3d90fd5b506108fc6111f1565b6112d69250856006541690611bd3565b6112ec858b858b81600754169201511690611bd3565b611215565b50634e487b7160e01b89526011905287fd5b865162461bcd60e51b81528086018a90526029818801527f46756e646f73206a6120666f72616d206c6962657261646f73206f75207265656044820152686d626f6c7361646f7360b81b6064820152608490fd5b5060ff8160081c161561119e565b50601b6064928685519362461bcd60e51b85528401528201527f4d657461206465766520746572207369646f206174696e6769646100000000006044820152fd5b634e487b7160e01b8852602183528388fd5b6113cd9198503d8089833e6105e881836115fa565b963861116c565b84513d89823e3d90fd5b6113f291503d8088833e6105e881836115fa565b38611143565b50503461060057816003193601126106005760065490516001600160a01b039091168152602090f35b50503461060057816003193601126106005760075490516001600160a01b039091168152602090f35b5050346106005781600319360112610600576020906005549051908152f35b50346101bc5760203660031901126101bc5780359161148661155c565b6103e8831161149757505060055580f35b906020606492519162461bcd60e51b8352820152600f60248201526e54617861206d6178696d612031302560881b6044820152fd5b9291905034610c12576020366003190112610c1257808260c09560ff93358152600360205220908154936001830154600284015492600385015494015495875260208701528501528181161515606085015260081c161515608083015260a0820152f35b6040906003190112610663576004359060243590565b600435906001600160a01b038216820361066357565b6001546001600160a01b0316330361157057565b606460405162461bcd60e51b815260206004820152602060248201527f4f776e61626c653a2063616c6c6572206973206e6f7420746865206f776e65726044820152fd5b67ffffffffffffffff81116115c857604052565b634e487b7160e01b600052604160045260246000fd5b6060810190811067ffffffffffffffff8211176115c857604052565b90601f8019910116810190811067ffffffffffffffff8211176115c857604052565b67ffffffffffffffff81116115c857601f01601f191660200190565b60005b83811061164b5750506000910152565b818101518382015260200161163b565b81601f820112156106635780516116718161161c565b9261167f60405194856115fa565b818452602082840101116106635761169d9160208085019101611638565b90565b5190811515820361066357565b60208183031261066357805167ffffffffffffffff918282116106635701906101a092838382031261066357604051938401848110838211176115c8576040528251845260208301516001600160a01b03811681036106635760208501526040830151828111610663578161172391850161165b565b60408501526060830151828111610663578161174091850161165b565b606085015260808301519182116106635761175c91830161165b565b608083015260a081015160a083015260c081015160c083015260e081015160e0830152610100808201519083015261012080820151906007821015610663578301526101406117ac8183016116a0565b908301526101608082015190830152610180809101519082015290565b156117d057565b60405162461bcd60e51b815260206004820152601a60248201527f5072617a6f20646520636170746163616f20657870697261646f0000000000006044820152606490fd5b600260005414611826576002600055565b60405162461bcd60e51b815260206004820152601f60248201527f5265656e7472616e637947756172643a207265656e7472616e742063616c6c006044820152606490fd5b1561187257565b60405162461bcd60e51b8152602060048201526011602482015270457363726f77206e616f2065786973746560781b6044820152606490fd5b156118b257565b60405162461bcd60e51b815260206004820152601860248201527f457363726f77206a6120666f692066696e616c697a61646f00000000000000006044820152606490fd5b156118fe57565b60405162461bcd60e51b815260206004820152601d60248201527f56616c6f72206465766520736572206d61696f7220717565207a65726f0000006044820152606490fd5b9190820180921161195057565b634e487b7160e01b600052601160045260246000fd5b8054821015611982576000526003602060002091020190600090565b634e487b7160e01b600052603260045260246000fd5b60018060a01b031690604051604081019080821067ffffffffffffffff8311176115c857611a28916040526020938482527f5361666545524332303a206c6f772d6c6576656c2063616c6c206661696c6564858301526000808587829751910182855af13d15611abd573d91611a0d8361161c565b92611a1b60405194856115fa565b83523d868885013e611ac1565b90815190838215928315611a9b575b505050905015611a445750565b6084906040519062461bcd60e51b82526004820152602a60248201527f5361666545524332303a204552433230206f7065726174696f6e20646964206e6044820152691bdd081cdd58d8d9595960b21b6064820152fd5b8480929394500103126104ff575081611ab491016116a0565b80388381611a37565b6060915b91929015611b235750815115611ad5575090565b3b15611ade5790565b60405162461bcd60e51b815260206004820152601d60248201527f416464726573733a2063616c6c20746f206e6f6e2d636f6e74726163740000006044820152606490fd5b825190915015611b365750805190602001fd5b6044604051809262461bcd60e51b825260206004830152611b668151809281602486015260208686019101611638565b601f01601f19168101030190fd5b15611b7b57565b60405162461bcd60e51b815260206004820152601e60248201527f4170656e6173206f206172746973746120706f646520657865637574617200006044820152606490fd5b8181029291811591840414171561195057565b60405163a9059cbb60e01b60208201526001600160a01b039092166024830152604480830193909352918152608081019167ffffffffffffffff8311828410176115c857611c2392604052611998565b565b15611c2c57565b60405162461bcd60e51b815260206004820152601260248201527153616c646f20696e737566696369656e746560701b6044820152606490fdfe93e901cc5aea20ea9655887d9290a3215a5b3999c024812f4e4b749f7534349ca264697066735822122065cd3d7d71aa9b7e71883d05b1a5f78e40be4ce7a05f6477911528cd002990e664736f6c63430008130033",
  "linkReferences": {},
  "deployedLinkReferences": {}
}