{
  "_format": "hh-sol-artifact-1",
  "contractName": "ProjectRegistry",
  "sourceName": "contracts/ContractRegistry.sol",
  "abi": [
    {
      "inputs": [
        {
          "internalType": "address",
          "name": "_feeRecipient",
          "type": "address"
        }
      ],
      "stateMutability": "nonpayable",
      "type": "constructor"
    },
    {
      "anonymous": false,
      "inputs": [
        {
          "indexed": true,
          "internalType": "uint256",
          "name": "projectId",
          "type": "uint256"
        },
        {
          "indexed": false,
          "internalType": "uint256",
          "name": "totalRaised",
          "type": "uint256"
        }
      ],
      "name": "FundingGoalReached",
      "type": "event"
    },
    {
      "anonymous": false,
      "inputs": [
        {
          "indexed": true,
          "internalType": "address",
          "name": "previousOwner",
          "type": "address"
        },
        {
          "indexed": true,
          "internalType": "address",
          "name": "newOwner",
          "type": "address"
        }
      ],
      "name": "OwnershipTransferred",
      "type": "event"
    },
    {
      "anonymous": false,
      "inputs": [
        {
          "indexed": true,
          "internalType": "uint256",
          "name": "projectId",
          "type": "uint256"
        },
        {
          "indexed": true,
          "internalType": "address",
          "name": "approvedBy",
          "type": "address"
        }
      ],
      "name": "ProjectApproved",
      "type": "event"
    },
    {
      "anonymous": false,
      "inputs": [
        {
          "indexed": true,
          "internalType": "uint256",
          "name": "projectId",
          "type": "uint256"
        },
        {
          "indexed": true,
          "internalType": "address",
          "name": "artist",
          "type": "address"
        },
        {
          "indexed": false,
          "internalType": "string",
          "name": "title",
          "type": "string"
        },
        {
          "indexed": false,
          "internalType": "uint256",
          "name": "fundingGoal",
          "type": "uint256"
        },
        {
          "indexed": false,
          "internalType": "uint256",
          "name": "deadline",
          "type": "uint256"
        }
      ],
      "name": "ProjectCreated",
      "type": "event"
    },
    {
      "anonymous": false,
      "inputs": [
        {
          "indexed": true,
          "internalType": "uint256",
          "name": "projectId",
          "type": "uint256"
        },
        {
          "indexed": false,
          "internalType": "enum ProjectRegistry.ProjectStatus",
          "name": "oldStatus",
          "type": "uint8"
        },
        {
          "indexed": false,
          "internalType": "enum ProjectRegistry.ProjectStatus",
          "name": "newStatus",
          "type": "uint8"
        }
      ],
      "name": "ProjectStatusUpdated",
      "type": "event"
    },
    {
      "inputs": [
        {
          "internalType": "uint256",
          "name": "_projectId",
          "type": "uint256"
        }
      ],
      "name": "approveProject",
      "outputs": [],
      "stateMutability": "nonpayable",
      "type": "function"
    },
    {
      "inputs": [
        {
          "internalType": "address",
          "name": "",
          "type": "address"
        },
        {
          "internalType": "uint256",
          "name": "",
          "type": "uint256"
        }
      ],
      "name": "artistProjects",
      "outputs": [
        {
          "internalType": "uint256",
          "name": "",
          "type": "uint256"
        }
      ],
      "stateMutability": "view",
      "type": "function"
    },
    {
      "inputs": [
        {
          "internalType": "string",
          "name": "_title",
          "type": "string"
        },
        {
          "internalType": "string",
          "name": "_description",
          "type": "string"
        },
        {
          "internalType": "string",
          "name": "_demoUri",
          "type": "string"
        },
        {
          "internalType": "uint256",
          "name": "_fundingGoal",
          "type": "uint256"
        },
        {
          "internalType": "uint256",
          "name": "_fundingDeadline",
          "type": "uint256"
        },
        {
          "internalType": "uint256",
          "name": "_repaymentDeadline",
          "type": "uint256"
        },
        {
          "internalType": "uint256",
          "name": "_interestRate",
          "type": "uint256"
        },
        {
          "internalType": "bool",
          "name": "_allowsRoyaltyRepayment",
          "type": "bool"
        }
      ],
      "name": "createProject",
      "outputs": [
        {
          "internalType": "uint256",
          "name": "",
          "type": "uint256"
        }
      ],
      "stateMutability": "payable",
      "type": "function"
    },
    {
      "inputs": [
        {
          "internalType": "uint256",
          "name": "_projectId",
          "type": "uint256"
        }
      ],
      "name": "emergencyPause",
      "outputs": [],
      "stateMutability": "nonpayable",
      "type": "function"
    },
    {
      "inputs": [],
      "name": "feeRecipient",
      "outputs": [
        {
          "internalType": "address",
          "name": "",
          "type": "address"
        }
      ],
      "stateMutability": "view",
      "type": "function"
    },
    {
      "inputs": [
        {
          "internalType": "address",
          "name": "_artist",
          "type": "address"
        }
      ],
      "name": "getArtistProjects",
      "outputs": [
        {
          "internalType": "uint256[]",
          "name": "",
          "type": "uint256[]"
        }
      ],
      "stateMutability": "view",
      "type": "function"
    },
    {
      "inputs": [
        {
          "internalType": "uint256",
          "name": "_projectId",
          "type": "uint256"
        }
      ],
      "name": "getProject",
      "outputs": [
        {
          "components": [
            {
              "internalType": "uint256",
              "name": "id",
              "type": "uint256"
            },
            {
              "internalType": "address",
              "name": "artist",
              "type": "address"
            },
            {
              "internalType": "string",
              "name": "title",
              "type": "string"
            },
            {
              "internalType": "string",
              "name": "description",
              "type": "string"
            },
            {
              "internalType": "string",
              "name": "demoUri",
              "type": "string"
            },
            {
              "internalType": "uint256",
              "name": "fundingGoal",
              "type": "uint256"
            },
            {
              "internalType": "uint256",
              "name": "fundingDeadline",
              "type": "uint256"
            },
            {
              "internalType": "uint256",
              "name": "repaymentDeadline",
              "type": "uint256"
            },
            {
              "internalType": "uint256",
              "name": "interestRate",
              "type": "uint256"
            },
            {
              "internalType": "enum ProjectRegistry.ProjectStatus",
              "name": "status",
              "type": "uint8"
            },
            {
              "internalType": "bool",
              "name": "allowsRoyaltyRepayment",
              "type": "bool"
            },
            {
              "internalType": "uint256",
              "name": "createdAt",
              "type": "uint256"
            },
            {
              "internalType": "uint256",
              "name": "approvedAt",
              "type": "uint256"
            }
          ],
          "internalType": "struct ProjectRegistry.Project",
          "name": "",
          "type": "tuple"
        }
      ],
      "stateMutability": "view",
      "type": "function"
    },
    {
      "inputs": [],
      "name": "getTotalProjects",
      "outputs": [
        {
          "internalType": "uint256",
          "name": "",
          "type": "uint256"
        }
      ],
      "stateMutability": "view",
      "type": "function"
    },
    {
      "inputs": [],
      "name": "owner",
      "outputs": [
        {
          "internalType": "address",
          "name": "",
          "type": "address"
        }
      ],
      "stateMutability": "view",
      "type": "function"
    },
    {
      "inputs": [],
      "name": "projectCreationFee",
      "outputs": [
        {
          "internalType": "uint256",
          "name": "",
          "type": "uint256"
        }
      ],
      "stateMutability": "view",
      "type": "function"
    },
    {
      "inputs": [
        {
          "internalType": "uint256",
          "name": "",
          "type": "uint256"
        }
      ],
      "name": "projectExists",
      "outputs": [
        {
          "internalType": "bool",
          "name": "",
          "type": "bool"
        }
      ],
      "stateMutability": "view",
      "type": "function"
    },
    {
      "inputs": [
        {
          "internalType": "uint256",
          "name": "",
          "type": "uint256"
        }
      ],
      "name": "projects",
      "outputs": [
        {
          "internalType": "uint256",
          "name": "id",
          "type": "uint256"
        },
        {
          "internalType": "address",
          "name": "artist",
          "type": "address"
        },
        {
          "internalType": "string",
          "name": "title",
          "type": "string"
        },
        {
          "internalType": "string",
          "name": "description",
          "type": "string"
        },
        {
          "internalType": "string",
          "name": "demoUri",
          "type": "string"
        },
        {
          "internalType": "uint256",
          "name": "fundingGoal",
          "type": "uint256"
        },
        {
          "internalType": "uint256",
          "name": "fundingDeadline",
          "type": "uint256"
        },
        {
          "internalType": "uint256",
          "name": "repaymentDeadline",
          "type": "uint256"
        },
        {
          "internalType": "uint256",
          "name": "interestRate",
          "type": "uint256"
        },
        {
          "internalType": "enum ProjectRegistry.ProjectStatus",
          "name": "status",
          "type": "uint8"
        },
        {
          "internalType": "bool",
          "name": "allowsRoyaltyRepayment",
          "type": "bool"
        },
        {
          "internalType": "uint256",
          "name": "createdAt",
          "type": "uint256"
        },
        {
          "internalType": "uint256",
          "name": "approvedAt",
          "type": "uint256"
        }
      ],
      "stateMutability": "view",
      "type": "function"
    },
    {
      "inputs": [],
      "name": "renounceOwnership",
      "outputs": [],
      "stateMutability": "nonpayable",
      "type": "function"
    },
    {
      "inputs": [
        {
          "internalType": "address",
          "name": "_newRecipient",
          "type": "address"
        }
      ],
      "name": "setFeeRecipient",
      "outputs": [],
      "stateMutability": "nonpayable",
      "type": "function"
    },
    {
      "inputs": [
        {
          "internalType": "uint256",
          "name": "_newFee",
          "type": "uint256"
        }
      ],
      "name": "setProjectCreationFee",
      "outputs": [],
      "stateMutability": "nonpayable",
      "type": "function"
    },
    {
      "inputs": [
        {
          "internalType": "address",
          "name": "newOwner",
          "type": "address"
        }
      ],
      "name": "transferOwnership",
      "outputs": [],
      "stateMutability": "nonpayable",
      "type": "function"
    },
    {
      "inputs": [
        {
          "internalType": "uint256",
          "name": "_projectId",
          "type": "uint256"
        },
        {
          "internalType": "enum ProjectRegistry.ProjectStatus",
          "name": "_newStatus",
          "type": "uint8"
        }
      ],
      "name": "updateProjectStatus",
      "outputs": [],
      "stateMutability": "nonpayable",
      "type": "function"
    }
  ],
  "bytecode": "0x6080346100b657601f61166738819003918201601f19168301916001600160401b038311848410176100bb578084926020946040528339810103126100b657516001600160a01b0390818116908190036100b65760005460018060a01b0319903382821617600055604051933391167f8be0079c531659141344cd1fd0a4f28419497f9722a3daafe3b4186f6b6457e0600080a36001805566038d7ea4c68000600655600754161760075561159590816100d28239f35b600080fd5b634e487b7160e01b600052604160045260246000fdfe6080604052600436101561001257600080fd5b60003560e01c80630db25b7714611286578063107046bd1461117b578063375a4a4c146109725780633d4533431461091a57806346904840146108f15780636bad6541146108d3578063703d52af146108a2578063715018a614610849578063812739a21461082b5780638da5cb5b14610802578063ad3fbe301461077d578063d11d498b14610697578063d326c951146105e3578063e74b981b14610562578063f0f3f2c814610332578063f2fde38b1461026e5763fc69d836146100d757600080fd5b3461026957602080600319360112610269576004356100f46114ae565b806000526005825261010d60ff6040600020541661151e565b80600052600382526040600020600981019081549160ff831692600784101561025357836101f85760068301544210156101b35784956040937f15a4a29eccf92a0bbf94f24a6840487aa0226f7fb02d3402f1f86b3360bdfc6a95936001809460ff1916179055600b4291015561018684518094611406565b820152a233907fae45c6260346930c9824dfa2888d501cfd9372f592303b38f7788326fc22f016600080a3005b60405162461bcd60e51b815260048101879052601a60248201527f5072617a6f20646520636170746163616f20657870697261646f0000000000006044820152606490fd5b60405162461bcd60e51b815260048101879052602d60248201527f4170656e61732070726f6a65746f732070656e64656e74657320706f64656d2060448201526c736572206170726f7661646f7360981b6064820152608490fd5b634e487b7160e01b600052602160045260246000fd5b600080fd5b346102695760203660031901126102695761028761146a565b61028f6114ae565b6001600160a01b039081169081156102de57600054826001600160601b0360a01b821617600055167f8be0079c531659141344cd1fd0a4f28419497f9722a3daafe3b4186f6b6457e0600080a3005b60405162461bcd60e51b815260206004820152602660248201527f4f776e61626c653a206e6577206f776e657220697320746865207a65726f206160448201526564647265737360d01b6064820152608490fd5b34610269576020366003190112610269576004356000610180604051610357816112e1565b82815282602082015260606040820152606080820152606060808201528260a08201528260c08201528260e08201528261010082015282610120820152826101408201528261016082015201528060005260056020526103be60ff6040600020541661151e565b60005260036020526040600020604051906103d8826112e1565b8054825260018101546001600160a01b031660208301526103fb60028201611320565b604083015261040c60038201611320565b606083015261041d60048201611320565b6080830152600581015460a0830152600681015460c0830152600781015460e08301526008810154610100830152600981015490600760ff831610156102535760ff8281600b941661012086015260081c161515610140840152600a81015461016084015201546101808201526040518091602082528051602083015260018060a01b0360208201511660408301526101806104fe6104cd60408401516101a060608701526101c08601906113c6565b6104e9606085015191601f1992838883030160808901526113c6565b906080850151908683030160a08701526113c6565b9160a081015160c085015260c081015160e085015260e081015161010085015261010081015161012085015261053e610120820151610140860190611406565b61014081015115156101608501526101608101518285015201516101a08301520390f35b346102695760203660031901126102695761057b61146a565b6105836114ae565b6001600160a01b031680156105aa576001600160601b0360a01b6007541617600755600080f35b60405162461bcd60e51b8152602060048201526011602482015270456e64657265636f20696e76616c69646f60781b6044820152606490fd5b3461026957602080600319360112610269576001600160a01b0361060561146a565b1660005260048152604060002060405190818382549182815201908192600052846000209060005b86828210610683578686610643828803836112fe565b604051928392818401908285525180915260408401929160005b82811061066c57505050500390f35b83518552869550938101939281019260010161065d565b83548552909301926001928301920161062d565b34610269576040366003190112610269576004356024356007811015610269576003906106c26114ae565b8260005260056020526106dc60ff6040600020541661151e565b8260005281602052827f15a4a29eccf92a0bbf94f24a6840487aa0226f7fb02d3402f1f86b3360bdfc6a60406009816000200161071e8560ff83541692611506565b61072a82518092611406565b6107376020820186611406565ba21461073f57005b8060005260036020527f5bc6714ccad33557efe1cb9d18fa771135ab68961f6add3d4bb6f115adec81a46020600560406000200154604051908152a2005b34610269576020366003190112610269576004356107996114ae565b8060005260056020526107b360ff6040600020541661151e565b8060005260036020526009604060002001600660ff198254161790557f15a4a29eccf92a0bbf94f24a6840487aa0226f7fb02d3402f1f86b3360bdfc6a604080516006815260066020820152a2005b34610269576000366003190112610269576000546040516001600160a01b039091168152602090f35b34610269576000366003190112610269576020600254604051908152f35b34610269576000366003190112610269576108626114ae565b600080546001600160a01b0319811682556001600160a01b03167f8be0079c531659141344cd1fd0a4f28419497f9722a3daafe3b4186f6b6457e08280a3005b34610269576020366003190112610269576004356000526005602052602060ff604060002054166040519015158152f35b34610269576000366003190112610269576020600654604051908152f35b34610269576000366003190112610269576007546040516001600160a01b039091168152602090f35b346102695760403660031901126102695761093361146a565b6001600160a01b03166000908152600460205260409020805460243591908210156102695760209161096491611480565b90546040519160031b1c8152f35b6101003660031901126102695760043567ffffffffffffffff81116102695761099f903690600401611413565b60243567ffffffffffffffff8111610269576109bf903690600401611413565b604490813567ffffffffffffffff8111610269576109e1903690600401611413565b9160e4359081151582036102695760026001541461113757600260015560065434106110f357606435156110af574260843511156110735760843560a435111561101e5761138860c43511610fe25750600160025401928360025560405192610a49846112e1565b8484523360208501528560408501526060840152608083015260643560a083015260843560c083015260a43560e083015260c435610100830152600061012083015215156101408201524261016082015260006101808201528160005260036020526040600020908051825560018060a01b0360208201511660018301906001600160601b0360a01b825416179055604081015180519067ffffffffffffffff8211610d5c578190610afe60028601546112a7565b601f8111610f8f575b50602090601f8311600114610f1d57600092610f12575b50508160011b916000199060031b1c19161760028301555b606081015180519067ffffffffffffffff8211610d5c578190610b5c60038601546112a7565b601f8111610ebf575b50602090601f8311600114610e4d57600092610e42575b50508160011b916000199060031b1c19161760038301555b608081015180519067ffffffffffffffff8211610d5c578190610bba60048601546112a7565b601f8111610def575b50602090601f8311600114610d7d57600092610d72575b50508160011b916000199060031b1c19161760048301555b60a0810151600583015560c0810151600683015560e08101516007830155610100810151600883015560098201906101208101519060078210156102535782610c4061018093600b95611506565b610140820151151561ff0082549160081b169061ff001916179055610160810151600a85015501519101558060005260056020526040600020600160ff198254161790553360005260046020526040600020805468010000000000000000811015610d5c57610cb491600182018155611480565b81549060031b9083821b91600019901b1916179055600080808060018060a01b036007541681903415610d52575b3491f115610d4657602091817f483013d4a1d5e8ba43089bda8f1a92b959e32d6fc582556f800267dd809e5893610d24604051936060855260608501906113c6565b926064358682015260843560408201528033940390a360018055604051908152f35b6040513d6000823e3d90fd5b6108fc9150610ce2565b634e487b7160e01b600052604160045260246000fd5b015190508680610bda565b9250600485016000526020600020906000935b601f1984168510610dd4576001945083601f19811610610dbb575b505050811b016004830155610bf2565b015160001960f88460031b161c19169055868080610dab565b81810151835560209485019460019093019290910190610d90565b909150600485016000526020600020601f840160051c810160208510610e3b575b90849392915b601f830160051c82018110610e2c575050610bc3565b60008155859450600101610e16565b5080610e10565b015190508680610b7c565b9250600385016000526020600020906000935b601f1984168510610ea4576001945083601f19811610610e8b575b505050811b016003830155610b94565b015160001960f88460031b161c19169055868080610e7b565b81810151835560209485019460019093019290910190610e60565b909150600385016000526020600020601f840160051c810160208510610f0b575b90849392915b601f830160051c82018110610efc575050610b65565b60008155859450600101610ee6565b5080610ee0565b015190508680610b1e565b9250600285016000526020600020906000935b601f1984168510610f74576001945083601f19811610610f5b575b505050811b016002830155610b36565b015160001960f88460031b161c19169055868080610f4b565b81810151835560209485019460019093019290910190610f30565b909150600285016000526020600020601f840160051c810160208510610fdb575b90849392915b601f830160051c82018110610fcc575050610b07565b60008155859450600101610fb6565b5080610fb0565b6064907454617861206a75726f73206d6178696d612035302560581b6040519162461bcd60e51b83526020600484015260156024840152820152fd5b6084907f5072617a6f207265706167616d656e746f2064657665207365722061706f73206040519162461bcd60e51b8352602060048401526028602484015282015267636170746163616f60c01b6064820152fd5b606490745072617a6f2064657665207365722066757475726f60581b6040519162461bcd60e51b83526020600484015260156024840152820152fd5b6064907f4d657461206465766520736572206d61696f7220717565207a65726f000000006040519162461bcd60e51b835260206004840152601c6024840152820152fd5b6064907f54617861206465206372696163616f20696e737566696369656e7465000000006040519162461bcd60e51b835260206004840152601c6024840152820152fd5b6064907f5265656e7472616e637947756172643a207265656e7472616e742063616c6c006040519162461bcd60e51b835260206004840152601f6024840152820152fd5b34610269576020366003190112610269576004356000908152600360205260409020805460018201546001600160a01b0316916111ba60028201611320565b6111c660038301611320565b916111d360048201611320565b926005820154936006830154600784015490600885015492600986015494600a87015496600b0154976040519b8c9b8c5260208c01526101a08060408d01528b0161121d916113c6565b8a810360608c015261122e916113c6565b89810360808b015261123f916113c6565b9660a089015260c088015260e0870152610100860152610120850160ff82169061126891611406565b60081c60ff1615156101408501526101608401526101808301520390f35b346102695760203660031901126102695761129f6114ae565b600435600655005b90600182811c921680156112d7575b60208310146112c157565b634e487b7160e01b600052602260045260246000fd5b91607f16916112b6565b6101a0810190811067ffffffffffffffff821117610d5c57604052565b90601f8019910116810190811067ffffffffffffffff821117610d5c57604052565b9060405191826000825492611334846112a7565b9081845260019485811690816000146113a35750600114611360575b505061135e925003836112fe565b565b9093915060005260209081600020936000915b81831061138b57505061135e93508201013880611350565b85548884018501529485019487945091830191611373565b91505061135e94506020925060ff191682840152151560051b8201013880611350565b919082519283825260005b8481106113f2575050826000602080949584010152601f8019910116010190565b6020818301810151848301820152016113d1565b9060078210156102535752565b81601f820112156102695780359067ffffffffffffffff8211610d5c5760405192611448601f8401601f1916602001856112fe565b8284526020838301011161026957816000926020809301838601378301015290565b600435906001600160a01b038216820361026957565b80548210156114985760005260206000200190600090565b634e487b7160e01b600052603260045260246000fd5b6000546001600160a01b031633036114c257565b606460405162461bcd60e51b815260206004820152602060248201527f4f776e61626c653a2063616c6c6572206973206e6f7420746865206f776e65726044820152fd5b9060078110156102535760ff80198354169116179055565b1561152557565b60405162461bcd60e51b815260206004820152601260248201527150726f6a65746f206e616f2065786973746560701b6044820152606490fdfea2646970667358221220bf80a88b9373c9aa13d53b4e697e1170a70489bf516764f6314cac65b72cccbd64736f6c63430008130033",
  "linkReferences": {},
  "deployedLinkReferences": {}
}