{
  "_format": "hh-sol-artifact-1",
  "contractName": "RepaymentManager",
  "sourceName": "contracts/RepaymentManager.sol",
  "abi": [
    {
      "inputs": [
        {
          "internalType": "address",
          "name": "_projectRegistry",
          "type": "address"
        },
        {
          "internalType": "address",
          "name": "_loanEscrow",
          "type": "address"
        },
        {
          "internalType": "address",
          "name": "_paymentToken",
          "type": "address"
        },
        {
          "internalType": "address",
          "name": "_priceFeed",
          "type": "address"
        }
      ],
      "stateMutability": "nonpayable",
      "type": "constructor"
    },
    {
      "anonymous": false,
      "inputs": [
        {
          "indexed": true,
          "internalType": "address",
          "name": "previousOwner",
          "type": "address"
        },
        {
          "indexed": true,
          "internalType": "address",
          "name": "newOwner",
          "type": "address"
        }
      ],
      "name": "OwnershipTransferred",
      "type": "event"
    },
    {
      "anonymous": false,
      "inputs": [
        {
          "indexed": true,
          "internalType": "uint256",
          "name": "projectId",
          "type": "uint256"
        },
        {
          "indexed": true,
          "internalType": "address",
          "name": "investor",
          "type": "address"
        },
        {
          "indexed": false,
          "internalType": "uint256",
          "name": "amount",
          "type": "uint256"
        }
      ],
      "name": "PaymentDistributed",
      "type": "event"
    },
    {
      "anonymous": false,
      "inputs": [
        {
          "indexed": true,
          "internalType": "uint256",
          "name": "projectId",
          "type": "uint256"
        },
        {
          "indexed": false,
          "internalType": "uint256",
          "name": "totalPaid",
          "type": "uint256"
        }
      ],
      "name": "RepaymentCompleted",
      "type": "event"
    },
    {
      "anonymous": false,
      "inputs": [
        {
          "indexed": true,
          "internalType": "uint256",
          "name": "projectId",
          "type": "uint256"
        },
        {
          "indexed": false,
          "internalType": "uint256",
          "name": "totalOwed",
          "type": "uint256"
        },
        {
          "indexed": false,
          "internalType": "bool",
          "name": "isRoyaltyBased",
          "type": "bool"
        }
      ],
      "name": "RepaymentScheduleCreated",
      "type": "event"
    },
    {
      "anonymous": false,
      "inputs": [
        {
          "indexed": true,
          "internalType": "uint256",
          "name": "projectId",
          "type": "uint256"
        },
        {
          "indexed": false,
          "internalType": "uint256",
          "name": "amount",
          "type": "uint256"
        },
        {
          "indexed": false,
          "internalType": "string",
          "name": "source",
          "type": "string"
        },
        {
          "indexed": true,
          "internalType": "address",
          "name": "oracle",
          "type": "address"
        }
      ],
      "name": "RoyaltyPaymentReceived",
      "type": "event"
    },
    {
      "anonymous": false,
      "inputs": [
        {
          "indexed": true,
          "internalType": "uint256",
          "name": "projectId",
          "type": "uint256"
        },
        {
          "indexed": true,
          "internalType": "address",
          "name": "payer",
          "type": "address"
        },
        {
          "indexed": false,
          "internalType": "uint256",
          "name": "amount",
          "type": "uint256"
        }
      ],
      "name": "TraditionalPaymentMade",
      "type": "event"
    },
    {
      "inputs": [
        {
          "internalType": "address",
          "name": "_oracle",
          "type": "address"
        }
      ],
      "name": "addAuthorizedOracle",
      "outputs": [],
      "stateMutability": "nonpayable",
      "type": "function"
    },
    {
      "inputs": [
        {
          "internalType": "address",
          "name": "",
          "type": "address"
        }
      ],
      "name": "authorizedOracles",
      "outputs": [
        {
          "internalType": "bool",
          "name": "",
          "type": "bool"
        }
      ],
      "stateMutability": "view",
      "type": "function"
    },
    {
      "inputs": [
        {
          "internalType": "uint256",
          "name": "_projectId",
          "type": "uint256"
        }
      ],
      "name": "calculateInterest",
      "outputs": [
        {
          "internalType": "uint256",
          "name": "",
          "type": "uint256"
        }
      ],
      "stateMutability": "view",
      "type": "function"
    },
    {
      "inputs": [
        {
          "internalType": "uint256",
          "name": "_projectId",
          "type": "uint256"
        }
      ],
      "name": "emergencyPauseRepayment",
      "outputs": [],
      "stateMutability": "nonpayable",
      "type": "function"
    },
    {
      "inputs": [
        {
          "internalType": "uint256",
          "name": "_projectId",
          "type": "uint256"
        },
        {
          "internalType": "address",
          "name": "_investor",
          "type": "address"
        }
      ],
      "name": "getInvestorPayments",
      "outputs": [
        {
          "internalType": "uint256",
          "name": "",
          "type": "uint256"
        }
      ],
      "stateMutability": "view",
      "type": "function"
    },
    {
      "inputs": [
        {
          "internalType": "uint256",
          "name": "_projectId",
          "type": "uint256"
        }
      ],
      "name": "getRepaymentStatus",
      "outputs": [
        {
          "internalType": "uint256",
          "name": "totalOwed",
          "type": "uint256"
        },
        {
          "internalType": "uint256",
          "name": "totalPaid",
          "type": "uint256"
        },
        {
          "internalType": "uint256",
          "name": "remainingDebt",
          "type": "uint256"
        },
        {
          "internalType": "bool",
          "name": "isCompleted",
          "type": "bool"
        },
        {
          "internalType": "uint256",
          "name": "nextPaymentDue",
          "type": "uint256"
        }
      ],
      "stateMutability": "view",
      "type": "function"
    },
    {
      "inputs": [
        {
          "internalType": "uint256",
          "name": "_projectId",
          "type": "uint256"
        }
      ],
      "name": "getRoyaltyPayments",
      "outputs": [
        {
          "components": [
            {
              "internalType": "uint256",
              "name": "projectId",
              "type": "uint256"
            },
            {
              "internalType": "uint256",
              "name": "amount",
              "type": "uint256"
            },
            {
              "internalType": "string",
              "name": "source",
              "type": "string"
            },
            {
              "internalType": "uint256",
              "name": "timestamp",
              "type": "uint256"
            },
            {
              "internalType": "bytes32",
              "name": "oracleHash",
              "type": "bytes32"
            }
          ],
          "internalType": "struct RepaymentManager.RoyaltyPayment[]",
          "name": "",
          "type": "tuple[]"
        }
      ],
      "stateMutability": "view",
      "type": "function"
    },
    {
      "inputs": [
        {
          "internalType": "uint256",
          "name": "",
          "type": "uint256"
        },
        {
          "internalType": "address",
          "name": "",
          "type": "address"
        }
      ],
      "name": "investorPayments",
      "outputs": [
        {
          "internalType": "uint256",
          "name": "",
          "type": "uint256"
        }
      ],
      "stateMutability": "view",
      "type": "function"
    },
    {
      "inputs": [],
      "name": "loanEscrow",
      "outputs": [
        {
          "internalType": "contract ILoanEscrow",
          "name": "",
          "type": "address"
        }
      ],
      "stateMutability": "view",
      "type": "function"
    },
    {
      "inputs": [
        {
          "internalType": "uint256",
          "name": "_projectId",
          "type": "uint256"
        },
        {
          "internalType": "uint256",
          "name": "_amount",
          "type": "uint256"
        }
      ],
      "name": "makeTraditionalPayment",
      "outputs": [],
      "stateMutability": "nonpayable",
      "type": "function"
    },
    {
      "inputs": [],
      "name": "owner",
      "outputs": [
        {
          "internalType": "address",
          "name": "",
          "type": "address"
        }
      ],
      "stateMutability": "view",
      "type": "function"
    },
    {
      "inputs": [],
      "name": "paymentToken",
      "outputs": [
        {
          "internalType": "contract IERC20",
          "name": "",
          "type": "address"
        }
      ],
      "stateMutability": "view",
      "type": "function"
    },
    {
      "inputs": [],
      "name": "priceFeed",
      "outputs": [
        {
          "internalType": "contract AggregatorV3Interface",
          "name": "",
          "type": "address"
        }
      ],
      "stateMutability": "view",
      "type": "function"
    },
    {
      "inputs": [
        {
          "internalType": "uint256",
          "name": "_projectId",
          "type": "uint256"
        },
        {
          "internalType": "uint256",
          "name": "_amount",
          "type": "uint256"
        },
        {
          "internalType": "string",
          "name": "_source",
          "type": "string"
        },
        {
          "internalType": "bytes32",
          "name": "_oracleHash",
          "type": "bytes32"
        }
      ],
      "name": "processRoyaltyPayment",
      "outputs": [],
      "stateMutability": "nonpayable",
      "type": "function"
    },
    {
      "inputs": [],
      "name": "projectRegistry",
      "outputs": [
        {
          "internalType": "contract IProjectRegistry",
          "name": "",
          "type": "address"
        }
      ],
      "stateMutability": "view",
      "type": "function"
    },
    {
      "inputs": [
        {
          "internalType": "address",
          "name": "_oracle",
          "type": "address"
        }
      ],
      "name": "removeAuthorizedOracle",
      "outputs": [],
      "stateMutability": "nonpayable",
      "type": "function"
    },
    {
      "inputs": [],
      "name": "renounceOwnership",
      "outputs": [],
      "stateMutability": "nonpayable",
      "type": "function"
    },
    {
      "inputs": [
        {
          "internalType": "uint256",
          "name": "",
          "type": "uint256"
        }
      ],
      "name": "repaymentSchedules",
      "outputs": [
        {
          "internalType": "uint256",
          "name": "projectId",
          "type": "uint256"
        },
        {
          "internalType": "uint256",
          "name": "totalOwed",
          "type": "uint256"
        },
        {
          "internalType": "uint256",
          "name": "totalPaid",
          "type": "uint256"
        },
        {
          "internalType": "uint256",
          "name": "nextPaymentDue",
          "type": "uint256"
        },
        {
          "internalType": "uint256",
          "name": "monthlyPayment",
          "type": "uint256"
        },
        {
          "internalType": "bool",
          "name": "isRoyaltyBased",
          "type": "bool"
        },
        {
          "internalType": "bool",
          "name": "isCompleted",
          "type": "bool"
        },
        {
          "internalType": "uint256",
          "name": "createdAt",
          "type": "uint256"
        }
      ],
      "stateMutability": "view",
      "type": "function"
    },
    {
      "inputs": [],
      "name": "royaltyConversionRate",
      "outputs": [
        {
          "internalType": "uint256",
          "name": "",
          "type": "uint256"
        }
      ],
      "stateMutability": "view",
      "type": "function"
    },
    {
      "inputs": [
        {
          "internalType": "uint256",
          "name": "",
          "type": "uint256"
        },
        {
          "internalType": "uint256",
          "name": "",
          "type": "uint256"
        }
      ],
      "name": "royaltyPayments",
      "outputs": [
        {
          "internalType": "uint256",
          "name": "projectId",
          "type": "uint256"
        },
        {
          "internalType": "uint256",
          "name": "amount",
          "type": "uint256"
        },
        {
          "internalType": "string",
          "name": "source",
          "type": "string"
        },
        {
          "internalType": "uint256",
          "name": "timestamp",
          "type": "uint256"
        },
        {
          "internalType": "bytes32",
          "name": "oracleHash",
          "type": "bytes32"
        }
      ],
      "stateMutability": "view",
      "type": "function"
    },
    {
      "inputs": [
        {
          "internalType": "uint256",
          "name": "",
          "type": "uint256"
        }
      ],
      "name": "royaltyPool",
      "outputs": [
        {
          "internalType": "uint256",
          "name": "",
          "type": "uint256"
        }
      ],
      "stateMutability": "view",
      "type": "function"
    },
    {
      "inputs": [
        {
          "internalType": "uint256",
          "name": "",
          "type": "uint256"
        }
      ],
      "name": "scheduleExists",
      "outputs": [
        {
          "internalType": "bool",
          "name": "",
          "type": "bool"
        }
      ],
      "stateMutability": "view",
      "type": "function"
    },
    {
      "inputs": [
        {
          "internalType": "uint256",
          "name": "_projectId",
          "type": "uint256"
        }
      ],
      "name": "scheduleRepayment",
      "outputs": [],
      "stateMutability": "nonpayable",
      "type": "function"
    },
    {
      "inputs": [
        {
          "internalType": "address",
          "name": "_newToken",
          "type": "address"
        }
      ],
      "name": "setPaymentToken",
      "outputs": [],
      "stateMutability": "nonpayable",
      "type": "function"
    },
    {
      "inputs": [
        {
          "internalType": "uint256",
          "name": "_newRate",
          "type": "uint256"
        }
      ],
      "name": "setRoyaltyConversionRate",
      "outputs": [],
      "stateMutability": "nonpayable",
      "type": "function"
    },
    {
      "inputs": [
        {
          "internalType": "address",
          "name": "newOwner",
          "type": "address"
        }
      ],
      "name": "transferOwnership",
      "outputs": [],
      "stateMutability": "nonpayable",
      "type": "function"
    }
  ],
  "bytecode": "0x6080346200010757601f62001d2238819003918201601f19168301916001600160401b038311848410176200010c5780849260809460405283398101031262000107576200004d8162000122565b906200005c6020820162000122565b620000786060620000706040850162000122565b930162000122565b60016000556001549360018060a01b03199333858716176001556040519560018060a01b03948580948193823391167f8be0079c531659141344cd1fd0a4f28419497f9722a3daafe3b4186f6b6457e0600080a3611f40600c5516876002541617600255168560035416176003551683600a541617600a5516906004541617600455611bea9081620001388239f35b600080fd5b634e487b7160e01b600052604160045260246000fd5b51906001600160a01b0382168203620001075756fe608080604052600436101561001357600080fd5b600090813560e01c9081631bbbc2b11461142c575080633013ce29146114035780633f0092ae146111f9578063500f09141461132457806354a99824146112a55780635a33d8dc1461127c57806361c992a31461123d57806367a77dba146111f95780636a326ab1146111b4578063715018a614611157578063741bef1a1461112e57806388205b57146110ed5780638da5cb5b146110c45780639d78cc341461109b578063a37202a814611057578063a4b186f814611028578063a57475e014610f3a578063a6b5e3e714610a85578063ac8308ac14610a07578063b05fb7b41461072b578063e0cf1efb146106f0578063f2fde38b14610625578063f3863bd0146105c1578063f7b3bf1414610189578063f8837d7f1461016b5763f9314dc71461013f57600080fd5b346101685760203660031901126101685760406020916004358152600983522054604051908152f35b80fd5b50346101685780600319360112610168576020600c54604051908152f35b50346101685761019836611659565b906101a16119b2565b600254604051631e1e7e5960e31b815260048101839052908490829060249082906001600160a01b03165afa9081156105b6578491610594575b50602001516001600160a01b0316330361054f5780835260056020526040832091600860205261021160ff604086205416611a08565b61022560ff600585015460081c1615611a4c565b801561050a5761023e6001840154600285015490611a98565b90818111156105025750915b600a546040516323b872dd60e01b602082015233602482015230604482015260648082018690528152906001600160a01b0316610286826115eb565b6040519081604081011067ffffffffffffffff6040840111176104ec5786806103119460408501604052602085527f5361666545524332303a206c6f772d6c6576656c2063616c6c206661696c6564602086015260208151910182855af13d156104e4573d916102f58361163d565b92610303604051948561161b565b83523d89602085013e611aa5565b80519081159182156104be575b5050156104665780610335846002879401546119a5565b600282018190556001820154116104395760058101805461ff0019166101001790556002546001600160a01b0316803b156104355782809160446040518096819363d11d498b60e01b8352896004840152600560248401525af192831561042857849361040b575b5050602060027fad37d0dcbf8a11ee8edb614afe9f1cc8ca00876c67e8f2dae58f738db9c9431d920154604051908152a25b6103d881611b42565b6040519182527f952907acb8c470650b6ebf7e479471027e2f21089189c71b78386045c92625ba60203393a36001815580f35b61041791929350611607565b610424578190843861039d565b8380fd5b50604051903d90823e3d90fd5b8280fd5b905062278d0042019081421161045257600301556103cf565b634e487b7160e01b85526011600452602485fd5b60405162461bcd60e51b815260206004820152602a60248201527f5361666545524332303a204552433230206f7065726174696f6e20646964206e6044820152691bdd081cdd58d8d9595960b21b6064820152608490fd5b81925090602091810103126104e05760206104d9910161181e565b388061031e565b8480fd5b606091611aa5565b634e487b7160e01b600052604160045260246000fd5b90509161024a565b60405162461bcd60e51b815260206004820152601d60248201527f56616c6f72206465766520736572206d61696f7220717565207a65726f0000006044820152606490fd5b60405162461bcd60e51b815260206004820152601e60248201527f4170656e6173206f206172746973746120706f646520657865637574617200006044820152606490fd5b6105b091503d8086833e6105a8818361161b565b81019061182b565b386101db565b6040513d86823e3d90fd5b5034610168576020366003190112610168576004356105de611781565b61271081116105ed57600c5580f35b60405162461bcd60e51b815260206004820152601060248201526f54617861206d6178696d61203130302560801b6044820152606490fd5b50346101685760203660031901126101685761063f6115d5565b610647611781565b6001600160a01b0390811690811561069c57600154826bffffffffffffffffffffffff60a01b821617600155167f8be0079c531659141344cd1fd0a4f28419497f9722a3daafe3b4186f6b6457e0600080a380f35b60405162461bcd60e51b815260206004820152602660248201527f4f776e61626c653a206e6577206f776e657220697320746865207a65726f206160448201526564647265737360d01b6064820152608490fd5b50346101685760203660031901126101685761070a611781565b600435815260056020526005604082200161010061ff001982541617905580f35b503461016857602080600319360112610a03576004359061074a6119b2565b8183526008815260ff6040842054166109c857600254604051631e1e7e5960e31b81526004810184905291906024906001600160a01b0390869085908490829085165afa93841561094a5786946109ac575b506101208401516007811015610999576004036109555760a08291600354166040519283809263ae89aeb960e01b82528960048301525afa801561094a5786918791610914575b50156108d057610806906127106107ff6101008701518361197c565b04906119a5565b9284865260058352604086209185835584600184015586600284015562278d004201908142116108be575091610140604094927fc88c773a198266d045fed15a41da2488c122b9021fb52f77e3b32dc1713b410296946003840155019081511560058201805460ff8315169061ffff19161790554260068301556108af575b5085875260088252838720805460ff19166001179055518351928352151590820152a26001815580f35b6004600c850491015538610885565b634e487b7160e01b8852601160045287fd5b60405162461bcd60e51b815260048101849052601f818401527f46756e646f7320646576656d20746572207369646f206c6962657261646f73006044820152606490fd5b9050610937915060a03d8111610943575b61092f818361161b565b810190611947565b505091905090386107e3565b503d610925565b6040513d88823e3d90fd5b60405162461bcd60e51b8152600481018490526018818401527f50726f6a65746f206465766520657374617220617469766f00000000000000006044820152606490fd5b634e487b7160e01b875260216004528287fd5b6109c19194503d8088833e6105a8818361161b565b923861079c565b6064906040519062461bcd60e51b82526004820152601460248201527343726f6e6f6772616d61206a612065786973746560601b6044820152fd5b5080fd5b503461016857610a1636611659565b908252600660205260408220805482101561043557610a35925061166f565b508054600182015491610a4a600282016116db565b610a7660046003840154930154916040519586958652602086015260a0604086015260a0850190611595565b91606084015260808301520390f35b50346101685760803660031901126101685760443567ffffffffffffffff8111610a035736602382011215610a035781816004013591610ac48361163d565b92610ad2604051948561161b565b808452366024828401011161043557806024602093018386013783010152338252600b60205260ff60408320541615610efc57610b0d6119b2565b60043582526008602052610b2760ff604084205416611a08565b600435825260056020526040822060ff6005820154610b4b828260081c1615611a4c565b1615610ea257600435835260066020526040832060405190610b6c826115eb565b60043582526024356020830152836040830152426060830152606435608083015280549068010000000000000000821015610e8e5790610bb19160018201815561166f565b919091610e7a578051825560208101516001830155604081015180519067ffffffffffffffff8211610e6657610bea60028501546116a1565b601f8111610e22575b50602090601f8311600114610db0579180600494926080948a92610da5575b50508160011b916000199060031b1c19161760028501555b606081015160038501550151910155612710610c4a600c5460243561197c565b0490600181018054926002830193610c6485548092611a98565b808311610d9b575b5081610c77916119a5565b845560043586526009602052610c92604087209182546119a5565b9055825490541115610cfb575b5050610cac600435611b42565b604051906024358252604060208301527f464d5c98607f6d9474536e404efa5fbd01e3af773eb9fc828bdac1a9d45c2d47339280610cf1600435946040830190611595565b0390a36001815580f35b600501805461ff00191661010017905560025483906001600160a01b0316803b15610a0357819060446040518094819363d11d498b60e01b83526004356004840152600560248401525af180156105b657610d88575b50546040519081527fad37d0dcbf8a11ee8edb614afe9f1cc8ca00876c67e8f2dae58f738db9c9431d602060043592a23880610c9f565b610d9490939193611607565b9138610d51565b9150610c77610c6c565b015190503880610c12565b906002850188526020882091885b601f1985168110610e0a5750926004949260019260809583601f19811610610df1575b505050811b016002850155610c2a565b015160001960f88460031b161c19169055388080610de1565b91926020600181928685015181550194019201610dbe565b60028501885260208820601f840160051c810160208510610e5f575b601f830160051c82018110610e54575050610bf3565b898155600101610e3e565b5080610e3e565b634e487b7160e01b87526041600452602487fd5b634e487b7160e01b85526004859052602485fd5b634e487b7160e01b86526041600452602486fd5b60405162461bcd60e51b815260206004820152602c60248201527f50726f6a65746f206e616f20616365697461207265706167616d656e746f207060448201526b6f7220726f79616c7469657360a01b6064820152608490fd5b60405162461bcd60e51b81526020600482015260166024820152754f726163756c6f206e616f206175746f72697a61646f60501b6044820152606490fd5b503461016857602036600319011261016857600435602460018060a01b0383816002541660405193848092631e1e7e5960e31b82528760048301525afa9182156105b6578492611009575b5060a090600354169260246040518095819363ae89aeb960e01b835260048301525afa918215610ffe5791610fcd916127109360209592610fd6575b5061010001519061197c565b04604051908152f35b610100919250610ff39060a03d81116109435761092f818361161b565b505050509190610fc1565b6040513d85823e3d90fd5b60a0919250611021903d8087833e6105a8818361161b565b9190610f85565b50346101685760203660031901126101685760ff60406020926004358152600884522054166040519015158152f35b5034610168576020366003190112610168576110716115d5565b611079611781565b6001600160a01b03168152600b60205260408120805460ff1916600117905580f35b50346101685780600319360112610168576003546040516001600160a01b039091168152602090f35b50346101685780600319360112610168576001546040516001600160a01b039091168152602090f35b5034610168576020366003190112610168576111076115d5565b61110f611781565b6001600160a01b03168152600b60205260408120805460ff1916905580f35b50346101685780600319360112610168576004546040516001600160a01b039091168152602090f35b5034610168578060031936011261016857611170611781565b600180546001600160a01b0319811690915581906001600160a01b03167f8be0079c531659141344cd1fd0a4f28419497f9722a3daafe3b4186f6b6457e08280a380f35b5034610168576020366003190112610168576111ce6115d5565b6111d6611781565b60018060a01b03166bffffffffffffffffffffffff60a01b600a541617600a5580f35b50346101685760403660031901126101685760406020916112186115ba565b6004358252600784528282206001600160a01b03909116825283522054604051908152f35b50346101685760203660031901126101685760209060ff906040906001600160a01b036112686115d5565b168152600b84522054166040519015158152f35b50346101685780600319360112610168576002546040516001600160a01b039091168152602090f35b503461016857602036600319011261016857604061010091600435815260056020522080549060ff6001820154916002810154600382015460048301549160066005850154940154956040519788526020880152604087015260608601526080850152818116151560a085015260081c16151560c083015260e0820152f35b503461016857602036600319011261016857600435815260056020526040812060405190610100820182811067ffffffffffffffff8211176113ef5760a0935060405280548252600181015491826020820152600282015491826040830152600381015491606081019283526004820154608082015260e0600660058401549360ff851615158985015260ff60c085019560081c161515855201549101526113cc8385611a98565b905115159151926040519485526020850152604084015260608301526080820152f35b634e487b7160e01b84526041600452602484fd5b5034610168578060031936011261016857600a546040516001600160a01b039091168152602090f35b82346101685760209182600319360112610a0357600435825260068352604082209081549367ffffffffffffffff85116113ef5792906005946114738582881b018361161b565b808252848201809484528584208785925b848410611518575050505050604051938085019181865251809252604082818701971b8601019392955b8287106114bb5785850386f35b909192938280600192603f198982030185528751908151815282820151838201526114f4604083015160a0806040850152830190611595565b916060808201519083015260808091015191015296019201960195929190926114ae565b908860019260409a97989a5161152d816115eb565b855481528486015483820152611545600287016116db565b60408201526003860154606082015260048601546080820152815201920192019190889097959497611484565b60005b8381106115855750506000910152565b8181015183820152602001611575565b906020916115ae81518092818552858086019101611572565b601f01601f1916010190565b602435906001600160a01b03821682036115d057565b600080fd5b600435906001600160a01b03821682036115d057565b60a0810190811067ffffffffffffffff8211176104ec57604052565b67ffffffffffffffff81116104ec57604052565b90601f8019910116810190811067ffffffffffffffff8211176104ec57604052565b67ffffffffffffffff81116104ec57601f01601f191660200190565b60409060031901126115d0576004359060243590565b805482101561168b576000526005602060002091020190600090565b634e487b7160e01b600052603260045260246000fd5b90600182811c921680156116d1575b60208310146116bb57565b634e487b7160e01b600052602260045260246000fd5b91607f16916116b0565b90604051918260008254926116ef846116a1565b90818452600194858116908160001461175e575060011461171b575b50506117199250038361161b565b565b9093915060005260209081600020936000915b8183106117465750506117199350820101388061170b565b8554888401850152948501948794509183019161172e565b91505061171994506020925060ff191682840152151560051b820101388061170b565b6001546001600160a01b0316330361179557565b606460405162461bcd60e51b815260206004820152602060248201527f4f776e61626c653a2063616c6c6572206973206e6f7420746865206f776e65726044820152fd5b81601f820112156115d05780516117ef8161163d565b926117fd604051948561161b565b818452602082840101116115d05761181b9160208085019101611572565b90565b519081151582036115d057565b6020818303126115d057805167ffffffffffffffff918282116115d05701906101a09283838203126115d057604051938401848110838211176104ec576040528251845260208301516001600160a01b03811681036115d057602085015260408301518281116115d057816118a19185016117d9565b604085015260608301518281116115d057816118be9185016117d9565b606085015260808301519182116115d0576118da9183016117d9565b608083015260a081015160a083015260c081015160c083015260e081015160e08301526101008082015190830152610120808201519060078210156115d05783015261014061192a81830161181e565b908301526101608082015190830152610180809101519082015290565b908160a09103126115d0578051916020820151916119676040820161181e565b9160806119766060840161181e565b92015190565b8181029291811591840414171561198f57565b634e487b7160e01b600052601160045260246000fd5b9190820180921161198f57565b6002600054146119c3576002600055565b60405162461bcd60e51b815260206004820152601f60248201527f5265656e7472616e637947756172643a207265656e7472616e742063616c6c006044820152606490fd5b15611a0f57565b60405162461bcd60e51b815260206004820152601560248201527443726f6e6f6772616d61206e616f2065786973746560581b6044820152606490fd5b15611a5357565b60405162461bcd60e51b815260206004820152601960248201527f5265706167616d656e746f206a6120636f6d706c657461646f000000000000006044820152606490fd5b9190820391821161198f57565b91929015611b075750815115611ab9575090565b3b15611ac25790565b60405162461bcd60e51b815260206004820152601d60248201527f416464726573733a2063616c6c20746f206e6f6e2d636f6e74726163740000006044820152606490fd5b825190915015611b1a5750805190602001fd5b60405162461bcd60e51b815260206004820152908190611b3e906024830190611595565b0390fd5b60035460405163ae89aeb960e01b8152600481019290925260a090829060249082906001600160a01b03165afa908115611ba857600091611b86575b501561171957565b611b9e915060a03d81116109435761092f818361161b565b5050505038611b7e565b6040513d6000823e3d90fdfea2646970667358221220e50d203e8fa0d37f4e7013b018db9e812853d5581c623d80885b4c1061d90bbf64736f6c63430008130033",
  "linkReferences": {},
  "deployedLinkReferences": {}
}