{"contracts/ContractRegistry.sol":{"ProjectRegistry":{"abi":[{"inputs":[{"internalType":"address","name":"_feeRecipient","type":"address"}],"stateMutability":"nonpayable","type":"constructor"},{"anonymous":false,"inputs":[{"indexed":true,"internalType":"uint256","name":"projectId","type":"uint256"},{"indexed":false,"internalType":"uint256","name":"totalRaised","type":"uint256"}],"name":"FundingGoalReached","type":"event"},{"anonymous":false,"inputs":[{"indexed":true,"internalType":"address","name":"previousOwner","type":"address"},{"indexed":true,"internalType":"address","name":"newOwner","type":"address"}],"name":"OwnershipTransferred","type":"event"},{"anonymous":false,"inputs":[{"indexed":true,"internalType":"uint256","name":"projectId","type":"uint256"},{"indexed":true,"internalType":"address","name":"approvedBy","type":"address"}],"name":"ProjectApproved","type":"event"},{"anonymous":false,"inputs":[{"indexed":true,"internalType":"uint256","name":"projectId","type":"uint256"},{"indexed":true,"internalType":"address","name":"artist","type":"address"},{"indexed":false,"internalType":"string","name":"title","type":"string"},{"indexed":false,"internalType":"uint256","name":"fundingGoal","type":"uint256"},{"indexed":false,"internalType":"uint256","name":"deadline","type":"uint256"}],"name":"ProjectCreated","type":"event"},{"anonymous":false,"inputs":[{"indexed":true,"internalType":"uint256","name":"projectId","type":"uint256"},{"indexed":false,"internalType":"enum ProjectRegistry.ProjectStatus","name":"oldStatus","type":"uint8"},{"indexed":false,"internalType":"enum ProjectRegistry.ProjectStatus","name":"newStatus","type":"uint8"}],"name":"ProjectStatusUpdated","type":"event"},{"inputs":[{"internalType":"uint256","name":"_projectId","type":"uint256"}],"name":"approveProject","outputs":[],"stateMutability":"nonpayable","type":"function"},{"inputs":[{"internalType":"address","name":"","type":"address"},{"internalType":"uint256","name":"","type":"uint256"}],"name":"artistProjects","outputs":[{"internalType":"uint256","name":"","type":"uint256"}],"stateMutability":"view","type":"function"},{"inputs":[{"internalType":"string","name":"_title","type":"string"},{"internalType":"string","name":"_description","type":"string"},{"internalType":"string","name":"_demoUri","type":"string"},{"internalType":"uint256","name":"_fundingGoal","type":"uint256"},{"internalType":"uint256","name":"_fundingDeadline","type":"uint256"},{"internalType":"uint256","name":"_repaymentDeadline","type":"uint256"},{"internalType":"uint256","name":"_interestRate","type":"uint256"},{"internalType":"bool","name":"_allowsRoyaltyRepayment","type":"bool"}],"name":"createProject","outputs":[{"internalType":"uint256","name":"","type":"uint256"}],"stateMutability":"payable","type":"function"},{"inputs":[{"internalType":"uint256","name":"_projectId","type":"uint256"}],"name":"emergencyPause","outputs":[],"stateMutability":"nonpayable","type":"function"},{"inputs":[],"name":"feeRecipient","outputs":[{"internalType":"address","name":"","type":"address"}],"stateMutability":"view","type":"function"},{"inputs":[{"internalType":"address","name":"_artist","type":"address"}],"name":"getArtistProjects","outputs":[{"internalType":"uint256[]","name":"","type":"uint256[]"}],"stateMutability":"view","type":"function"},{"inputs":[{"internalType":"uint256","name":"_projectId","type":"uint256"}],"name":"getProject","outputs":[{"components":[{"internalType":"uint256","name":"id","type":"uint256"},{"internalType":"address","name":"artist","type":"address"},{"internalType":"string","name":"title","type":"string"},{"internalType":"string","name":"description","type":"string"},{"internalType":"string","name":"demoUri","type":"string"},{"internalType":"uint256","name":"fundingGoal","type":"uint256"},{"internalType":"uint256","name":"fundingDeadline","type":"uint256"},{"internalType":"uint256","name":"repaymentDeadline","type":"uint256"},{"internalType":"uint256","name":"interestRate","type":"uint256"},{"internalType":"enum ProjectRegistry.ProjectStatus","name":"status","type":"uint8"},{"internalType":"bool","name":"allowsRoyaltyRepayment","type":"bool"},{"internalType":"uint256","name":"createdAt","type":"uint256"},{"internalType":"uint256","name":"approvedAt","type":"uint256"}],"internalType":"struct ProjectRegistry.Project","name":"","type":"tuple"}],"stateMutability":"view","type":"function"},{"inputs":[],"name":"getTotalProjects","outputs":[{"internalType":"uint256","name":"","type":"uint256"}],"stateMutability":"view","type":"function"},{"inputs":[],"name":"owner","outputs":[{"internalType":"address","name":"","type":"address"}],"stateMutability":"view","type":"function"},{"inputs":[],"name":"projectCreationFee","outputs":[{"internalType":"uint256","name":"","type":"uint256"}],"stateMutability":"view","type":"function"},{"inputs":[{"internalType":"uint256","name":"","type":"uint256"}],"name":"projectExists","outputs":[{"internalType":"bool","name":"","type":"bool"}],"stateMutability":"view","type":"function"},{"inputs":[{"internalType":"uint256","name":"","type":"uint256"}],"name":"projects","outputs":[{"internalType":"uint256","name":"id","type":"uint256"},{"internalType":"address","name":"artist","type":"address"},{"internalType":"string","name":"title","type":"string"},{"internalType":"string","name":"description","type":"string"},{"internalType":"string","name":"demoUri","type":"string"},{"internalType":"uint256","name":"fundingGoal","type":"uint256"},{"internalType":"uint256","name":"fundingDeadline","type":"uint256"},{"internalType":"uint256","name":"repaymentDeadline","type":"uint256"},{"internalType":"uint256","name":"interestRate","type":"uint256"},{"internalType":"enum ProjectRegistry.ProjectStatus","name":"status","type":"uint8"},{"internalType":"bool","name":"allowsRoyaltyRepayment","type":"bool"},{"internalType":"uint256","name":"createdAt","type":"uint256"},{"internalType":"uint256","name":"approvedAt","type":"uint256"}],"stateMutability":"view","type":"function"},{"inputs":[],"name":"renounceOwnership","outputs":[],"stateMutability":"nonpayable","type":"function"},{"inputs":[{"internalType":"address","name":"_newRecipient","type":"address"}],"name":"setFeeRecipient","outputs":[],"stateMutability":"nonpayable","type":"function"},{"inputs":[{"internalType":"uint256","name":"_newFee","type":"uint256"}],"name":"setProjectCreationFee","outputs":[],"stateMutability":"nonpayable","type":"function"},{"inputs":[{"internalType":"address","name":"newOwner","type":"address"}],"name":"transferOwnership","outputs":[],"stateMutability":"nonpayable","type":"function"},{"inputs":[{"internalType":"uint256","name":"_projectId","type":"uint256"},{"internalType":"enum ProjectRegistry.ProjectStatus","name":"_newStatus","type":"uint8"}],"name":"updateProjectStatus","outputs":[],"stateMutability":"nonpayable","type":"function"}],"evm":{"bytecode":{"linkReferences":{},"object":"6080346100b657601f61166738819003918201601f19168301916001600160401b038311848410176100bb578084926020946040528339810103126100b657516001600160a01b0390818116908190036100b65760005460018060a01b0319903382821617600055604051933391167f8be0079c531659141344cd1fd0a4f28419497f9722a3daafe3b4186f6b6457e0600080a36001805566038d7ea4c68000600655600754161760075561159590816100d28239f35b600080fd5b634e487b7160e01b600052604160045260246000fdfe6080604052600436101561001257600080fd5b60003560e01c80630db25b7714611286578063107046bd1461117b578063375a4a4c146109725780633d4533431461091a57806346904840146108f15780636bad6541146108d3578063703d52af146108a2578063715018a614610849578063812739a21461082b5780638da5cb5b14610802578063ad3fbe301461077d578063d11d498b14610697578063d326c951146105e3578063e74b981b14610562578063f0f3f2c814610332578063f2fde38b1461026e5763fc69d836146100d757600080fd5b3461026957602080600319360112610269576004356100f46114ae565b806000526005825261010d60ff6040600020541661151e565b80600052600382526040600020600981019081549160ff831692600784101561025357836101f85760068301544210156101b35784956040937f15a4a29eccf92a0bbf94f24a6840487aa0226f7fb02d3402f1f86b3360bdfc6a95936001809460ff1916179055600b4291015561018684518094611406565b820152a233907fae45c6260346930c9824dfa2888d501cfd9372f592303b38f7788326fc22f016600080a3005b60405162461bcd60e51b815260048101879052601a60248201527f5072617a6f20646520636170746163616f20657870697261646f0000000000006044820152606490fd5b60405162461bcd60e51b815260048101879052602d60248201527f4170656e61732070726f6a65746f732070656e64656e74657320706f64656d2060448201526c736572206170726f7661646f7360981b6064820152608490fd5b634e487b7160e01b600052602160045260246000fd5b600080fd5b346102695760203660031901126102695761028761146a565b61028f6114ae565b6001600160a01b039081169081156102de57600054826001600160601b0360a01b821617600055167f8be0079c531659141344cd1fd0a4f28419497f9722a3daafe3b4186f6b6457e0600080a3005b60405162461bcd60e51b815260206004820152602660248201527f4f776e61626c653a206e6577206f776e657220697320746865207a65726f206160448201526564647265737360d01b6064820152608490fd5b34610269576020366003190112610269576004356000610180604051610357816112e1565b82815282602082015260606040820152606080820152606060808201528260a08201528260c08201528260e08201528261010082015282610120820152826101408201528261016082015201528060005260056020526103be60ff6040600020541661151e565b60005260036020526040600020604051906103d8826112e1565b8054825260018101546001600160a01b031660208301526103fb60028201611320565b604083015261040c60038201611320565b606083015261041d60048201611320565b6080830152600581015460a0830152600681015460c0830152600781015460e08301526008810154610100830152600981015490600760ff831610156102535760ff8281600b941661012086015260081c161515610140840152600a81015461016084015201546101808201526040518091602082528051602083015260018060a01b0360208201511660408301526101806104fe6104cd60408401516101a060608701526101c08601906113c6565b6104e9606085015191601f1992838883030160808901526113c6565b906080850151908683030160a08701526113c6565b9160a081015160c085015260c081015160e085015260e081015161010085015261010081015161012085015261053e610120820151610140860190611406565b61014081015115156101608501526101608101518285015201516101a08301520390f35b346102695760203660031901126102695761057b61146a565b6105836114ae565b6001600160a01b031680156105aa576001600160601b0360a01b6007541617600755600080f35b60405162461bcd60e51b8152602060048201526011602482015270456e64657265636f20696e76616c69646f60781b6044820152606490fd5b3461026957602080600319360112610269576001600160a01b0361060561146a565b1660005260048152604060002060405190818382549182815201908192600052846000209060005b86828210610683578686610643828803836112fe565b604051928392818401908285525180915260408401929160005b82811061066c57505050500390f35b83518552869550938101939281019260010161065d565b83548552909301926001928301920161062d565b34610269576040366003190112610269576004356024356007811015610269576003906106c26114ae565b8260005260056020526106dc60ff6040600020541661151e565b8260005281602052827f15a4a29eccf92a0bbf94f24a6840487aa0226f7fb02d3402f1f86b3360bdfc6a60406009816000200161071e8560ff83541692611506565b61072a82518092611406565b6107376020820186611406565ba21461073f57005b8060005260036020527f5bc6714ccad33557efe1cb9d18fa771135ab68961f6add3d4bb6f115adec81a46020600560406000200154604051908152a2005b34610269576020366003190112610269576004356107996114ae565b8060005260056020526107b360ff6040600020541661151e565b8060005260036020526009604060002001600660ff198254161790557f15a4a29eccf92a0bbf94f24a6840487aa0226f7fb02d3402f1f86b3360bdfc6a604080516006815260066020820152a2005b34610269576000366003190112610269576000546040516001600160a01b039091168152602090f35b34610269576000366003190112610269576020600254604051908152f35b34610269576000366003190112610269576108626114ae565b600080546001600160a01b0319811682556001600160a01b03167f8be0079c531659141344cd1fd0a4f28419497f9722a3daafe3b4186f6b6457e08280a3005b34610269576020366003190112610269576004356000526005602052602060ff604060002054166040519015158152f35b34610269576000366003190112610269576020600654604051908152f35b34610269576000366003190112610269576007546040516001600160a01b039091168152602090f35b346102695760403660031901126102695761093361146a565b6001600160a01b03166000908152600460205260409020805460243591908210156102695760209161096491611480565b90546040519160031b1c8152f35b6101003660031901126102695760043567ffffffffffffffff81116102695761099f903690600401611413565b60243567ffffffffffffffff8111610269576109bf903690600401611413565b604490813567ffffffffffffffff8111610269576109e1903690600401611413565b9160e4359081151582036102695760026001541461113757600260015560065434106110f357606435156110af574260843511156110735760843560a435111561101e5761138860c43511610fe25750600160025401928360025560405192610a49846112e1565b8484523360208501528560408501526060840152608083015260643560a083015260843560c083015260a43560e083015260c435610100830152600061012083015215156101408201524261016082015260006101808201528160005260036020526040600020908051825560018060a01b0360208201511660018301906001600160601b0360a01b825416179055604081015180519067ffffffffffffffff8211610d5c578190610afe60028601546112a7565b601f8111610f8f575b50602090601f8311600114610f1d57600092610f12575b50508160011b916000199060031b1c19161760028301555b606081015180519067ffffffffffffffff8211610d5c578190610b5c60038601546112a7565b601f8111610ebf575b50602090601f8311600114610e4d57600092610e42575b50508160011b916000199060031b1c19161760038301555b608081015180519067ffffffffffffffff8211610d5c578190610bba60048601546112a7565b601f8111610def575b50602090601f8311600114610d7d57600092610d72575b50508160011b916000199060031b1c19161760048301555b60a0810151600583015560c0810151600683015560e08101516007830155610100810151600883015560098201906101208101519060078210156102535782610c4061018093600b95611506565b610140820151151561ff0082549160081b169061ff001916179055610160810151600a85015501519101558060005260056020526040600020600160ff198254161790553360005260046020526040600020805468010000000000000000811015610d5c57610cb491600182018155611480565b81549060031b9083821b91600019901b1916179055600080808060018060a01b036007541681903415610d52575b3491f115610d4657602091817f483013d4a1d5e8ba43089bda8f1a92b959e32d6fc582556f800267dd809e5893610d24604051936060855260608501906113c6565b926064358682015260843560408201528033940390a360018055604051908152f35b6040513d6000823e3d90fd5b6108fc9150610ce2565b634e487b7160e01b600052604160045260246000fd5b015190508680610bda565b9250600485016000526020600020906000935b601f1984168510610dd4576001945083601f19811610610dbb575b505050811b016004830155610bf2565b015160001960f88460031b161c19169055868080610dab565b81810151835560209485019460019093019290910190610d90565b909150600485016000526020600020601f840160051c810160208510610e3b575b90849392915b601f830160051c82018110610e2c575050610bc3565b60008155859450600101610e16565b5080610e10565b015190508680610b7c565b9250600385016000526020600020906000935b601f1984168510610ea4576001945083601f19811610610e8b575b505050811b016003830155610b94565b015160001960f88460031b161c19169055868080610e7b565b81810151835560209485019460019093019290910190610e60565b909150600385016000526020600020601f840160051c810160208510610f0b575b90849392915b601f830160051c82018110610efc575050610b65565b60008155859450600101610ee6565b5080610ee0565b015190508680610b1e565b9250600285016000526020600020906000935b601f1984168510610f74576001945083601f19811610610f5b575b505050811b016002830155610b36565b015160001960f88460031b161c19169055868080610f4b565b81810151835560209485019460019093019290910190610f30565b909150600285016000526020600020601f840160051c810160208510610fdb575b90849392915b601f830160051c82018110610fcc575050610b07565b60008155859450600101610fb6565b5080610fb0565b6064907454617861206a75726f73206d6178696d612035302560581b6040519162461bcd60e51b83526020600484015260156024840152820152fd5b6084907f5072617a6f207265706167616d656e746f2064657665207365722061706f73206040519162461bcd60e51b8352602060048401526028602484015282015267636170746163616f60c01b6064820152fd5b606490745072617a6f2064657665207365722066757475726f60581b6040519162461bcd60e51b83526020600484015260156024840152820152fd5b6064907f4d657461206465766520736572206d61696f7220717565207a65726f000000006040519162461bcd60e51b835260206004840152601c6024840152820152fd5b6064907f54617861206465206372696163616f20696e737566696369656e7465000000006040519162461bcd60e51b835260206004840152601c6024840152820152fd5b6064907f5265656e7472616e637947756172643a207265656e7472616e742063616c6c006040519162461bcd60e51b835260206004840152601f6024840152820152fd5b34610269576020366003190112610269576004356000908152600360205260409020805460018201546001600160a01b0316916111ba60028201611320565b6111c660038301611320565b916111d360048201611320565b926005820154936006830154600784015490600885015492600986015494600a87015496600b0154976040519b8c9b8c5260208c01526101a08060408d01528b0161121d916113c6565b8a810360608c015261122e916113c6565b89810360808b015261123f916113c6565b9660a089015260c088015260e0870152610100860152610120850160ff82169061126891611406565b60081c60ff1615156101408501526101608401526101808301520390f35b346102695760203660031901126102695761129f6114ae565b600435600655005b90600182811c921680156112d7575b60208310146112c157565b634e487b7160e01b600052602260045260246000fd5b91607f16916112b6565b6101a0810190811067ffffffffffffffff821117610d5c57604052565b90601f8019910116810190811067ffffffffffffffff821117610d5c57604052565b9060405191826000825492611334846112a7565b9081845260019485811690816000146113a35750600114611360575b505061135e925003836112fe565b565b9093915060005260209081600020936000915b81831061138b57505061135e93508201013880611350565b85548884018501529485019487945091830191611373565b91505061135e94506020925060ff191682840152151560051b8201013880611350565b919082519283825260005b8481106113f2575050826000602080949584010152601f8019910116010190565b6020818301810151848301820152016113d1565b9060078210156102535752565b81601f820112156102695780359067ffffffffffffffff8211610d5c5760405192611448601f8401601f1916602001856112fe565b8284526020838301011161026957816000926020809301838601378301015290565b600435906001600160a01b038216820361026957565b80548210156114985760005260206000200190600090565b634e487b7160e01b600052603260045260246000fd5b6000546001600160a01b031633036114c257565b606460405162461bcd60e51b815260206004820152602060248201527f4f776e61626c653a2063616c6c6572206973206e6f7420746865206f776e65726044820152fd5b9060078110156102535760ff80198354169116179055565b1561152557565b60405162461bcd60e51b815260206004820152601260248201527150726f6a65746f206e616f2065786973746560701b6044820152606490fdfea2646970667358221220bf80a88b9373c9aa13d53b4e697e1170a70489bf516764f6314cac65b72cccbd64736f6c63430008130033","opcodes":"PUSH1 0x80 CALLVALUE PUSH2 0xB6 JUMPI PUSH1 0x1F PUSH2 0x1667 CODESIZE DUP2 SWAP1 SUB SWAP2 DUP3 ADD PUSH1 0x1F NOT AND DUP4 ADD SWAP2 PUSH1 0x1 PUSH1 0x1 PUSH1 0x40 SHL SUB DUP4 GT DUP5 DUP5 LT OR PUSH2 0xBB JUMPI DUP1 DUP5 SWAP3 PUSH1 0x20 SWAP5 PUSH1 0x40 MSTORE DUP4 CODECOPY DUP2 ADD SUB SLT PUSH2 0xB6 JUMPI MLOAD PUSH1 0x1 PUSH1 0x1 PUSH1 0xA0 SHL SUB SWAP1 DUP2 DUP2 AND SWAP1 DUP2 SWAP1 SUB PUSH2 0xB6 JUMPI PUSH1 0x0 SLOAD PUSH1 0x1 DUP1 PUSH1 0xA0 SHL SUB NOT SWAP1 CALLER DUP3 DUP3 AND OR PUSH1 0x0 SSTORE PUSH1 0x40 MLOAD SWAP4 CALLER SWAP2 AND PUSH32 0x8BE0079C531659141344CD1FD0A4F28419497F9722A3DAAFE3B4186F6B6457E0 PUSH1 0x0 DUP1 LOG3 PUSH1 0x1 DUP1 SSTORE PUSH7 0x38D7EA4C68000 PUSH1 0x6 SSTORE PUSH1 0x7 SLOAD AND OR PUSH1 0x7 SSTORE PUSH2 0x1595 SWAP1 DUP2 PUSH2 0xD2 DUP3 CODECOPY RETURN JUMPDEST PUSH1 0x0 DUP1 REVERT JUMPDEST PUSH4 0x4E487B71 PUSH1 0xE0 SHL PUSH1 0x0 MSTORE PUSH1 0x41 PUSH1 0x4 MSTORE PUSH1 0x24 PUSH1 0x0 REVERT INVALID PUSH1 0x80 PUSH1 0x40 MSTORE PUSH1 0x4 CALLDATASIZE LT ISZERO PUSH2 0x12 JUMPI PUSH1 0x0 DUP1 REVERT JUMPDEST PUSH1 0x0 CALLDATALOAD PUSH1 0xE0 SHR DUP1 PUSH4 0xDB25B77 EQ PUSH2 0x1286 JUMPI DUP1 PUSH4 0x107046BD EQ PUSH2 0x117B JUMPI DUP1 PUSH4 0x375A4A4C EQ PUSH2 0x972 JUMPI DUP1 PUSH4 0x3D453343 EQ PUSH2 0x91A JUMPI DUP1 PUSH4 0x46904840 EQ PUSH2 0x8F1 JUMPI DUP1 PUSH4 0x6BAD6541 EQ PUSH2 0x8D3 JUMPI DUP1 PUSH4 0x703D52AF EQ PUSH2 0x8A2 JUMPI DUP1 PUSH4 0x715018A6 EQ PUSH2 0x849 JUMPI DUP1 PUSH4 0x812739A2 EQ PUSH2 0x82B JUMPI DUP1 PUSH4 0x8DA5CB5B EQ PUSH2 0x802 JUMPI DUP1 PUSH4 0xAD3FBE30 EQ PUSH2 0x77D JUMPI DUP1 PUSH4 0xD11D498B EQ PUSH2 0x697 JUMPI DUP1 PUSH4 0xD326C951 EQ PUSH2 0x5E3 JUMPI DUP1 PUSH4 0xE74B981B EQ PUSH2 0x562 JUMPI DUP1 PUSH4 0xF0F3F2C8 EQ PUSH2 0x332 JUMPI DUP1 PUSH4 0xF2FDE38B EQ PUSH2 0x26E JUMPI PUSH4 0xFC69D836 EQ PUSH2 0xD7 JUMPI PUSH1 0x0 DUP1 REVERT JUMPDEST CALLVALUE PUSH2 0x269 JUMPI PUSH1 0x20 DUP1 PUSH1 0x3 NOT CALLDATASIZE ADD SLT PUSH2 0x269 JUMPI PUSH1 0x4 CALLDATALOAD PUSH2 0xF4 PUSH2 0x14AE JUMP JUMPDEST DUP1 PUSH1 0x0 MSTORE PUSH1 0x5 DUP3 MSTORE PUSH2 0x10D PUSH1 0xFF PUSH1 0x40 PUSH1 0x0 KECCAK256 SLOAD AND PUSH2 0x151E JUMP JUMPDEST DUP1 PUSH1 0x0 MSTORE PUSH1 0x3 DUP3 MSTORE PUSH1 0x40 PUSH1 0x0 KECCAK256 PUSH1 0x9 DUP2 ADD SWAP1 DUP2 SLOAD SWAP2 PUSH1 0xFF DUP4 AND SWAP3 PUSH1 0x7 DUP5 LT ISZERO PUSH2 0x253 JUMPI DUP4 PUSH2 0x1F8 JUMPI PUSH1 0x6 DUP4 ADD SLOAD TIMESTAMP LT ISZERO PUSH2 0x1B3 JUMPI DUP5 SWAP6 PUSH1 0x40 SWAP4 PUSH32 0x15A4A29ECCF92A0BBF94F24A6840487AA0226F7FB02D3402F1F86B3360BDFC6A SWAP6 SWAP4 PUSH1 0x1 DUP1 SWAP5 PUSH1 0xFF NOT AND OR SWAP1 SSTORE PUSH1 0xB TIMESTAMP SWAP2 ADD SSTORE PUSH2 0x186 DUP5 MLOAD DUP1 SWAP5 PUSH2 0x1406 JUMP JUMPDEST DUP3 ADD MSTORE LOG2 CALLER SWAP1 PUSH32 0xAE45C6260346930C9824DFA2888D501CFD9372F592303B38F7788326FC22F016 PUSH1 0x0 DUP1 LOG3 STOP JUMPDEST PUSH1 0x40 MLOAD PUSH3 0x461BCD PUSH1 0xE5 SHL DUP2 MSTORE PUSH1 0x4 DUP2 ADD DUP8 SWAP1 MSTORE PUSH1 0x1A PUSH1 0x24 DUP3 ADD MSTORE PUSH32 0x5072617A6F20646520636170746163616F20657870697261646F000000000000 PUSH1 0x44 DUP3 ADD MSTORE PUSH1 0x64 SWAP1 REVERT JUMPDEST PUSH1 0x40 MLOAD PUSH3 0x461BCD PUSH1 0xE5 SHL DUP2 MSTORE PUSH1 0x4 DUP2 ADD DUP8 SWAP1 MSTORE PUSH1 0x2D PUSH1 0x24 DUP3 ADD MSTORE PUSH32 0x4170656E61732070726F6A65746F732070656E64656E74657320706F64656D20 PUSH1 0x44 DUP3 ADD MSTORE PUSH13 0x736572206170726F7661646F73 PUSH1 0x98 SHL PUSH1 0x64 DUP3 ADD MSTORE PUSH1 0x84 SWAP1 REVERT JUMPDEST PUSH4 0x4E487B71 PUSH1 0xE0 SHL PUSH1 0x0 MSTORE PUSH1 0x21 PUSH1 0x4 MSTORE PUSH1 0x24 PUSH1 0x0 REVERT JUMPDEST PUSH1 0x0 DUP1 REVERT JUMPDEST CALLVALUE PUSH2 0x269 JUMPI PUSH1 0x20 CALLDATASIZE PUSH1 0x3 NOT ADD SLT PUSH2 0x269 JUMPI PUSH2 0x287 PUSH2 0x146A JUMP JUMPDEST PUSH2 0x28F PUSH2 0x14AE JUMP JUMPDEST PUSH1 0x1 PUSH1 0x1 PUSH1 0xA0 SHL SUB SWAP1 DUP2 AND SWAP1 DUP2 ISZERO PUSH2 0x2DE JUMPI PUSH1 0x0 SLOAD DUP3 PUSH1 0x1 PUSH1 0x1 PUSH1 0x60 SHL SUB PUSH1 0xA0 SHL DUP3 AND OR PUSH1 0x0 SSTORE AND PUSH32 0x8BE0079C531659141344CD1FD0A4F28419497F9722A3DAAFE3B4186F6B6457E0 PUSH1 0x0 DUP1 LOG3 STOP JUMPDEST PUSH1 0x40 MLOAD PUSH3 0x461BCD PUSH1 0xE5 SHL DUP2 MSTORE PUSH1 0x20 PUSH1 0x4 DUP3 ADD MSTORE PUSH1 0x26 PUSH1 0x24 DUP3 ADD MSTORE PUSH32 0x4F776E61626C653A206E6577206F776E657220697320746865207A65726F2061 PUSH1 0x44 DUP3 ADD MSTORE PUSH6 0x646472657373 PUSH1 0xD0 SHL PUSH1 0x64 DUP3 ADD MSTORE PUSH1 0x84 SWAP1 REVERT JUMPDEST CALLVALUE PUSH2 0x269 JUMPI PUSH1 0x20 CALLDATASIZE PUSH1 0x3 NOT ADD SLT PUSH2 0x269 JUMPI PUSH1 0x4 CALLDATALOAD PUSH1 0x0 PUSH2 0x180 PUSH1 0x40 MLOAD PUSH2 0x357 DUP2 PUSH2 0x12E1 JUMP JUMPDEST DUP3 DUP2 MSTORE DUP3 PUSH1 0x20 DUP3 ADD MSTORE PUSH1 0x60 PUSH1 0x40 DUP3 ADD MSTORE PUSH1 0x60 DUP1 DUP3 ADD MSTORE PUSH1 0x60 PUSH1 0x80 DUP3 ADD MSTORE DUP3 PUSH1 0xA0 DUP3 ADD MSTORE DUP3 PUSH1 0xC0 DUP3 ADD MSTORE DUP3 PUSH1 0xE0 DUP3 ADD MSTORE DUP3 PUSH2 0x100 DUP3 ADD MSTORE DUP3 PUSH2 0x120 DUP3 ADD MSTORE DUP3 PUSH2 0x140 DUP3 ADD MSTORE DUP3 PUSH2 0x160 DUP3 ADD MSTORE ADD MSTORE DUP1 PUSH1 0x0 MSTORE PUSH1 0x5 PUSH1 0x20 MSTORE PUSH2 0x3BE PUSH1 0xFF PUSH1 0x40 PUSH1 0x0 KECCAK256 SLOAD AND PUSH2 0x151E JUMP JUMPDEST PUSH1 0x0 MSTORE PUSH1 0x3 PUSH1 0x20 MSTORE PUSH1 0x40 PUSH1 0x0 KECCAK256 PUSH1 0x40 MLOAD SWAP1 PUSH2 0x3D8 DUP3 PUSH2 0x12E1 JUMP JUMPDEST DUP1 SLOAD DUP3 MSTORE PUSH1 0x1 DUP2 ADD SLOAD PUSH1 0x1 PUSH1 0x1 PUSH1 0xA0 SHL SUB AND PUSH1 0x20 DUP4 ADD MSTORE PUSH2 0x3FB PUSH1 0x2 DUP3 ADD PUSH2 0x1320 JUMP JUMPDEST PUSH1 0x40 DUP4 ADD MSTORE PUSH2 0x40C PUSH1 0x3 DUP3 ADD PUSH2 0x1320 JUMP JUMPDEST PUSH1 0x60 DUP4 ADD MSTORE PUSH2 0x41D PUSH1 0x4 DUP3 ADD PUSH2 0x1320 JUMP JUMPDEST PUSH1 0x80 DUP4 ADD MSTORE PUSH1 0x5 DUP2 ADD SLOAD PUSH1 0xA0 DUP4 ADD MSTORE PUSH1 0x6 DUP2 ADD SLOAD PUSH1 0xC0 DUP4 ADD MSTORE PUSH1 0x7 DUP2 ADD SLOAD PUSH1 0xE0 DUP4 ADD MSTORE PUSH1 0x8 DUP2 ADD SLOAD PUSH2 0x100 DUP4 ADD MSTORE PUSH1 0x9 DUP2 ADD SLOAD SWAP1 PUSH1 0x7 PUSH1 0xFF DUP4 AND LT ISZERO PUSH2 0x253 JUMPI PUSH1 0xFF DUP3 DUP2 PUSH1 0xB SWAP5 AND PUSH2 0x120 DUP7 ADD MSTORE PUSH1 0x8 SHR AND ISZERO ISZERO PUSH2 0x140 DUP5 ADD MSTORE PUSH1 0xA DUP2 ADD SLOAD PUSH2 0x160 DUP5 ADD MSTORE ADD SLOAD PUSH2 0x180 DUP3 ADD MSTORE PUSH1 0x40 MLOAD DUP1 SWAP2 PUSH1 0x20 DUP3 MSTORE DUP1 MLOAD PUSH1 0x20 DUP4 ADD MSTORE PUSH1 0x1 DUP1 PUSH1 0xA0 SHL SUB PUSH1 0x20 DUP3 ADD MLOAD AND PUSH1 0x40 DUP4 ADD MSTORE PUSH2 0x180 PUSH2 0x4FE PUSH2 0x4CD PUSH1 0x40 DUP5 ADD MLOAD PUSH2 0x1A0 PUSH1 0x60 DUP8 ADD MSTORE PUSH2 0x1C0 DUP7 ADD SWAP1 PUSH2 0x13C6 JUMP JUMPDEST PUSH2 0x4E9 PUSH1 0x60 DUP6 ADD MLOAD SWAP2 PUSH1 0x1F NOT SWAP3 DUP4 DUP9 DUP4 SUB ADD PUSH1 0x80 DUP10 ADD MSTORE PUSH2 0x13C6 JUMP JUMPDEST SWAP1 PUSH1 0x80 DUP6 ADD MLOAD SWAP1 DUP7 DUP4 SUB ADD PUSH1 0xA0 DUP8 ADD MSTORE PUSH2 0x13C6 JUMP JUMPDEST SWAP2 PUSH1 0xA0 DUP2 ADD MLOAD PUSH1 0xC0 DUP6 ADD MSTORE PUSH1 0xC0 DUP2 ADD MLOAD PUSH1 0xE0 DUP6 ADD MSTORE PUSH1 0xE0 DUP2 ADD MLOAD PUSH2 0x100 DUP6 ADD MSTORE PUSH2 0x100 DUP2 ADD MLOAD PUSH2 0x120 DUP6 ADD MSTORE PUSH2 0x53E PUSH2 0x120 DUP3 ADD MLOAD PUSH2 0x140 DUP7 ADD SWAP1 PUSH2 0x1406 JUMP JUMPDEST PUSH2 0x140 DUP2 ADD MLOAD ISZERO ISZERO PUSH2 0x160 DUP6 ADD MSTORE PUSH2 0x160 DUP2 ADD MLOAD DUP3 DUP6 ADD MSTORE ADD MLOAD PUSH2 0x1A0 DUP4 ADD MSTORE SUB SWAP1 RETURN JUMPDEST CALLVALUE PUSH2 0x269 JUMPI PUSH1 0x20 CALLDATASIZE PUSH1 0x3 NOT ADD SLT PUSH2 0x269 JUMPI PUSH2 0x57B PUSH2 0x146A JUMP JUMPDEST PUSH2 0x583 PUSH2 0x14AE JUMP JUMPDEST PUSH1 0x1 PUSH1 0x1 PUSH1 0xA0 SHL SUB AND DUP1 ISZERO PUSH2 0x5AA JUMPI PUSH1 0x1 PUSH1 0x1 PUSH1 0x60 SHL SUB PUSH1 0xA0 SHL PUSH1 0x7 SLOAD AND OR PUSH1 0x7 SSTORE PUSH1 0x0 DUP1 RETURN JUMPDEST PUSH1 0x40 MLOAD PUSH3 0x461BCD PUSH1 0xE5 SHL DUP2 MSTORE PUSH1 0x20 PUSH1 0x4 DUP3 ADD MSTORE PUSH1 0x11 PUSH1 0x24 DUP3 ADD MSTORE PUSH17 0x456E64657265636F20696E76616C69646F PUSH1 0x78 SHL PUSH1 0x44 DUP3 ADD MSTORE PUSH1 0x64 SWAP1 REVERT JUMPDEST CALLVALUE PUSH2 0x269 JUMPI PUSH1 0x20 DUP1 PUSH1 0x3 NOT CALLDATASIZE ADD SLT PUSH2 0x269 JUMPI PUSH1 0x1 PUSH1 0x1 PUSH1 0xA0 SHL SUB PUSH2 0x605 PUSH2 0x146A JUMP JUMPDEST AND PUSH1 0x0 MSTORE PUSH1 0x4 DUP2 MSTORE PUSH1 0x40 PUSH1 0x0 KECCAK256 PUSH1 0x40 MLOAD SWAP1 DUP2 DUP4 DUP3 SLOAD SWAP2 DUP3 DUP2 MSTORE ADD SWAP1 DUP2 SWAP3 PUSH1 0x0 MSTORE DUP5 PUSH1 0x0 KECCAK256 SWAP1 PUSH1 0x0 JUMPDEST DUP7 DUP3 DUP3 LT PUSH2 0x683 JUMPI DUP7 DUP7 PUSH2 0x643 DUP3 DUP9 SUB DUP4 PUSH2 0x12FE JUMP JUMPDEST PUSH1 0x40 MLOAD SWAP3 DUP4 SWAP3 DUP2 DUP5 ADD SWAP1 DUP3 DUP6 MSTORE MLOAD DUP1 SWAP2 MSTORE PUSH1 0x40 DUP5 ADD SWAP3 SWAP2 PUSH1 0x0 JUMPDEST DUP3 DUP2 LT PUSH2 0x66C JUMPI POP POP POP POP SUB SWAP1 RETURN JUMPDEST DUP4 MLOAD DUP6 MSTORE DUP7 SWAP6 POP SWAP4 DUP2 ADD SWAP4 SWAP3 DUP2 ADD SWAP3 PUSH1 0x1 ADD PUSH2 0x65D JUMP JUMPDEST DUP4 SLOAD DUP6 MSTORE SWAP1 SWAP4 ADD SWAP3 PUSH1 0x1 SWAP3 DUP4 ADD SWAP3 ADD PUSH2 0x62D JUMP JUMPDEST CALLVALUE PUSH2 0x269 JUMPI PUSH1 0x40 CALLDATASIZE PUSH1 0x3 NOT ADD SLT PUSH2 0x269 JUMPI PUSH1 0x4 CALLDATALOAD PUSH1 0x24 CALLDATALOAD PUSH1 0x7 DUP2 LT ISZERO PUSH2 0x269 JUMPI PUSH1 0x3 SWAP1 PUSH2 0x6C2 PUSH2 0x14AE JUMP JUMPDEST DUP3 PUSH1 0x0 MSTORE PUSH1 0x5 PUSH1 0x20 MSTORE PUSH2 0x6DC PUSH1 0xFF PUSH1 0x40 PUSH1 0x0 KECCAK256 SLOAD AND PUSH2 0x151E JUMP JUMPDEST DUP3 PUSH1 0x0 MSTORE DUP2 PUSH1 0x20 MSTORE DUP3 PUSH32 0x15A4A29ECCF92A0BBF94F24A6840487AA0226F7FB02D3402F1F86B3360BDFC6A PUSH1 0x40 PUSH1 0x9 DUP2 PUSH1 0x0 KECCAK256 ADD PUSH2 0x71E DUP6 PUSH1 0xFF DUP4 SLOAD AND SWAP3 PUSH2 0x1506 JUMP JUMPDEST PUSH2 0x72A DUP3 MLOAD DUP1 SWAP3 PUSH2 0x1406 JUMP JUMPDEST PUSH2 0x737 PUSH1 0x20 DUP3 ADD DUP7 PUSH2 0x1406 JUMP JUMPDEST LOG2 EQ PUSH2 0x73F JUMPI STOP JUMPDEST DUP1 PUSH1 0x0 MSTORE PUSH1 0x3 PUSH1 0x20 MSTORE PUSH32 0x5BC6714CCAD33557EFE1CB9D18FA771135AB68961F6ADD3D4BB6F115ADEC81A4 PUSH1 0x20 PUSH1 0x5 PUSH1 0x40 PUSH1 0x0 KECCAK256 ADD SLOAD PUSH1 0x40 MLOAD SWAP1 DUP2 MSTORE LOG2 STOP JUMPDEST CALLVALUE PUSH2 0x269 JUMPI PUSH1 0x20 CALLDATASIZE PUSH1 0x3 NOT ADD SLT PUSH2 0x269 JUMPI PUSH1 0x4 CALLDATALOAD PUSH2 0x799 PUSH2 0x14AE JUMP JUMPDEST DUP1 PUSH1 0x0 MSTORE PUSH1 0x5 PUSH1 0x20 MSTORE PUSH2 0x7B3 PUSH1 0xFF PUSH1 0x40 PUSH1 0x0 KECCAK256 SLOAD AND PUSH2 0x151E JUMP JUMPDEST DUP1 PUSH1 0x0 MSTORE PUSH1 0x3 PUSH1 0x20 MSTORE PUSH1 0x9 PUSH1 0x40 PUSH1 0x0 KECCAK256 ADD PUSH1 0x6 PUSH1 0xFF NOT DUP3 SLOAD AND OR SWAP1 SSTORE PUSH32 0x15A4A29ECCF92A0BBF94F24A6840487AA0226F7FB02D3402F1F86B3360BDFC6A PUSH1 0x40 DUP1 MLOAD PUSH1 0x6 DUP2 MSTORE PUSH1 0x6 PUSH1 0x20 DUP3 ADD MSTORE LOG2 STOP JUMPDEST CALLVALUE PUSH2 0x269 JUMPI PUSH1 0x0 CALLDATASIZE PUSH1 0x3 NOT ADD SLT PUSH2 0x269 JUMPI PUSH1 0x0 SLOAD PUSH1 0x40 MLOAD PUSH1 0x1 PUSH1 0x1 PUSH1 0xA0 SHL SUB SWAP1 SWAP2 AND DUP2 MSTORE PUSH1 0x20 SWAP1 RETURN JUMPDEST CALLVALUE PUSH2 0x269 JUMPI PUSH1 0x0 CALLDATASIZE PUSH1 0x3 NOT ADD SLT PUSH2 0x269 JUMPI PUSH1 0x20 PUSH1 0x2 SLOAD PUSH1 0x40 MLOAD SWAP1 DUP2 MSTORE RETURN JUMPDEST CALLVALUE PUSH2 0x269 JUMPI PUSH1 0x0 CALLDATASIZE PUSH1 0x3 NOT ADD SLT PUSH2 0x269 JUMPI PUSH2 0x862 PUSH2 0x14AE JUMP JUMPDEST PUSH1 0x0 DUP1 SLOAD PUSH1 0x1 PUSH1 0x1 PUSH1 0xA0 SHL SUB NOT DUP2 AND DUP3 SSTORE PUSH1 0x1 PUSH1 0x1 PUSH1 0xA0 SHL SUB AND PUSH32 0x8BE0079C531659141344CD1FD0A4F28419497F9722A3DAAFE3B4186F6B6457E0 DUP3 DUP1 LOG3 STOP JUMPDEST CALLVALUE PUSH2 0x269 JUMPI PUSH1 0x20 CALLDATASIZE PUSH1 0x3 NOT ADD SLT PUSH2 0x269 JUMPI PUSH1 0x4 CALLDATALOAD PUSH1 0x0 MSTORE PUSH1 0x5 PUSH1 0x20 MSTORE PUSH1 0x20 PUSH1 0xFF PUSH1 0x40 PUSH1 0x0 KECCAK256 SLOAD AND PUSH1 0x40 MLOAD SWAP1 ISZERO ISZERO DUP2 MSTORE RETURN JUMPDEST CALLVALUE PUSH2 0x269 JUMPI PUSH1 0x0 CALLDATASIZE PUSH1 0x3 NOT ADD SLT PUSH2 0x269 JUMPI PUSH1 0x20 PUSH1 0x6 SLOAD PUSH1 0x40 MLOAD SWAP1 DUP2 MSTORE RETURN JUMPDEST CALLVALUE PUSH2 0x269 JUMPI PUSH1 0x0 CALLDATASIZE PUSH1 0x3 NOT ADD SLT PUSH2 0x269 JUMPI PUSH1 0x7 SLOAD PUSH1 0x40 MLOAD PUSH1 0x1 PUSH1 0x1 PUSH1 0xA0 SHL SUB SWAP1 SWAP2 AND DUP2 MSTORE PUSH1 0x20 SWAP1 RETURN JUMPDEST CALLVALUE PUSH2 0x269 JUMPI PUSH1 0x40 CALLDATASIZE PUSH1 0x3 NOT ADD SLT PUSH2 0x269 JUMPI PUSH2 0x933 PUSH2 0x146A JUMP JUMPDEST PUSH1 0x1 PUSH1 0x1 PUSH1 0xA0 SHL SUB AND PUSH1 0x0 SWAP1 DUP2 MSTORE PUSH1 0x4 PUSH1 0x20 MSTORE PUSH1 0x40 SWAP1 KECCAK256 DUP1 SLOAD PUSH1 0x24 CALLDATALOAD SWAP2 SWAP1 DUP3 LT ISZERO PUSH2 0x269 JUMPI PUSH1 0x20 SWAP2 PUSH2 0x964 SWAP2 PUSH2 0x1480 JUMP JUMPDEST SWAP1 SLOAD PUSH1 0x40 MLOAD SWAP2 PUSH1 0x3 SHL SHR DUP2 MSTORE RETURN JUMPDEST PUSH2 0x100 CALLDATASIZE PUSH1 0x3 NOT ADD SLT PUSH2 0x269 JUMPI PUSH1 0x4 CALLDATALOAD PUSH8 0xFFFFFFFFFFFFFFFF DUP2 GT PUSH2 0x269 JUMPI PUSH2 0x99F SWAP1 CALLDATASIZE SWAP1 PUSH1 0x4 ADD PUSH2 0x1413 JUMP JUMPDEST PUSH1 0x24 CALLDATALOAD PUSH8 0xFFFFFFFFFFFFFFFF DUP2 GT PUSH2 0x269 JUMPI PUSH2 0x9BF SWAP1 CALLDATASIZE SWAP1 PUSH1 0x4 ADD PUSH2 0x1413 JUMP JUMPDEST PUSH1 0x44 SWAP1 DUP2 CALLDATALOAD PUSH8 0xFFFFFFFFFFFFFFFF DUP2 GT PUSH2 0x269 JUMPI PUSH2 0x9E1 SWAP1 CALLDATASIZE SWAP1 PUSH1 0x4 ADD PUSH2 0x1413 JUMP JUMPDEST SWAP2 PUSH1 0xE4 CALLDATALOAD SWAP1 DUP2 ISZERO ISZERO DUP3 SUB PUSH2 0x269 JUMPI PUSH1 0x2 PUSH1 0x1 SLOAD EQ PUSH2 0x1137 JUMPI PUSH1 0x2 PUSH1 0x1 SSTORE PUSH1 0x6 SLOAD CALLVALUE LT PUSH2 0x10F3 JUMPI PUSH1 0x64 CALLDATALOAD ISZERO PUSH2 0x10AF JUMPI TIMESTAMP PUSH1 0x84 CALLDATALOAD GT ISZERO PUSH2 0x1073 JUMPI PUSH1 0x84 CALLDATALOAD PUSH1 0xA4 CALLDATALOAD GT ISZERO PUSH2 0x101E JUMPI PUSH2 0x1388 PUSH1 0xC4 CALLDATALOAD GT PUSH2 0xFE2 JUMPI POP PUSH1 0x1 PUSH1 0x2 SLOAD ADD SWAP3 DUP4 PUSH1 0x2 SSTORE PUSH1 0x40 MLOAD SWAP3 PUSH2 0xA49 DUP5 PUSH2 0x12E1 JUMP JUMPDEST DUP5 DUP5 MSTORE CALLER PUSH1 0x20 DUP6 ADD MSTORE DUP6 PUSH1 0x40 DUP6 ADD MSTORE PUSH1 0x60 DUP5 ADD MSTORE PUSH1 0x80 DUP4 ADD MSTORE PUSH1 0x64 CALLDATALOAD PUSH1 0xA0 DUP4 ADD MSTORE PUSH1 0x84 CALLDATALOAD PUSH1 0xC0 DUP4 ADD MSTORE PUSH1 0xA4 CALLDATALOAD PUSH1 0xE0 DUP4 ADD MSTORE PUSH1 0xC4 CALLDATALOAD PUSH2 0x100 DUP4 ADD MSTORE PUSH1 0x0 PUSH2 0x120 DUP4 ADD MSTORE ISZERO ISZERO PUSH2 0x140 DUP3 ADD MSTORE TIMESTAMP PUSH2 0x160 DUP3 ADD MSTORE PUSH1 0x0 PUSH2 0x180 DUP3 ADD MSTORE DUP2 PUSH1 0x0 MSTORE PUSH1 0x3 PUSH1 0x20 MSTORE PUSH1 0x40 PUSH1 0x0 KECCAK256 SWAP1 DUP1 MLOAD DUP3 SSTORE PUSH1 0x1 DUP1 PUSH1 0xA0 SHL SUB PUSH1 0x20 DUP3 ADD MLOAD AND PUSH1 0x1 DUP4 ADD SWAP1 PUSH1 0x1 PUSH1 0x1 PUSH1 0x60 SHL SUB PUSH1 0xA0 SHL DUP3 SLOAD AND OR SWAP1 SSTORE PUSH1 0x40 DUP2 ADD MLOAD DUP1 MLOAD SWAP1 PUSH8 0xFFFFFFFFFFFFFFFF DUP3 GT PUSH2 0xD5C JUMPI DUP2 SWAP1 PUSH2 0xAFE PUSH1 0x2 DUP7 ADD SLOAD PUSH2 0x12A7 JUMP JUMPDEST PUSH1 0x1F DUP2 GT PUSH2 0xF8F JUMPI JUMPDEST POP PUSH1 0x20 SWAP1 PUSH1 0x1F DUP4 GT PUSH1 0x1 EQ PUSH2 0xF1D JUMPI PUSH1 0x0 SWAP3 PUSH2 0xF12 JUMPI JUMPDEST POP POP DUP2 PUSH1 0x1 SHL SWAP2 PUSH1 0x0 NOT SWAP1 PUSH1 0x3 SHL SHR NOT AND OR PUSH1 0x2 DUP4 ADD SSTORE JUMPDEST PUSH1 0x60 DUP2 ADD MLOAD DUP1 MLOAD SWAP1 PUSH8 0xFFFFFFFFFFFFFFFF DUP3 GT PUSH2 0xD5C JUMPI DUP2 SWAP1 PUSH2 0xB5C PUSH1 0x3 DUP7 ADD SLOAD PUSH2 0x12A7 JUMP JUMPDEST PUSH1 0x1F DUP2 GT PUSH2 0xEBF JUMPI JUMPDEST POP PUSH1 0x20 SWAP1 PUSH1 0x1F DUP4 GT PUSH1 0x1 EQ PUSH2 0xE4D JUMPI PUSH1 0x0 SWAP3 PUSH2 0xE42 JUMPI JUMPDEST POP POP DUP2 PUSH1 0x1 SHL SWAP2 PUSH1 0x0 NOT SWAP1 PUSH1 0x3 SHL SHR NOT AND OR PUSH1 0x3 DUP4 ADD SSTORE JUMPDEST PUSH1 0x80 DUP2 ADD MLOAD DUP1 MLOAD SWAP1 PUSH8 0xFFFFFFFFFFFFFFFF DUP3 GT PUSH2 0xD5C JUMPI DUP2 SWAP1 PUSH2 0xBBA PUSH1 0x4 DUP7 ADD SLOAD PUSH2 0x12A7 JUMP JUMPDEST PUSH1 0x1F DUP2 GT PUSH2 0xDEF JUMPI JUMPDEST POP PUSH1 0x20 SWAP1 PUSH1 0x1F DUP4 GT PUSH1 0x1 EQ PUSH2 0xD7D JUMPI PUSH1 0x0 SWAP3 PUSH2 0xD72 JUMPI JUMPDEST POP POP DUP2 PUSH1 0x1 SHL SWAP2 PUSH1 0x0 NOT SWAP1 PUSH1 0x3 SHL SHR NOT AND OR PUSH1 0x4 DUP4 ADD SSTORE JUMPDEST PUSH1 0xA0 DUP2 ADD MLOAD PUSH1 0x5 DUP4 ADD SSTORE PUSH1 0xC0 DUP2 ADD MLOAD PUSH1 0x6 DUP4 ADD SSTORE PUSH1 0xE0 DUP2 ADD MLOAD PUSH1 0x7 DUP4 ADD SSTORE PUSH2 0x100 DUP2 ADD MLOAD PUSH1 0x8 DUP4 ADD SSTORE PUSH1 0x9 DUP3 ADD SWAP1 PUSH2 0x120 DUP2 ADD MLOAD SWAP1 PUSH1 0x7 DUP3 LT ISZERO PUSH2 0x253 JUMPI DUP3 PUSH2 0xC40 PUSH2 0x180 SWAP4 PUSH1 0xB SWAP6 PUSH2 0x1506 JUMP JUMPDEST PUSH2 0x140 DUP3 ADD MLOAD ISZERO ISZERO PUSH2 0xFF00 DUP3 SLOAD SWAP2 PUSH1 0x8 SHL AND SWAP1 PUSH2 0xFF00 NOT AND OR SWAP1 SSTORE PUSH2 0x160 DUP2 ADD MLOAD PUSH1 0xA DUP6 ADD SSTORE ADD MLOAD SWAP2 ADD SSTORE DUP1 PUSH1 0x0 MSTORE PUSH1 0x5 PUSH1 0x20 MSTORE PUSH1 0x40 PUSH1 0x0 KECCAK256 PUSH1 0x1 PUSH1 0xFF NOT DUP3 SLOAD AND OR SWAP1 SSTORE CALLER PUSH1 0x0 MSTORE PUSH1 0x4 PUSH1 0x20 MSTORE PUSH1 0x40 PUSH1 0x0 KECCAK256 DUP1 SLOAD PUSH9 0x10000000000000000 DUP2 LT ISZERO PUSH2 0xD5C JUMPI PUSH2 0xCB4 SWAP2 PUSH1 0x1 DUP3 ADD DUP2 SSTORE PUSH2 0x1480 JUMP JUMPDEST DUP2 SLOAD SWAP1 PUSH1 0x3 SHL SWAP1 DUP4 DUP3 SHL SWAP2 PUSH1 0x0 NOT SWAP1 SHL NOT AND OR SWAP1 SSTORE PUSH1 0x0 DUP1 DUP1 DUP1 PUSH1 0x1 DUP1 PUSH1 0xA0 SHL SUB PUSH1 0x7 SLOAD AND DUP2 SWAP1 CALLVALUE ISZERO PUSH2 0xD52 JUMPI JUMPDEST CALLVALUE SWAP2 CALL ISZERO PUSH2 0xD46 JUMPI PUSH1 0x20 SWAP2 DUP2 PUSH32 0x483013D4A1D5E8BA43089BDA8F1A92B959E32D6FC582556F800267DD809E5893 PUSH2 0xD24 PUSH1 0x40 MLOAD SWAP4 PUSH1 0x60 DUP6 MSTORE PUSH1 0x60 DUP6 ADD SWAP1 PUSH2 0x13C6 JUMP JUMPDEST SWAP3 PUSH1 0x64 CALLDATALOAD DUP7 DUP3 ADD MSTORE PUSH1 0x84 CALLDATALOAD PUSH1 0x40 DUP3 ADD MSTORE DUP1 CALLER SWAP5 SUB SWAP1 LOG3 PUSH1 0x1 DUP1 SSTORE PUSH1 0x40 MLOAD SWAP1 DUP2 MSTORE RETURN JUMPDEST PUSH1 0x40 MLOAD RETURNDATASIZE PUSH1 0x0 DUP3 RETURNDATACOPY RETURNDATASIZE SWAP1 REVERT JUMPDEST PUSH2 0x8FC SWAP2 POP PUSH2 0xCE2 JUMP JUMPDEST PUSH4 0x4E487B71 PUSH1 0xE0 SHL PUSH1 0x0 MSTORE PUSH1 0x41 PUSH1 0x4 MSTORE PUSH1 0x24 PUSH1 0x0 REVERT JUMPDEST ADD MLOAD SWAP1 POP DUP7 DUP1 PUSH2 0xBDA JUMP JUMPDEST SWAP3 POP PUSH1 0x4 DUP6 ADD PUSH1 0x0 MSTORE PUSH1 0x20 PUSH1 0x0 KECCAK256 SWAP1 PUSH1 0x0 SWAP4 JUMPDEST PUSH1 0x1F NOT DUP5 AND DUP6 LT PUSH2 0xDD4 JUMPI PUSH1 0x1 SWAP5 POP DUP4 PUSH1 0x1F NOT DUP2 AND LT PUSH2 0xDBB JUMPI JUMPDEST POP POP POP DUP2 SHL ADD PUSH1 0x4 DUP4 ADD SSTORE PUSH2 0xBF2 JUMP JUMPDEST ADD MLOAD PUSH1 0x0 NOT PUSH1 0xF8 DUP5 PUSH1 0x3 SHL AND SHR NOT AND SWAP1 SSTORE DUP7 DUP1 DUP1 PUSH2 0xDAB JUMP JUMPDEST DUP2 DUP2 ADD MLOAD DUP4 SSTORE PUSH1 0x20 SWAP5 DUP6 ADD SWAP5 PUSH1 0x1 SWAP1 SWAP4 ADD SWAP3 SWAP1 SWAP2 ADD SWAP1 PUSH2 0xD90 JUMP JUMPDEST SWAP1 SWAP2 POP PUSH1 0x4 DUP6 ADD PUSH1 0x0 MSTORE PUSH1 0x20 PUSH1 0x0 KECCAK256 PUSH1 0x1F DUP5 ADD PUSH1 0x5 SHR DUP2 ADD PUSH1 0x20 DUP6 LT PUSH2 0xE3B JUMPI JUMPDEST SWAP1 DUP5 SWAP4 SWAP3 SWAP2 JUMPDEST PUSH1 0x1F DUP4 ADD PUSH1 0x5 SHR DUP3 ADD DUP2 LT PUSH2 0xE2C JUMPI POP POP PUSH2 0xBC3 JUMP JUMPDEST PUSH1 0x0 DUP2 SSTORE DUP6 SWAP5 POP PUSH1 0x1 ADD PUSH2 0xE16 JUMP JUMPDEST POP DUP1 PUSH2 0xE10 JUMP JUMPDEST ADD MLOAD SWAP1 POP DUP7 DUP1 PUSH2 0xB7C JUMP JUMPDEST SWAP3 POP PUSH1 0x3 DUP6 ADD PUSH1 0x0 MSTORE PUSH1 0x20 PUSH1 0x0 KECCAK256 SWAP1 PUSH1 0x0 SWAP4 JUMPDEST PUSH1 0x1F NOT DUP5 AND DUP6 LT PUSH2 0xEA4 JUMPI PUSH1 0x1 SWAP5 POP DUP4 PUSH1 0x1F NOT DUP2 AND LT PUSH2 0xE8B JUMPI JUMPDEST POP POP POP DUP2 SHL ADD PUSH1 0x3 DUP4 ADD SSTORE PUSH2 0xB94 JUMP JUMPDEST ADD MLOAD PUSH1 0x0 NOT PUSH1 0xF8 DUP5 PUSH1 0x3 SHL AND SHR NOT AND SWAP1 SSTORE DUP7 DUP1 DUP1 PUSH2 0xE7B JUMP JUMPDEST DUP2 DUP2 ADD MLOAD DUP4 SSTORE PUSH1 0x20 SWAP5 DUP6 ADD SWAP5 PUSH1 0x1 SWAP1 SWAP4 ADD SWAP3 SWAP1 SWAP2 ADD SWAP1 PUSH2 0xE60 JUMP JUMPDEST SWAP1 SWAP2 POP PUSH1 0x3 DUP6 ADD PUSH1 0x0 MSTORE PUSH1 0x20 PUSH1 0x0 KECCAK256 PUSH1 0x1F DUP5 ADD PUSH1 0x5 SHR DUP2 ADD PUSH1 0x20 DUP6 LT PUSH2 0xF0B JUMPI JUMPDEST SWAP1 DUP5 SWAP4 SWAP3 SWAP2 JUMPDEST PUSH1 0x1F DUP4 ADD PUSH1 0x5 SHR DUP3 ADD DUP2 LT PUSH2 0xEFC JUMPI POP POP PUSH2 0xB65 JUMP JUMPDEST PUSH1 0x0 DUP2 SSTORE DUP6 SWAP5 POP PUSH1 0x1 ADD PUSH2 0xEE6 JUMP JUMPDEST POP DUP1 PUSH2 0xEE0 JUMP JUMPDEST ADD MLOAD SWAP1 POP DUP7 DUP1 PUSH2 0xB1E JUMP JUMPDEST SWAP3 POP PUSH1 0x2 DUP6 ADD PUSH1 0x0 MSTORE PUSH1 0x20 PUSH1 0x0 KECCAK256 SWAP1 PUSH1 0x0 SWAP4 JUMPDEST PUSH1 0x1F NOT DUP5 AND DUP6 LT PUSH2 0xF74 JUMPI PUSH1 0x1 SWAP5 POP DUP4 PUSH1 0x1F NOT DUP2 AND LT PUSH2 0xF5B JUMPI JUMPDEST POP POP POP DUP2 SHL ADD PUSH1 0x2 DUP4 ADD SSTORE PUSH2 0xB36 JUMP JUMPDEST ADD MLOAD PUSH1 0x0 NOT PUSH1 0xF8 DUP5 PUSH1 0x3 SHL AND SHR NOT AND SWAP1 SSTORE DUP7 DUP1 DUP1 PUSH2 0xF4B JUMP JUMPDEST DUP2 DUP2 ADD MLOAD DUP4 SSTORE PUSH1 0x20 SWAP5 DUP6 ADD SWAP5 PUSH1 0x1 SWAP1 SWAP4 ADD SWAP3 SWAP1 SWAP2 ADD SWAP1 PUSH2 0xF30 JUMP JUMPDEST SWAP1 SWAP2 POP PUSH1 0x2 DUP6 ADD PUSH1 0x0 MSTORE PUSH1 0x20 PUSH1 0x0 KECCAK256 PUSH1 0x1F DUP5 ADD PUSH1 0x5 SHR DUP2 ADD PUSH1 0x20 DUP6 LT PUSH2 0xFDB JUMPI JUMPDEST SWAP1 DUP5 SWAP4 SWAP3 SWAP2 JUMPDEST PUSH1 0x1F DUP4 ADD PUSH1 0x5 SHR DUP3 ADD DUP2 LT PUSH2 0xFCC JUMPI POP POP PUSH2 0xB07 JUMP JUMPDEST PUSH1 0x0 DUP2 SSTORE DUP6 SWAP5 POP PUSH1 0x1 ADD PUSH2 0xFB6 JUMP JUMPDEST POP DUP1 PUSH2 0xFB0 JUMP JUMPDEST PUSH1 0x64 SWAP1 PUSH21 0x54617861206A75726F73206D6178696D6120353025 PUSH1 0x58 SHL PUSH1 0x40 MLOAD SWAP2 PUSH3 0x461BCD PUSH1 0xE5 SHL DUP4 MSTORE PUSH1 0x20 PUSH1 0x4 DUP5 ADD MSTORE PUSH1 0x15 PUSH1 0x24 DUP5 ADD MSTORE DUP3 ADD MSTORE REVERT JUMPDEST PUSH1 0x84 SWAP1 PUSH32 0x5072617A6F207265706167616D656E746F2064657665207365722061706F7320 PUSH1 0x40 MLOAD SWAP2 PUSH3 0x461BCD PUSH1 0xE5 SHL DUP4 MSTORE PUSH1 0x20 PUSH1 0x4 DUP5 ADD MSTORE PUSH1 0x28 PUSH1 0x24 DUP5 ADD MSTORE DUP3 ADD MSTORE PUSH8 0x636170746163616F PUSH1 0xC0 SHL PUSH1 0x64 DUP3 ADD MSTORE REVERT JUMPDEST PUSH1 0x64 SWAP1 PUSH21 0x5072617A6F2064657665207365722066757475726F PUSH1 0x58 SHL PUSH1 0x40 MLOAD SWAP2 PUSH3 0x461BCD PUSH1 0xE5 SHL DUP4 MSTORE PUSH1 0x20 PUSH1 0x4 DUP5 ADD MSTORE PUSH1 0x15 PUSH1 0x24 DUP5 ADD MSTORE DUP3 ADD MSTORE REVERT JUMPDEST PUSH1 0x64 SWAP1 PUSH32 0x4D657461206465766520736572206D61696F7220717565207A65726F00000000 PUSH1 0x40 MLOAD SWAP2 PUSH3 0x461BCD PUSH1 0xE5 SHL DUP4 MSTORE PUSH1 0x20 PUSH1 0x4 DUP5 ADD MSTORE PUSH1 0x1C PUSH1 0x24 DUP5 ADD MSTORE DUP3 ADD MSTORE REVERT JUMPDEST PUSH1 0x64 SWAP1 PUSH32 0x54617861206465206372696163616F20696E737566696369656E746500000000 PUSH1 0x40 MLOAD SWAP2 PUSH3 0x461BCD PUSH1 0xE5 SHL DUP4 MSTORE PUSH1 0x20 PUSH1 0x4 DUP5 ADD MSTORE PUSH1 0x1C PUSH1 0x24 DUP5 ADD MSTORE DUP3 ADD MSTORE REVERT JUMPDEST PUSH1 0x64 SWAP1 PUSH32 0x5265656E7472616E637947756172643A207265656E7472616E742063616C6C00 PUSH1 0x40 MLOAD SWAP2 PUSH3 0x461BCD PUSH1 0xE5 SHL DUP4 MSTORE PUSH1 0x20 PUSH1 0x4 DUP5 ADD MSTORE PUSH1 0x1F PUSH1 0x24 DUP5 ADD MSTORE DUP3 ADD MSTORE REVERT JUMPDEST CALLVALUE PUSH2 0x269 JUMPI PUSH1 0x20 CALLDATASIZE PUSH1 0x3 NOT ADD SLT PUSH2 0x269 JUMPI PUSH1 0x4 CALLDATALOAD PUSH1 0x0 SWAP1 DUP2 MSTORE PUSH1 0x3 PUSH1 0x20 MSTORE PUSH1 0x40 SWAP1 KECCAK256 DUP1 SLOAD PUSH1 0x1 DUP3 ADD SLOAD PUSH1 0x1 PUSH1 0x1 PUSH1 0xA0 SHL SUB AND SWAP2 PUSH2 0x11BA PUSH1 0x2 DUP3 ADD PUSH2 0x1320 JUMP JUMPDEST PUSH2 0x11C6 PUSH1 0x3 DUP4 ADD PUSH2 0x1320 JUMP JUMPDEST SWAP2 PUSH2 0x11D3 PUSH1 0x4 DUP3 ADD PUSH2 0x1320 JUMP JUMPDEST SWAP3 PUSH1 0x5 DUP3 ADD SLOAD SWAP4 PUSH1 0x6 DUP4 ADD SLOAD PUSH1 0x7 DUP5 ADD SLOAD SWAP1 PUSH1 0x8 DUP6 ADD SLOAD SWAP3 PUSH1 0x9 DUP7 ADD SLOAD SWAP5 PUSH1 0xA DUP8 ADD SLOAD SWAP7 PUSH1 0xB ADD SLOAD SWAP8 PUSH1 0x40 MLOAD SWAP12 DUP13 SWAP12 DUP13 MSTORE PUSH1 0x20 DUP13 ADD MSTORE PUSH2 0x1A0 DUP1 PUSH1 0x40 DUP14 ADD MSTORE DUP12 ADD PUSH2 0x121D SWAP2 PUSH2 0x13C6 JUMP JUMPDEST DUP11 DUP2 SUB PUSH1 0x60 DUP13 ADD MSTORE PUSH2 0x122E SWAP2 PUSH2 0x13C6 JUMP JUMPDEST DUP10 DUP2 SUB PUSH1 0x80 DUP12 ADD MSTORE PUSH2 0x123F SWAP2 PUSH2 0x13C6 JUMP JUMPDEST SWAP7 PUSH1 0xA0 DUP10 ADD MSTORE PUSH1 0xC0 DUP9 ADD MSTORE PUSH1 0xE0 DUP8 ADD MSTORE PUSH2 0x100 DUP7 ADD MSTORE PUSH2 0x120 DUP6 ADD PUSH1 0xFF DUP3 AND SWAP1 PUSH2 0x1268 SWAP2 PUSH2 0x1406 JUMP JUMPDEST PUSH1 0x8 SHR PUSH1 0xFF AND ISZERO ISZERO PUSH2 0x140 DUP6 ADD MSTORE PUSH2 0x160 DUP5 ADD MSTORE PUSH2 0x180 DUP4 ADD MSTORE SUB SWAP1 RETURN JUMPDEST CALLVALUE PUSH2 0x269 JUMPI PUSH1 0x20 CALLDATASIZE PUSH1 0x3 NOT ADD SLT PUSH2 0x269 JUMPI PUSH2 0x129F PUSH2 0x14AE JUMP JUMPDEST PUSH1 0x4 CALLDATALOAD PUSH1 0x6 SSTORE STOP JUMPDEST SWAP1 PUSH1 0x1 DUP3 DUP2 SHR SWAP3 AND DUP1 ISZERO PUSH2 0x12D7 JUMPI JUMPDEST PUSH1 0x20 DUP4 LT EQ PUSH2 0x12C1 JUMPI JUMP JUMPDEST PUSH4 0x4E487B71 PUSH1 0xE0 SHL PUSH1 0x0 MSTORE PUSH1 0x22 PUSH1 0x4 MSTORE PUSH1 0x24 PUSH1 0x0 REVERT JUMPDEST SWAP2 PUSH1 0x7F AND SWAP2 PUSH2 0x12B6 JUMP JUMPDEST PUSH2 0x1A0 DUP2 ADD SWAP1 DUP2 LT PUSH8 0xFFFFFFFFFFFFFFFF DUP3 GT OR PUSH2 0xD5C JUMPI PUSH1 0x40 MSTORE JUMP JUMPDEST SWAP1 PUSH1 0x1F DUP1 NOT SWAP2 ADD AND DUP2 ADD SWAP1 DUP2 LT PUSH8 0xFFFFFFFFFFFFFFFF DUP3 GT OR PUSH2 0xD5C JUMPI PUSH1 0x40 MSTORE JUMP JUMPDEST SWAP1 PUSH1 0x40 MLOAD SWAP2 DUP3 PUSH1 0x0 DUP3 SLOAD SWAP3 PUSH2 0x1334 DUP5 PUSH2 0x12A7 JUMP JUMPDEST SWAP1 DUP2 DUP5 MSTORE PUSH1 0x1 SWAP5 DUP6 DUP2 AND SWAP1 DUP2 PUSH1 0x0 EQ PUSH2 0x13A3 JUMPI POP PUSH1 0x1 EQ PUSH2 0x1360 JUMPI JUMPDEST POP POP PUSH2 0x135E SWAP3 POP SUB DUP4 PUSH2 0x12FE JUMP JUMPDEST JUMP JUMPDEST SWAP1 SWAP4 SWAP2 POP PUSH1 0x0 MSTORE PUSH1 0x20 SWAP1 DUP2 PUSH1 0x0 KECCAK256 SWAP4 PUSH1 0x0 SWAP2 JUMPDEST DUP2 DUP4 LT PUSH2 0x138B JUMPI POP POP PUSH2 0x135E SWAP4 POP DUP3 ADD ADD CODESIZE DUP1 PUSH2 0x1350 JUMP JUMPDEST DUP6 SLOAD DUP9 DUP5 ADD DUP6 ADD MSTORE SWAP5 DUP6 ADD SWAP5 DUP8 SWAP5 POP SWAP2 DUP4 ADD SWAP2 PUSH2 0x1373 JUMP JUMPDEST SWAP2 POP POP PUSH2 0x135E SWAP5 POP PUSH1 0x20 SWAP3 POP PUSH1 0xFF NOT AND DUP3 DUP5 ADD MSTORE ISZERO ISZERO PUSH1 0x5 SHL DUP3 ADD ADD CODESIZE DUP1 PUSH2 0x1350 JUMP JUMPDEST SWAP2 SWAP1 DUP3 MLOAD SWAP3 DUP4 DUP3 MSTORE PUSH1 0x0 JUMPDEST DUP5 DUP2 LT PUSH2 0x13F2 JUMPI POP POP DUP3 PUSH1 0x0 PUSH1 0x20 DUP1 SWAP5 SWAP6 DUP5 ADD ADD MSTORE PUSH1 0x1F DUP1 NOT SWAP2 ADD AND ADD ADD SWAP1 JUMP JUMPDEST PUSH1 0x20 DUP2 DUP4 ADD DUP2 ADD MLOAD DUP5 DUP4 ADD DUP3 ADD MSTORE ADD PUSH2 0x13D1 JUMP JUMPDEST SWAP1 PUSH1 0x7 DUP3 LT ISZERO PUSH2 0x253 JUMPI MSTORE JUMP JUMPDEST DUP2 PUSH1 0x1F DUP3 ADD SLT ISZERO PUSH2 0x269 JUMPI DUP1 CALLDATALOAD SWAP1 PUSH8 0xFFFFFFFFFFFFFFFF DUP3 GT PUSH2 0xD5C JUMPI PUSH1 0x40 MLOAD SWAP3 PUSH2 0x1448 PUSH1 0x1F DUP5 ADD PUSH1 0x1F NOT AND PUSH1 0x20 ADD DUP6 PUSH2 0x12FE JUMP JUMPDEST DUP3 DUP5 MSTORE PUSH1 0x20 DUP4 DUP4 ADD ADD GT PUSH2 0x269 JUMPI DUP2 PUSH1 0x0 SWAP3 PUSH1 0x20 DUP1 SWAP4 ADD DUP4 DUP7 ADD CALLDATACOPY DUP4 ADD ADD MSTORE SWAP1 JUMP JUMPDEST PUSH1 0x4 CALLDATALOAD SWAP1 PUSH1 0x1 PUSH1 0x1 PUSH1 0xA0 SHL SUB DUP3 AND DUP3 SUB PUSH2 0x269 JUMPI JUMP JUMPDEST DUP1 SLOAD DUP3 LT ISZERO PUSH2 0x1498 JUMPI PUSH1 0x0 MSTORE PUSH1 0x20 PUSH1 0x0 KECCAK256 ADD SWAP1 PUSH1 0x0 SWAP1 JUMP JUMPDEST PUSH4 0x4E487B71 PUSH1 0xE0 SHL PUSH1 0x0 MSTORE PUSH1 0x32 PUSH1 0x4 MSTORE PUSH1 0x24 PUSH1 0x0 REVERT JUMPDEST PUSH1 0x0 SLOAD PUSH1 0x1 PUSH1 0x1 PUSH1 0xA0 SHL SUB AND CALLER SUB PUSH2 0x14C2 JUMPI JUMP JUMPDEST PUSH1 0x64 PUSH1 0x40 MLOAD PUSH3 0x461BCD PUSH1 0xE5 SHL DUP2 MSTORE PUSH1 0x20 PUSH1 0x4 DUP3 ADD MSTORE PUSH1 0x20 PUSH1 0x24 DUP3 ADD MSTORE PUSH32 0x4F776E61626C653A2063616C6C6572206973206E6F7420746865206F776E6572 PUSH1 0x44 DUP3 ADD MSTORE REVERT JUMPDEST SWAP1 PUSH1 0x7 DUP2 LT ISZERO PUSH2 0x253 JUMPI PUSH1 0xFF DUP1 NOT DUP4 SLOAD AND SWAP2 AND OR SWAP1 SSTORE JUMP JUMPDEST ISZERO PUSH2 0x1525 JUMPI JUMP JUMPDEST PUSH1 0x40 MLOAD PUSH3 0x461BCD PUSH1 0xE5 SHL DUP2 MSTORE PUSH1 0x20 PUSH1 0x4 DUP3 ADD MSTORE PUSH1 0x12 PUSH1 0x24 DUP3 ADD MSTORE PUSH18 0x50726F6A65746F206E616F20657869737465 PUSH1 0x70 SHL PUSH1 0x44 DUP3 ADD MSTORE PUSH1 0x64 SWAP1 REVERT INVALID LOG2 PUSH5 0x6970667358 0x22 SLT KECCAK256 0xBF DUP1 0xA8 DUP12 SWAP4 PUSH20 0xC9AA13D53B4E697E1170A70489BF516764F6314C 0xAC PUSH6 0xB72CCCBD6473 PUSH16 0x6C634300081300330000000000000000 "},"methodIdentifiers":{"approveProject(uint256)":"fc69d836","artistProjects(address,uint256)":"3d453343","createProject(string,string,string,uint256,uint256,uint256,uint256,bool)":"375a4a4c","emergencyPause(uint256)":"ad3fbe30","feeRecipient()":"46904840","getArtistProjects(address)":"d326c951","getProject(uint256)":"f0f3f2c8","getTotalProjects()":"812739a2","owner()":"8da5cb5b","projectCreationFee()":"6bad6541","projectExists(uint256)":"703d52af","projects(uint256)":"107046bd","renounceOwnership()":"715018a6","setFeeRecipient(address)":"e74b981b","setProjectCreationFee(uint256)":"0db25b77","transferOwnership(address)":"f2fde38b","updateProjectStatus(uint256,uint8)":"d11d498b"}}}}}