{"contracts/RepaymentManager.sol":{"RepaymentManager":{"abi":[{"inputs":[{"internalType":"address","name":"_projectRegistry","type":"address"},{"internalType":"address","name":"_loanEscrow","type":"address"},{"internalType":"address","name":"_paymentToken","type":"address"},{"internalType":"address","name":"_priceFeed","type":"address"}],"stateMutability":"nonpayable","type":"constructor"},{"anonymous":false,"inputs":[{"indexed":true,"internalType":"address","name":"previousOwner","type":"address"},{"indexed":true,"internalType":"address","name":"newOwner","type":"address"}],"name":"OwnershipTransferred","type":"event"},{"anonymous":false,"inputs":[{"indexed":true,"internalType":"uint256","name":"projectId","type":"uint256"},{"indexed":true,"internalType":"address","name":"investor","type":"address"},{"indexed":false,"internalType":"uint256","name":"amount","type":"uint256"}],"name":"PaymentDistributed","type":"event"},{"anonymous":false,"inputs":[{"indexed":true,"internalType":"uint256","name":"projectId","type":"uint256"},{"indexed":false,"internalType":"uint256","name":"totalPaid","type":"uint256"}],"name":"RepaymentCompleted","type":"event"},{"anonymous":false,"inputs":[{"indexed":true,"internalType":"uint256","name":"projectId","type":"uint256"},{"indexed":false,"internalType":"uint256","name":"totalOwed","type":"uint256"},{"indexed":false,"internalType":"bool","name":"isRoyaltyBased","type":"bool"}],"name":"RepaymentScheduleCreated","type":"event"},{"anonymous":false,"inputs":[{"indexed":true,"internalType":"uint256","name":"projectId","type":"uint256"},{"indexed":false,"internalType":"uint256","name":"amount","type":"uint256"},{"indexed":false,"internalType":"string","name":"source","type":"string"},{"indexed":true,"internalType":"address","name":"oracle","type":"address"}],"name":"RoyaltyPaymentReceived","type":"event"},{"anonymous":false,"inputs":[{"indexed":true,"internalType":"uint256","name":"projectId","type":"uint256"},{"indexed":true,"internalType":"address","name":"payer","type":"address"},{"indexed":false,"internalType":"uint256","name":"amount","type":"uint256"}],"name":"TraditionalPaymentMade","type":"event"},{"inputs":[{"internalType":"address","name":"_oracle","type":"address"}],"name":"addAuthorizedOracle","outputs":[],"stateMutability":"nonpayable","type":"function"},{"inputs":[{"internalType":"address","name":"","type":"address"}],"name":"authorizedOracles","outputs":[{"internalType":"bool","name":"","type":"bool"}],"stateMutability":"view","type":"function"},{"inputs":[{"internalType":"uint256","name":"_projectId","type":"uint256"}],"name":"calculateInterest","outputs":[{"internalType":"uint256","name":"","type":"uint256"}],"stateMutability":"view","type":"function"},{"inputs":[{"internalType":"uint256","name":"_projectId","type":"uint256"}],"name":"emergencyPauseRepayment","outputs":[],"stateMutability":"nonpayable","type":"function"},{"inputs":[{"internalType":"uint256","name":"_projectId","type":"uint256"},{"internalType":"address","name":"_investor","type":"address"}],"name":"getInvestorPayments","outputs":[{"internalType":"uint256","name":"","type":"uint256"}],"stateMutability":"view","type":"function"},{"inputs":[{"internalType":"uint256","name":"_projectId","type":"uint256"}],"name":"getRepaymentStatus","outputs":[{"internalType":"uint256","name":"totalOwed","type":"uint256"},{"internalType":"uint256","name":"totalPaid","type":"uint256"},{"internalType":"uint256","name":"remainingDebt","type":"uint256"},{"internalType":"bool","name":"isCompleted","type":"bool"},{"internalType":"uint256","name":"nextPaymentDue","type":"uint256"}],"stateMutability":"view","type":"function"},{"inputs":[{"internalType":"uint256","name":"_projectId","type":"uint256"}],"name":"getRoyaltyPayments","outputs":[{"components":[{"internalType":"uint256","name":"projectId","type":"uint256"},{"internalType":"uint256","name":"amount","type":"uint256"},{"internalType":"string","name":"source","type":"string"},{"internalType":"uint256","name":"timestamp","type":"uint256"},{"internalType":"bytes32","name":"oracleHash","type":"bytes32"}],"internalType":"struct RepaymentManager.RoyaltyPayment[]","name":"","type":"tuple[]"}],"stateMutability":"view","type":"function"},{"inputs":[{"internalType":"uint256","name":"","type":"uint256"},{"internalType":"address","name":"","type":"address"}],"name":"investorPayments","outputs":[{"internalType":"uint256","name":"","type":"uint256"}],"stateMutability":"view","type":"function"},{"inputs":[],"name":"loanEscrow","outputs":[{"internalType":"contract ILoanEscrow","name":"","type":"address"}],"stateMutability":"view","type":"function"},{"inputs":[{"internalType":"uint256","name":"_projectId","type":"uint256"},{"internalType":"uint256","name":"_amount","type":"uint256"}],"name":"makeTraditionalPayment","outputs":[],"stateMutability":"nonpayable","type":"function"},{"inputs":[],"name":"owner","outputs":[{"internalType":"address","name":"","type":"address"}],"stateMutability":"view","type":"function"},{"inputs":[],"name":"paymentToken","outputs":[{"internalType":"contract IERC20","name":"","type":"address"}],"stateMutability":"view","type":"function"},{"inputs":[],"name":"priceFeed","outputs":[{"internalType":"contract AggregatorV3Interface","name":"","type":"address"}],"stateMutability":"view","type":"function"},{"inputs":[{"internalType":"uint256","name":"_projectId","type":"uint256"},{"internalType":"uint256","name":"_amount","type":"uint256"},{"internalType":"string","name":"_source","type":"string"},{"internalType":"bytes32","name":"_oracleHash","type":"bytes32"}],"name":"processRoyaltyPayment","outputs":[],"stateMutability":"nonpayable","type":"function"},{"inputs":[],"name":"projectRegistry","outputs":[{"internalType":"contract IProjectRegistry","name":"","type":"address"}],"stateMutability":"view","type":"function"},{"inputs":[{"internalType":"address","name":"_oracle","type":"address"}],"name":"removeAuthorizedOracle","outputs":[],"stateMutability":"nonpayable","type":"function"},{"inputs":[],"name":"renounceOwnership","outputs":[],"stateMutability":"nonpayable","type":"function"},{"inputs":[{"internalType":"uint256","name":"","type":"uint256"}],"name":"repaymentSchedules","outputs":[{"internalType":"uint256","name":"projectId","type":"uint256"},{"internalType":"uint256","name":"totalOwed","type":"uint256"},{"internalType":"uint256","name":"totalPaid","type":"uint256"},{"internalType":"uint256","name":"nextPaymentDue","type":"uint256"},{"internalType":"uint256","name":"monthlyPayment","type":"uint256"},{"internalType":"bool","name":"isRoyaltyBased","type":"bool"},{"internalType":"bool","name":"isCompleted","type":"bool"},{"internalType":"uint256","name":"createdAt","type":"uint256"}],"stateMutability":"view","type":"function"},{"inputs":[],"name":"royaltyConversionRate","outputs":[{"internalType":"uint256","name":"","type":"uint256"}],"stateMutability":"view","type":"function"},{"inputs":[{"internalType":"uint256","name":"","type":"uint256"},{"internalType":"uint256","name":"","type":"uint256"}],"name":"royaltyPayments","outputs":[{"internalType":"uint256","name":"projectId","type":"uint256"},{"internalType":"uint256","name":"amount","type":"uint256"},{"internalType":"string","name":"source","type":"string"},{"internalType":"uint256","name":"timestamp","type":"uint256"},{"internalType":"bytes32","name":"oracleHash","type":"bytes32"}],"stateMutability":"view","type":"function"},{"inputs":[{"internalType":"uint256","name":"","type":"uint256"}],"name":"royaltyPool","outputs":[{"internalType":"uint256","name":"","type":"uint256"}],"stateMutability":"view","type":"function"},{"inputs":[{"internalType":"uint256","name":"","type":"uint256"}],"name":"scheduleExists","outputs":[{"internalType":"bool","name":"","type":"bool"}],"stateMutability":"view","type":"function"},{"inputs":[{"internalType":"uint256","name":"_projectId","type":"uint256"}],"name":"scheduleRepayment","outputs":[],"stateMutability":"nonpayable","type":"function"},{"inputs":[{"internalType":"address","name":"_newToken","type":"address"}],"name":"setPaymentToken","outputs":[],"stateMutability":"nonpayable","type":"function"},{"inputs":[{"internalType":"uint256","name":"_newRate","type":"uint256"}],"name":"setRoyaltyConversionRate","outputs":[],"stateMutability":"nonpayable","type":"function"},{"inputs":[{"internalType":"address","name":"newOwner","type":"address"}],"name":"transferOwnership","outputs":[],"stateMutability":"nonpayable","type":"function"}],"evm":{"bytecode":{"linkReferences":{},"object":"6080346200010757601f62001d2238819003918201601f19168301916001600160401b038311848410176200010c5780849260809460405283398101031262000107576200004d8162000122565b906200005c6020820162000122565b620000786060620000706040850162000122565b930162000122565b60016000556001549360018060a01b03199333858716176001556040519560018060a01b03948580948193823391167f8be0079c531659141344cd1fd0a4f28419497f9722a3daafe3b4186f6b6457e0600080a3611f40600c5516876002541617600255168560035416176003551683600a541617600a5516906004541617600455611bea9081620001388239f35b600080fd5b634e487b7160e01b600052604160045260246000fd5b51906001600160a01b0382168203620001075756fe608080604052600436101561001357600080fd5b600090813560e01c9081631bbbc2b11461142c575080633013ce29146114035780633f0092ae146111f9578063500f09141461132457806354a99824146112a55780635a33d8dc1461127c57806361c992a31461123d57806367a77dba146111f95780636a326ab1146111b4578063715018a614611157578063741bef1a1461112e57806388205b57146110ed5780638da5cb5b146110c45780639d78cc341461109b578063a37202a814611057578063a4b186f814611028578063a57475e014610f3a578063a6b5e3e714610a85578063ac8308ac14610a07578063b05fb7b41461072b578063e0cf1efb146106f0578063f2fde38b14610625578063f3863bd0146105c1578063f7b3bf1414610189578063f8837d7f1461016b5763f9314dc71461013f57600080fd5b346101685760203660031901126101685760406020916004358152600983522054604051908152f35b80fd5b50346101685780600319360112610168576020600c54604051908152f35b50346101685761019836611659565b906101a16119b2565b600254604051631e1e7e5960e31b815260048101839052908490829060249082906001600160a01b03165afa9081156105b6578491610594575b50602001516001600160a01b0316330361054f5780835260056020526040832091600860205261021160ff604086205416611a08565b61022560ff600585015460081c1615611a4c565b801561050a5761023e6001840154600285015490611a98565b90818111156105025750915b600a546040516323b872dd60e01b602082015233602482015230604482015260648082018690528152906001600160a01b0316610286826115eb565b6040519081604081011067ffffffffffffffff6040840111176104ec5786806103119460408501604052602085527f5361666545524332303a206c6f772d6c6576656c2063616c6c206661696c6564602086015260208151910182855af13d156104e4573d916102f58361163d565b92610303604051948561161b565b83523d89602085013e611aa5565b80519081159182156104be575b5050156104665780610335846002879401546119a5565b600282018190556001820154116104395760058101805461ff0019166101001790556002546001600160a01b0316803b156104355782809160446040518096819363d11d498b60e01b8352896004840152600560248401525af192831561042857849361040b575b5050602060027fad37d0dcbf8a11ee8edb614afe9f1cc8ca00876c67e8f2dae58f738db9c9431d920154604051908152a25b6103d881611b42565b6040519182527f952907acb8c470650b6ebf7e479471027e2f21089189c71b78386045c92625ba60203393a36001815580f35b61041791929350611607565b610424578190843861039d565b8380fd5b50604051903d90823e3d90fd5b8280fd5b905062278d0042019081421161045257600301556103cf565b634e487b7160e01b85526011600452602485fd5b60405162461bcd60e51b815260206004820152602a60248201527f5361666545524332303a204552433230206f7065726174696f6e20646964206e6044820152691bdd081cdd58d8d9595960b21b6064820152608490fd5b81925090602091810103126104e05760206104d9910161181e565b388061031e565b8480fd5b606091611aa5565b634e487b7160e01b600052604160045260246000fd5b90509161024a565b60405162461bcd60e51b815260206004820152601d60248201527f56616c6f72206465766520736572206d61696f7220717565207a65726f0000006044820152606490fd5b60405162461bcd60e51b815260206004820152601e60248201527f4170656e6173206f206172746973746120706f646520657865637574617200006044820152606490fd5b6105b091503d8086833e6105a8818361161b565b81019061182b565b386101db565b6040513d86823e3d90fd5b5034610168576020366003190112610168576004356105de611781565b61271081116105ed57600c5580f35b60405162461bcd60e51b815260206004820152601060248201526f54617861206d6178696d61203130302560801b6044820152606490fd5b50346101685760203660031901126101685761063f6115d5565b610647611781565b6001600160a01b0390811690811561069c57600154826bffffffffffffffffffffffff60a01b821617600155167f8be0079c531659141344cd1fd0a4f28419497f9722a3daafe3b4186f6b6457e0600080a380f35b60405162461bcd60e51b815260206004820152602660248201527f4f776e61626c653a206e6577206f776e657220697320746865207a65726f206160448201526564647265737360d01b6064820152608490fd5b50346101685760203660031901126101685761070a611781565b600435815260056020526005604082200161010061ff001982541617905580f35b503461016857602080600319360112610a03576004359061074a6119b2565b8183526008815260ff6040842054166109c857600254604051631e1e7e5960e31b81526004810184905291906024906001600160a01b0390869085908490829085165afa93841561094a5786946109ac575b506101208401516007811015610999576004036109555760a08291600354166040519283809263ae89aeb960e01b82528960048301525afa801561094a5786918791610914575b50156108d057610806906127106107ff6101008701518361197c565b04906119a5565b9284865260058352604086209185835584600184015586600284015562278d004201908142116108be575091610140604094927fc88c773a198266d045fed15a41da2488c122b9021fb52f77e3b32dc1713b410296946003840155019081511560058201805460ff8315169061ffff19161790554260068301556108af575b5085875260088252838720805460ff19166001179055518351928352151590820152a26001815580f35b6004600c850491015538610885565b634e487b7160e01b8852601160045287fd5b60405162461bcd60e51b815260048101849052601f818401527f46756e646f7320646576656d20746572207369646f206c6962657261646f73006044820152606490fd5b9050610937915060a03d8111610943575b61092f818361161b565b810190611947565b505091905090386107e3565b503d610925565b6040513d88823e3d90fd5b60405162461bcd60e51b8152600481018490526018818401527f50726f6a65746f206465766520657374617220617469766f00000000000000006044820152606490fd5b634e487b7160e01b875260216004528287fd5b6109c19194503d8088833e6105a8818361161b565b923861079c565b6064906040519062461bcd60e51b82526004820152601460248201527343726f6e6f6772616d61206a612065786973746560601b6044820152fd5b5080fd5b503461016857610a1636611659565b908252600660205260408220805482101561043557610a35925061166f565b508054600182015491610a4a600282016116db565b610a7660046003840154930154916040519586958652602086015260a0604086015260a0850190611595565b91606084015260808301520390f35b50346101685760803660031901126101685760443567ffffffffffffffff8111610a035736602382011215610a035781816004013591610ac48361163d565b92610ad2604051948561161b565b808452366024828401011161043557806024602093018386013783010152338252600b60205260ff60408320541615610efc57610b0d6119b2565b60043582526008602052610b2760ff604084205416611a08565b600435825260056020526040822060ff6005820154610b4b828260081c1615611a4c565b1615610ea257600435835260066020526040832060405190610b6c826115eb565b60043582526024356020830152836040830152426060830152606435608083015280549068010000000000000000821015610e8e5790610bb19160018201815561166f565b919091610e7a578051825560208101516001830155604081015180519067ffffffffffffffff8211610e6657610bea60028501546116a1565b601f8111610e22575b50602090601f8311600114610db0579180600494926080948a92610da5575b50508160011b916000199060031b1c19161760028501555b606081015160038501550151910155612710610c4a600c5460243561197c565b0490600181018054926002830193610c6485548092611a98565b808311610d9b575b5081610c77916119a5565b845560043586526009602052610c92604087209182546119a5565b9055825490541115610cfb575b5050610cac600435611b42565b604051906024358252604060208301527f464d5c98607f6d9474536e404efa5fbd01e3af773eb9fc828bdac1a9d45c2d47339280610cf1600435946040830190611595565b0390a36001815580f35b600501805461ff00191661010017905560025483906001600160a01b0316803b15610a0357819060446040518094819363d11d498b60e01b83526004356004840152600560248401525af180156105b657610d88575b50546040519081527fad37d0dcbf8a11ee8edb614afe9f1cc8ca00876c67e8f2dae58f738db9c9431d602060043592a23880610c9f565b610d9490939193611607565b9138610d51565b9150610c77610c6c565b015190503880610c12565b906002850188526020882091885b601f1985168110610e0a5750926004949260019260809583601f19811610610df1575b505050811b016002850155610c2a565b015160001960f88460031b161c19169055388080610de1565b91926020600181928685015181550194019201610dbe565b60028501885260208820601f840160051c810160208510610e5f575b601f830160051c82018110610e54575050610bf3565b898155600101610e3e565b5080610e3e565b634e487b7160e01b87526041600452602487fd5b634e487b7160e01b85526004859052602485fd5b634e487b7160e01b86526041600452602486fd5b60405162461bcd60e51b815260206004820152602c60248201527f50726f6a65746f206e616f20616365697461207265706167616d656e746f207060448201526b6f7220726f79616c7469657360a01b6064820152608490fd5b60405162461bcd60e51b81526020600482015260166024820152754f726163756c6f206e616f206175746f72697a61646f60501b6044820152606490fd5b503461016857602036600319011261016857600435602460018060a01b0383816002541660405193848092631e1e7e5960e31b82528760048301525afa9182156105b6578492611009575b5060a090600354169260246040518095819363ae89aeb960e01b835260048301525afa918215610ffe5791610fcd916127109360209592610fd6575b5061010001519061197c565b04604051908152f35b610100919250610ff39060a03d81116109435761092f818361161b565b505050509190610fc1565b6040513d85823e3d90fd5b60a0919250611021903d8087833e6105a8818361161b565b9190610f85565b50346101685760203660031901126101685760ff60406020926004358152600884522054166040519015158152f35b5034610168576020366003190112610168576110716115d5565b611079611781565b6001600160a01b03168152600b60205260408120805460ff1916600117905580f35b50346101685780600319360112610168576003546040516001600160a01b039091168152602090f35b50346101685780600319360112610168576001546040516001600160a01b039091168152602090f35b5034610168576020366003190112610168576111076115d5565b61110f611781565b6001600160a01b03168152600b60205260408120805460ff1916905580f35b50346101685780600319360112610168576004546040516001600160a01b039091168152602090f35b5034610168578060031936011261016857611170611781565b600180546001600160a01b0319811690915581906001600160a01b03167f8be0079c531659141344cd1fd0a4f28419497f9722a3daafe3b4186f6b6457e08280a380f35b5034610168576020366003190112610168576111ce6115d5565b6111d6611781565b60018060a01b03166bffffffffffffffffffffffff60a01b600a541617600a5580f35b50346101685760403660031901126101685760406020916112186115ba565b6004358252600784528282206001600160a01b03909116825283522054604051908152f35b50346101685760203660031901126101685760209060ff906040906001600160a01b036112686115d5565b168152600b84522054166040519015158152f35b50346101685780600319360112610168576002546040516001600160a01b039091168152602090f35b503461016857602036600319011261016857604061010091600435815260056020522080549060ff6001820154916002810154600382015460048301549160066005850154940154956040519788526020880152604087015260608601526080850152818116151560a085015260081c16151560c083015260e0820152f35b503461016857602036600319011261016857600435815260056020526040812060405190610100820182811067ffffffffffffffff8211176113ef5760a0935060405280548252600181015491826020820152600282015491826040830152600381015491606081019283526004820154608082015260e0600660058401549360ff851615158985015260ff60c085019560081c161515855201549101526113cc8385611a98565b905115159151926040519485526020850152604084015260608301526080820152f35b634e487b7160e01b84526041600452602484fd5b5034610168578060031936011261016857600a546040516001600160a01b039091168152602090f35b82346101685760209182600319360112610a0357600435825260068352604082209081549367ffffffffffffffff85116113ef5792906005946114738582881b018361161b565b808252848201809484528584208785925b848410611518575050505050604051938085019181865251809252604082818701971b8601019392955b8287106114bb5785850386f35b909192938280600192603f198982030185528751908151815282820151838201526114f4604083015160a0806040850152830190611595565b916060808201519083015260808091015191015296019201960195929190926114ae565b908860019260409a97989a5161152d816115eb565b855481528486015483820152611545600287016116db565b60408201526003860154606082015260048601546080820152815201920192019190889097959497611484565b60005b8381106115855750506000910152565b8181015183820152602001611575565b906020916115ae81518092818552858086019101611572565b601f01601f1916010190565b602435906001600160a01b03821682036115d057565b600080fd5b600435906001600160a01b03821682036115d057565b60a0810190811067ffffffffffffffff8211176104ec57604052565b67ffffffffffffffff81116104ec57604052565b90601f8019910116810190811067ffffffffffffffff8211176104ec57604052565b67ffffffffffffffff81116104ec57601f01601f191660200190565b60409060031901126115d0576004359060243590565b805482101561168b576000526005602060002091020190600090565b634e487b7160e01b600052603260045260246000fd5b90600182811c921680156116d1575b60208310146116bb57565b634e487b7160e01b600052602260045260246000fd5b91607f16916116b0565b90604051918260008254926116ef846116a1565b90818452600194858116908160001461175e575060011461171b575b50506117199250038361161b565b565b9093915060005260209081600020936000915b8183106117465750506117199350820101388061170b565b8554888401850152948501948794509183019161172e565b91505061171994506020925060ff191682840152151560051b820101388061170b565b6001546001600160a01b0316330361179557565b606460405162461bcd60e51b815260206004820152602060248201527f4f776e61626c653a2063616c6c6572206973206e6f7420746865206f776e65726044820152fd5b81601f820112156115d05780516117ef8161163d565b926117fd604051948561161b565b818452602082840101116115d05761181b9160208085019101611572565b90565b519081151582036115d057565b6020818303126115d057805167ffffffffffffffff918282116115d05701906101a09283838203126115d057604051938401848110838211176104ec576040528251845260208301516001600160a01b03811681036115d057602085015260408301518281116115d057816118a19185016117d9565b604085015260608301518281116115d057816118be9185016117d9565b606085015260808301519182116115d0576118da9183016117d9565b608083015260a081015160a083015260c081015160c083015260e081015160e08301526101008082015190830152610120808201519060078210156115d05783015261014061192a81830161181e565b908301526101608082015190830152610180809101519082015290565b908160a09103126115d0578051916020820151916119676040820161181e565b9160806119766060840161181e565b92015190565b8181029291811591840414171561198f57565b634e487b7160e01b600052601160045260246000fd5b9190820180921161198f57565b6002600054146119c3576002600055565b60405162461bcd60e51b815260206004820152601f60248201527f5265656e7472616e637947756172643a207265656e7472616e742063616c6c006044820152606490fd5b15611a0f57565b60405162461bcd60e51b815260206004820152601560248201527443726f6e6f6772616d61206e616f2065786973746560581b6044820152606490fd5b15611a5357565b60405162461bcd60e51b815260206004820152601960248201527f5265706167616d656e746f206a6120636f6d706c657461646f000000000000006044820152606490fd5b9190820391821161198f57565b91929015611b075750815115611ab9575090565b3b15611ac25790565b60405162461bcd60e51b815260206004820152601d60248201527f416464726573733a2063616c6c20746f206e6f6e2d636f6e74726163740000006044820152606490fd5b825190915015611b1a5750805190602001fd5b60405162461bcd60e51b815260206004820152908190611b3e906024830190611595565b0390fd5b60035460405163ae89aeb960e01b8152600481019290925260a090829060249082906001600160a01b03165afa908115611ba857600091611b86575b501561171957565b611b9e915060a03d81116109435761092f818361161b565b5050505038611b7e565b6040513d6000823e3d90fdfea2646970667358221220e50d203e8fa0d37f4e7013b018db9e812853d5581c623d80885b4c1061d90bbf64736f6c63430008130033","opcodes":"PUSH1 0x80 CALLVALUE PUSH3 0x107 JUMPI PUSH1 0x1F PUSH3 0x1D22 CODESIZE DUP2 SWAP1 SUB SWAP2 DUP3 ADD PUSH1 0x1F NOT AND DUP4 ADD SWAP2 PUSH1 0x1 PUSH1 0x1 PUSH1 0x40 SHL SUB DUP4 GT DUP5 DUP5 LT OR PUSH3 0x10C JUMPI DUP1 DUP5 SWAP3 PUSH1 0x80 SWAP5 PUSH1 0x40 MSTORE DUP4 CODECOPY DUP2 ADD SUB SLT PUSH3 0x107 JUMPI PUSH3 0x4D DUP2 PUSH3 0x122 JUMP JUMPDEST SWAP1 PUSH3 0x5C PUSH1 0x20 DUP3 ADD PUSH3 0x122 JUMP JUMPDEST PUSH3 0x78 PUSH1 0x60 PUSH3 0x70 PUSH1 0x40 DUP6 ADD PUSH3 0x122 JUMP JUMPDEST SWAP4 ADD PUSH3 0x122 JUMP JUMPDEST PUSH1 0x1 PUSH1 0x0 SSTORE PUSH1 0x1 SLOAD SWAP4 PUSH1 0x1 DUP1 PUSH1 0xA0 SHL SUB NOT SWAP4 CALLER DUP6 DUP8 AND OR PUSH1 0x1 SSTORE PUSH1 0x40 MLOAD SWAP6 PUSH1 0x1 DUP1 PUSH1 0xA0 SHL SUB SWAP5 DUP6 DUP1 SWAP5 DUP2 SWAP4 DUP3 CALLER SWAP2 AND PUSH32 0x8BE0079C531659141344CD1FD0A4F28419497F9722A3DAAFE3B4186F6B6457E0 PUSH1 0x0 DUP1 LOG3 PUSH2 0x1F40 PUSH1 0xC SSTORE AND DUP8 PUSH1 0x2 SLOAD AND OR PUSH1 0x2 SSTORE AND DUP6 PUSH1 0x3 SLOAD AND OR PUSH1 0x3 SSTORE AND DUP4 PUSH1 0xA SLOAD AND OR PUSH1 0xA SSTORE AND SWAP1 PUSH1 0x4 SLOAD AND OR PUSH1 0x4 SSTORE PUSH2 0x1BEA SWAP1 DUP2 PUSH3 0x138 DUP3 CODECOPY RETURN JUMPDEST PUSH1 0x0 DUP1 REVERT JUMPDEST PUSH4 0x4E487B71 PUSH1 0xE0 SHL PUSH1 0x0 MSTORE PUSH1 0x41 PUSH1 0x4 MSTORE PUSH1 0x24 PUSH1 0x0 REVERT JUMPDEST MLOAD SWAP1 PUSH1 0x1 PUSH1 0x1 PUSH1 0xA0 SHL SUB DUP3 AND DUP3 SUB PUSH3 0x107 JUMPI JUMP INVALID PUSH1 0x80 DUP1 PUSH1 0x40 MSTORE PUSH1 0x4 CALLDATASIZE LT ISZERO PUSH2 0x13 JUMPI PUSH1 0x0 DUP1 REVERT JUMPDEST PUSH1 0x0 SWAP1 DUP2 CALLDATALOAD PUSH1 0xE0 SHR SWAP1 DUP2 PUSH4 0x1BBBC2B1 EQ PUSH2 0x142C JUMPI POP DUP1 PUSH4 0x3013CE29 EQ PUSH2 0x1403 JUMPI DUP1 PUSH4 0x3F0092AE EQ PUSH2 0x11F9 JUMPI DUP1 PUSH4 0x500F0914 EQ PUSH2 0x1324 JUMPI DUP1 PUSH4 0x54A99824 EQ PUSH2 0x12A5 JUMPI DUP1 PUSH4 0x5A33D8DC EQ PUSH2 0x127C JUMPI DUP1 PUSH4 0x61C992A3 EQ PUSH2 0x123D JUMPI DUP1 PUSH4 0x67A77DBA EQ PUSH2 0x11F9 JUMPI DUP1 PUSH4 0x6A326AB1 EQ PUSH2 0x11B4 JUMPI DUP1 PUSH4 0x715018A6 EQ PUSH2 0x1157 JUMPI DUP1 PUSH4 0x741BEF1A EQ PUSH2 0x112E JUMPI DUP1 PUSH4 0x88205B57 EQ PUSH2 0x10ED JUMPI DUP1 PUSH4 0x8DA5CB5B EQ PUSH2 0x10C4 JUMPI DUP1 PUSH4 0x9D78CC34 EQ PUSH2 0x109B JUMPI DUP1 PUSH4 0xA37202A8 EQ PUSH2 0x1057 JUMPI DUP1 PUSH4 0xA4B186F8 EQ PUSH2 0x1028 JUMPI DUP1 PUSH4 0xA57475E0 EQ PUSH2 0xF3A JUMPI DUP1 PUSH4 0xA6B5E3E7 EQ PUSH2 0xA85 JUMPI DUP1 PUSH4 0xAC8308AC EQ PUSH2 0xA07 JUMPI DUP1 PUSH4 0xB05FB7B4 EQ PUSH2 0x72B JUMPI DUP1 PUSH4 0xE0CF1EFB EQ PUSH2 0x6F0 JUMPI DUP1 PUSH4 0xF2FDE38B EQ PUSH2 0x625 JUMPI DUP1 PUSH4 0xF3863BD0 EQ PUSH2 0x5C1 JUMPI DUP1 PUSH4 0xF7B3BF14 EQ PUSH2 0x189 JUMPI DUP1 PUSH4 0xF8837D7F EQ PUSH2 0x16B JUMPI PUSH4 0xF9314DC7 EQ PUSH2 0x13F JUMPI PUSH1 0x0 DUP1 REVERT JUMPDEST CALLVALUE PUSH2 0x168 JUMPI PUSH1 0x20 CALLDATASIZE PUSH1 0x3 NOT ADD SLT PUSH2 0x168 JUMPI PUSH1 0x40 PUSH1 0x20 SWAP2 PUSH1 0x4 CALLDATALOAD DUP2 MSTORE PUSH1 0x9 DUP4 MSTORE KECCAK256 SLOAD PUSH1 0x40 MLOAD SWAP1 DUP2 MSTORE RETURN JUMPDEST DUP1 REVERT JUMPDEST POP CALLVALUE PUSH2 0x168 JUMPI DUP1 PUSH1 0x3 NOT CALLDATASIZE ADD SLT PUSH2 0x168 JUMPI PUSH1 0x20 PUSH1 0xC SLOAD PUSH1 0x40 MLOAD SWAP1 DUP2 MSTORE RETURN JUMPDEST POP CALLVALUE PUSH2 0x168 JUMPI PUSH2 0x198 CALLDATASIZE PUSH2 0x1659 JUMP JUMPDEST SWAP1 PUSH2 0x1A1 PUSH2 0x19B2 JUMP JUMPDEST PUSH1 0x2 SLOAD PUSH1 0x40 MLOAD PUSH4 0x1E1E7E59 PUSH1 0xE3 SHL DUP2 MSTORE PUSH1 0x4 DUP2 ADD DUP4 SWAP1 MSTORE SWAP1 DUP5 SWAP1 DUP3 SWAP1 PUSH1 0x24 SWAP1 DUP3 SWAP1 PUSH1 0x1 PUSH1 0x1 PUSH1 0xA0 SHL SUB AND GAS STATICCALL SWAP1 DUP2 ISZERO PUSH2 0x5B6 JUMPI DUP5 SWAP2 PUSH2 0x594 JUMPI JUMPDEST POP PUSH1 0x20 ADD MLOAD PUSH1 0x1 PUSH1 0x1 PUSH1 0xA0 SHL SUB AND CALLER SUB PUSH2 0x54F JUMPI DUP1 DUP4 MSTORE PUSH1 0x5 PUSH1 0x20 MSTORE PUSH1 0x40 DUP4 KECCAK256 SWAP2 PUSH1 0x8 PUSH1 0x20 MSTORE PUSH2 0x211 PUSH1 0xFF PUSH1 0x40 DUP7 KECCAK256 SLOAD AND PUSH2 0x1A08 JUMP JUMPDEST PUSH2 0x225 PUSH1 0xFF PUSH1 0x5 DUP6 ADD SLOAD PUSH1 0x8 SHR AND ISZERO PUSH2 0x1A4C JUMP JUMPDEST DUP1 ISZERO PUSH2 0x50A JUMPI PUSH2 0x23E PUSH1 0x1 DUP5 ADD SLOAD PUSH1 0x2 DUP6 ADD SLOAD SWAP1 PUSH2 0x1A98 JUMP JUMPDEST SWAP1 DUP2 DUP2 GT ISZERO PUSH2 0x502 JUMPI POP SWAP2 JUMPDEST PUSH1 0xA SLOAD PUSH1 0x40 MLOAD PUSH4 0x23B872DD PUSH1 0xE0 SHL PUSH1 0x20 DUP3 ADD MSTORE CALLER PUSH1 0x24 DUP3 ADD MSTORE ADDRESS PUSH1 0x44 DUP3 ADD MSTORE PUSH1 0x64 DUP1 DUP3 ADD DUP7 SWAP1 MSTORE DUP2 MSTORE SWAP1 PUSH1 0x1 PUSH1 0x1 PUSH1 0xA0 SHL SUB AND PUSH2 0x286 DUP3 PUSH2 0x15EB JUMP JUMPDEST PUSH1 0x40 MLOAD SWAP1 DUP2 PUSH1 0x40 DUP2 ADD LT PUSH8 0xFFFFFFFFFFFFFFFF PUSH1 0x40 DUP5 ADD GT OR PUSH2 0x4EC JUMPI DUP7 DUP1 PUSH2 0x311 SWAP5 PUSH1 0x40 DUP6 ADD PUSH1 0x40 MSTORE PUSH1 0x20 DUP6 MSTORE PUSH32 0x5361666545524332303A206C6F772D6C6576656C2063616C6C206661696C6564 PUSH1 0x20 DUP7 ADD MSTORE PUSH1 0x20 DUP2 MLOAD SWAP2 ADD DUP3 DUP6 GAS CALL RETURNDATASIZE ISZERO PUSH2 0x4E4 JUMPI RETURNDATASIZE SWAP2 PUSH2 0x2F5 DUP4 PUSH2 0x163D JUMP JUMPDEST SWAP3 PUSH2 0x303 PUSH1 0x40 MLOAD SWAP5 DUP6 PUSH2 0x161B JUMP JUMPDEST DUP4 MSTORE RETURNDATASIZE DUP10 PUSH1 0x20 DUP6 ADD RETURNDATACOPY PUSH2 0x1AA5 JUMP JUMPDEST DUP1 MLOAD SWAP1 DUP2 ISZERO SWAP2 DUP3 ISZERO PUSH2 0x4BE JUMPI JUMPDEST POP POP ISZERO PUSH2 0x466 JUMPI DUP1 PUSH2 0x335 DUP5 PUSH1 0x2 DUP8 SWAP5 ADD SLOAD PUSH2 0x19A5 JUMP JUMPDEST PUSH1 0x2 DUP3 ADD DUP2 SWAP1 SSTORE PUSH1 0x1 DUP3 ADD SLOAD GT PUSH2 0x439 JUMPI PUSH1 0x5 DUP2 ADD DUP1 SLOAD PUSH2 0xFF00 NOT AND PUSH2 0x100 OR SWAP1 SSTORE PUSH1 0x2 SLOAD PUSH1 0x1 PUSH1 0x1 PUSH1 0xA0 SHL SUB AND DUP1 EXTCODESIZE ISZERO PUSH2 0x435 JUMPI DUP3 DUP1 SWAP2 PUSH1 0x44 PUSH1 0x40 MLOAD DUP1 SWAP7 DUP2 SWAP4 PUSH4 0xD11D498B PUSH1 0xE0 SHL DUP4 MSTORE DUP10 PUSH1 0x4 DUP5 ADD MSTORE PUSH1 0x5 PUSH1 0x24 DUP5 ADD MSTORE GAS CALL SWAP3 DUP4 ISZERO PUSH2 0x428 JUMPI DUP5 SWAP4 PUSH2 0x40B JUMPI JUMPDEST POP POP PUSH1 0x20 PUSH1 0x2 PUSH32 0xAD37D0DCBF8A11EE8EDB614AFE9F1CC8CA00876C67E8F2DAE58F738DB9C9431D SWAP3 ADD SLOAD PUSH1 0x40 MLOAD SWAP1 DUP2 MSTORE LOG2 JUMPDEST PUSH2 0x3D8 DUP2 PUSH2 0x1B42 JUMP JUMPDEST PUSH1 0x40 MLOAD SWAP2 DUP3 MSTORE PUSH32 0x952907ACB8C470650B6EBF7E479471027E2F21089189C71B78386045C92625BA PUSH1 0x20 CALLER SWAP4 LOG3 PUSH1 0x1 DUP2 SSTORE DUP1 RETURN JUMPDEST PUSH2 0x417 SWAP2 SWAP3 SWAP4 POP PUSH2 0x1607 JUMP JUMPDEST PUSH2 0x424 JUMPI DUP2 SWAP1 DUP5 CODESIZE PUSH2 0x39D JUMP JUMPDEST DUP4 DUP1 REVERT JUMPDEST POP PUSH1 0x40 MLOAD SWAP1 RETURNDATASIZE SWAP1 DUP3 RETURNDATACOPY RETURNDATASIZE SWAP1 REVERT JUMPDEST DUP3 DUP1 REVERT JUMPDEST SWAP1 POP PUSH3 0x278D00 TIMESTAMP ADD SWAP1 DUP2 TIMESTAMP GT PUSH2 0x452 JUMPI PUSH1 0x3 ADD SSTORE PUSH2 0x3CF JUMP JUMPDEST PUSH4 0x4E487B71 PUSH1 0xE0 SHL DUP6 MSTORE PUSH1 0x11 PUSH1 0x4 MSTORE PUSH1 0x24 DUP6 REVERT JUMPDEST PUSH1 0x40 MLOAD PUSH3 0x461BCD PUSH1 0xE5 SHL DUP2 MSTORE PUSH1 0x20 PUSH1 0x4 DUP3 ADD MSTORE PUSH1 0x2A PUSH1 0x24 DUP3 ADD MSTORE PUSH32 0x5361666545524332303A204552433230206F7065726174696F6E20646964206E PUSH1 0x44 DUP3 ADD MSTORE PUSH10 0x1BDD081CDD58D8D95959 PUSH1 0xB2 SHL PUSH1 0x64 DUP3 ADD MSTORE PUSH1 0x84 SWAP1 REVERT JUMPDEST DUP2 SWAP3 POP SWAP1 PUSH1 0x20 SWAP2 DUP2 ADD SUB SLT PUSH2 0x4E0 JUMPI PUSH1 0x20 PUSH2 0x4D9 SWAP2 ADD PUSH2 0x181E JUMP JUMPDEST CODESIZE DUP1 PUSH2 0x31E JUMP JUMPDEST DUP5 DUP1 REVERT JUMPDEST PUSH1 0x60 SWAP2 PUSH2 0x1AA5 JUMP JUMPDEST PUSH4 0x4E487B71 PUSH1 0xE0 SHL PUSH1 0x0 MSTORE PUSH1 0x41 PUSH1 0x4 MSTORE PUSH1 0x24 PUSH1 0x0 REVERT JUMPDEST SWAP1 POP SWAP2 PUSH2 0x24A JUMP JUMPDEST PUSH1 0x40 MLOAD PUSH3 0x461BCD PUSH1 0xE5 SHL DUP2 MSTORE PUSH1 0x20 PUSH1 0x4 DUP3 ADD MSTORE PUSH1 0x1D PUSH1 0x24 DUP3 ADD MSTORE PUSH32 0x56616C6F72206465766520736572206D61696F7220717565207A65726F000000 PUSH1 0x44 DUP3 ADD MSTORE PUSH1 0x64 SWAP1 REVERT JUMPDEST PUSH1 0x40 MLOAD PUSH3 0x461BCD PUSH1 0xE5 SHL DUP2 MSTORE PUSH1 0x20 PUSH1 0x4 DUP3 ADD MSTORE PUSH1 0x1E PUSH1 0x24 DUP3 ADD MSTORE PUSH32 0x4170656E6173206F206172746973746120706F64652065786563757461720000 PUSH1 0x44 DUP3 ADD MSTORE PUSH1 0x64 SWAP1 REVERT JUMPDEST PUSH2 0x5B0 SWAP2 POP RETURNDATASIZE DUP1 DUP7 DUP4 RETURNDATACOPY PUSH2 0x5A8 DUP2 DUP4 PUSH2 0x161B JUMP JUMPDEST DUP2 ADD SWAP1 PUSH2 0x182B JUMP JUMPDEST CODESIZE PUSH2 0x1DB JUMP JUMPDEST PUSH1 0x40 MLOAD RETURNDATASIZE DUP7 DUP3 RETURNDATACOPY RETURNDATASIZE SWAP1 REVERT JUMPDEST POP CALLVALUE PUSH2 0x168 JUMPI PUSH1 0x20 CALLDATASIZE PUSH1 0x3 NOT ADD SLT PUSH2 0x168 JUMPI PUSH1 0x4 CALLDATALOAD PUSH2 0x5DE PUSH2 0x1781 JUMP JUMPDEST PUSH2 0x2710 DUP2 GT PUSH2 0x5ED JUMPI PUSH1 0xC SSTORE DUP1 RETURN JUMPDEST PUSH1 0x40 MLOAD PUSH3 0x461BCD PUSH1 0xE5 SHL DUP2 MSTORE PUSH1 0x20 PUSH1 0x4 DUP3 ADD MSTORE PUSH1 0x10 PUSH1 0x24 DUP3 ADD MSTORE PUSH16 0x54617861206D6178696D612031303025 PUSH1 0x80 SHL PUSH1 0x44 DUP3 ADD MSTORE PUSH1 0x64 SWAP1 REVERT JUMPDEST POP CALLVALUE PUSH2 0x168 JUMPI PUSH1 0x20 CALLDATASIZE PUSH1 0x3 NOT ADD SLT PUSH2 0x168 JUMPI PUSH2 0x63F PUSH2 0x15D5 JUMP JUMPDEST PUSH2 0x647 PUSH2 0x1781 JUMP JUMPDEST PUSH1 0x1 PUSH1 0x1 PUSH1 0xA0 SHL SUB SWAP1 DUP2 AND SWAP1 DUP2 ISZERO PUSH2 0x69C JUMPI PUSH1 0x1 SLOAD DUP3 PUSH12 0xFFFFFFFFFFFFFFFFFFFFFFFF PUSH1 0xA0 SHL DUP3 AND OR PUSH1 0x1 SSTORE AND PUSH32 0x8BE0079C531659141344CD1FD0A4F28419497F9722A3DAAFE3B4186F6B6457E0 PUSH1 0x0 DUP1 LOG3 DUP1 RETURN JUMPDEST PUSH1 0x40 MLOAD PUSH3 0x461BCD PUSH1 0xE5 SHL DUP2 MSTORE PUSH1 0x20 PUSH1 0x4 DUP3 ADD MSTORE PUSH1 0x26 PUSH1 0x24 DUP3 ADD MSTORE PUSH32 0x4F776E61626C653A206E6577206F776E657220697320746865207A65726F2061 PUSH1 0x44 DUP3 ADD MSTORE PUSH6 0x646472657373 PUSH1 0xD0 SHL PUSH1 0x64 DUP3 ADD MSTORE PUSH1 0x84 SWAP1 REVERT JUMPDEST POP CALLVALUE PUSH2 0x168 JUMPI PUSH1 0x20 CALLDATASIZE PUSH1 0x3 NOT ADD SLT PUSH2 0x168 JUMPI PUSH2 0x70A PUSH2 0x1781 JUMP JUMPDEST PUSH1 0x4 CALLDATALOAD DUP2 MSTORE PUSH1 0x5 PUSH1 0x20 MSTORE PUSH1 0x5 PUSH1 0x40 DUP3 KECCAK256 ADD PUSH2 0x100 PUSH2 0xFF00 NOT DUP3 SLOAD AND OR SWAP1 SSTORE DUP1 RETURN JUMPDEST POP CALLVALUE PUSH2 0x168 JUMPI PUSH1 0x20 DUP1 PUSH1 0x3 NOT CALLDATASIZE ADD SLT PUSH2 0xA03 JUMPI PUSH1 0x4 CALLDATALOAD SWAP1 PUSH2 0x74A PUSH2 0x19B2 JUMP JUMPDEST DUP2 DUP4 MSTORE PUSH1 0x8 DUP2 MSTORE PUSH1 0xFF PUSH1 0x40 DUP5 KECCAK256 SLOAD AND PUSH2 0x9C8 JUMPI PUSH1 0x2 SLOAD PUSH1 0x40 MLOAD PUSH4 0x1E1E7E59 PUSH1 0xE3 SHL DUP2 MSTORE PUSH1 0x4 DUP2 ADD DUP5 SWAP1 MSTORE SWAP2 SWAP1 PUSH1 0x24 SWAP1 PUSH1 0x1 PUSH1 0x1 PUSH1 0xA0 SHL SUB SWAP1 DUP7 SWAP1 DUP6 SWAP1 DUP5 SWAP1 DUP3 SWAP1 DUP6 AND GAS STATICCALL SWAP4 DUP5 ISZERO PUSH2 0x94A JUMPI DUP7 SWAP5 PUSH2 0x9AC JUMPI JUMPDEST POP PUSH2 0x120 DUP5 ADD MLOAD PUSH1 0x7 DUP2 LT ISZERO PUSH2 0x999 JUMPI PUSH1 0x4 SUB PUSH2 0x955 JUMPI PUSH1 0xA0 DUP3 SWAP2 PUSH1 0x3 SLOAD AND PUSH1 0x40 MLOAD SWAP3 DUP4 DUP1 SWAP3 PUSH4 0xAE89AEB9 PUSH1 0xE0 SHL DUP3 MSTORE DUP10 PUSH1 0x4 DUP4 ADD MSTORE GAS STATICCALL DUP1 ISZERO PUSH2 0x94A JUMPI DUP7 SWAP2 DUP8 SWAP2 PUSH2 0x914 JUMPI JUMPDEST POP ISZERO PUSH2 0x8D0 JUMPI PUSH2 0x806 SWAP1 PUSH2 0x2710 PUSH2 0x7FF PUSH2 0x100 DUP8 ADD MLOAD DUP4 PUSH2 0x197C JUMP JUMPDEST DIV SWAP1 PUSH2 0x19A5 JUMP JUMPDEST SWAP3 DUP5 DUP7 MSTORE PUSH1 0x5 DUP4 MSTORE PUSH1 0x40 DUP7 KECCAK256 SWAP2 DUP6 DUP4 SSTORE DUP5 PUSH1 0x1 DUP5 ADD SSTORE DUP7 PUSH1 0x2 DUP5 ADD SSTORE PUSH3 0x278D00 TIMESTAMP ADD SWAP1 DUP2 TIMESTAMP GT PUSH2 0x8BE JUMPI POP SWAP2 PUSH2 0x140 PUSH1 0x40 SWAP5 SWAP3 PUSH32 0xC88C773A198266D045FED15A41DA2488C122B9021FB52F77E3B32DC1713B4102 SWAP7 SWAP5 PUSH1 0x3 DUP5 ADD SSTORE ADD SWAP1 DUP2 MLOAD ISZERO PUSH1 0x5 DUP3 ADD DUP1 SLOAD PUSH1 0xFF DUP4 ISZERO AND SWAP1 PUSH2 0xFFFF NOT AND OR SWAP1 SSTORE TIMESTAMP PUSH1 0x6 DUP4 ADD SSTORE PUSH2 0x8AF JUMPI JUMPDEST POP DUP6 DUP8 MSTORE PUSH1 0x8 DUP3 MSTORE DUP4 DUP8 KECCAK256 DUP1 SLOAD PUSH1 0xFF NOT AND PUSH1 0x1 OR SWAP1 SSTORE MLOAD DUP4 MLOAD SWAP3 DUP4 MSTORE ISZERO ISZERO SWAP1 DUP3 ADD MSTORE LOG2 PUSH1 0x1 DUP2 SSTORE DUP1 RETURN JUMPDEST PUSH1 0x4 PUSH1 0xC DUP6 DIV SWAP2 ADD SSTORE CODESIZE PUSH2 0x885 JUMP JUMPDEST PUSH4 0x4E487B71 PUSH1 0xE0 SHL DUP9 MSTORE PUSH1 0x11 PUSH1 0x4 MSTORE DUP8 REVERT JUMPDEST PUSH1 0x40 MLOAD PUSH3 0x461BCD PUSH1 0xE5 SHL DUP2 MSTORE PUSH1 0x4 DUP2 ADD DUP5 SWAP1 MSTORE PUSH1 0x1F DUP2 DUP5 ADD MSTORE PUSH32 0x46756E646F7320646576656D20746572207369646F206C6962657261646F7300 PUSH1 0x44 DUP3 ADD MSTORE PUSH1 0x64 SWAP1 REVERT JUMPDEST SWAP1 POP PUSH2 0x937 SWAP2 POP PUSH1 0xA0 RETURNDATASIZE DUP2 GT PUSH2 0x943 JUMPI JUMPDEST PUSH2 0x92F DUP2 DUP4 PUSH2 0x161B JUMP JUMPDEST DUP2 ADD SWAP1 PUSH2 0x1947 JUMP JUMPDEST POP POP SWAP2 SWAP1 POP SWAP1 CODESIZE PUSH2 0x7E3 JUMP JUMPDEST POP RETURNDATASIZE PUSH2 0x925 JUMP JUMPDEST PUSH1 0x40 MLOAD RETURNDATASIZE DUP9 DUP3 RETURNDATACOPY RETURNDATASIZE SWAP1 REVERT JUMPDEST PUSH1 0x40 MLOAD PUSH3 0x461BCD PUSH1 0xE5 SHL DUP2 MSTORE PUSH1 0x4 DUP2 ADD DUP5 SWAP1 MSTORE PUSH1 0x18 DUP2 DUP5 ADD MSTORE PUSH32 0x50726F6A65746F206465766520657374617220617469766F0000000000000000 PUSH1 0x44 DUP3 ADD MSTORE PUSH1 0x64 SWAP1 REVERT JUMPDEST PUSH4 0x4E487B71 PUSH1 0xE0 SHL DUP8 MSTORE PUSH1 0x21 PUSH1 0x4 MSTORE DUP3 DUP8 REVERT JUMPDEST PUSH2 0x9C1 SWAP2 SWAP5 POP RETURNDATASIZE DUP1 DUP9 DUP4 RETURNDATACOPY PUSH2 0x5A8 DUP2 DUP4 PUSH2 0x161B JUMP JUMPDEST SWAP3 CODESIZE PUSH2 0x79C JUMP JUMPDEST PUSH1 0x64 SWAP1 PUSH1 0x40 MLOAD SWAP1 PUSH3 0x461BCD PUSH1 0xE5 SHL DUP3 MSTORE PUSH1 0x4 DUP3 ADD MSTORE PUSH1 0x14 PUSH1 0x24 DUP3 ADD MSTORE PUSH20 0x43726F6E6F6772616D61206A6120657869737465 PUSH1 0x60 SHL PUSH1 0x44 DUP3 ADD MSTORE REVERT JUMPDEST POP DUP1 REVERT JUMPDEST POP CALLVALUE PUSH2 0x168 JUMPI PUSH2 0xA16 CALLDATASIZE PUSH2 0x1659 JUMP JUMPDEST SWAP1 DUP3 MSTORE PUSH1 0x6 PUSH1 0x20 MSTORE PUSH1 0x40 DUP3 KECCAK256 DUP1 SLOAD DUP3 LT ISZERO PUSH2 0x435 JUMPI PUSH2 0xA35 SWAP3 POP PUSH2 0x166F JUMP JUMPDEST POP DUP1 SLOAD PUSH1 0x1 DUP3 ADD SLOAD SWAP2 PUSH2 0xA4A PUSH1 0x2 DUP3 ADD PUSH2 0x16DB JUMP JUMPDEST PUSH2 0xA76 PUSH1 0x4 PUSH1 0x3 DUP5 ADD SLOAD SWAP4 ADD SLOAD SWAP2 PUSH1 0x40 MLOAD SWAP6 DUP7 SWAP6 DUP7 MSTORE PUSH1 0x20 DUP7 ADD MSTORE PUSH1 0xA0 PUSH1 0x40 DUP7 ADD MSTORE PUSH1 0xA0 DUP6 ADD SWAP1 PUSH2 0x1595 JUMP JUMPDEST SWAP2 PUSH1 0x60 DUP5 ADD MSTORE PUSH1 0x80 DUP4 ADD MSTORE SUB SWAP1 RETURN JUMPDEST POP CALLVALUE PUSH2 0x168 JUMPI PUSH1 0x80 CALLDATASIZE PUSH1 0x3 NOT ADD SLT PUSH2 0x168 JUMPI PUSH1 0x44 CALLDATALOAD PUSH8 0xFFFFFFFFFFFFFFFF DUP2 GT PUSH2 0xA03 JUMPI CALLDATASIZE PUSH1 0x23 DUP3 ADD SLT ISZERO PUSH2 0xA03 JUMPI DUP2 DUP2 PUSH1 0x4 ADD CALLDATALOAD SWAP2 PUSH2 0xAC4 DUP4 PUSH2 0x163D JUMP JUMPDEST SWAP3 PUSH2 0xAD2 PUSH1 0x40 MLOAD SWAP5 DUP6 PUSH2 0x161B JUMP JUMPDEST DUP1 DUP5 MSTORE CALLDATASIZE PUSH1 0x24 DUP3 DUP5 ADD ADD GT PUSH2 0x435 JUMPI DUP1 PUSH1 0x24 PUSH1 0x20 SWAP4 ADD DUP4 DUP7 ADD CALLDATACOPY DUP4 ADD ADD MSTORE CALLER DUP3 MSTORE PUSH1 0xB PUSH1 0x20 MSTORE PUSH1 0xFF PUSH1 0x40 DUP4 KECCAK256 SLOAD AND ISZERO PUSH2 0xEFC JUMPI PUSH2 0xB0D PUSH2 0x19B2 JUMP JUMPDEST PUSH1 0x4 CALLDATALOAD DUP3 MSTORE PUSH1 0x8 PUSH1 0x20 MSTORE PUSH2 0xB27 PUSH1 0xFF PUSH1 0x40 DUP5 KECCAK256 SLOAD AND PUSH2 0x1A08 JUMP JUMPDEST PUSH1 0x4 CALLDATALOAD DUP3 MSTORE PUSH1 0x5 PUSH1 0x20 MSTORE PUSH1 0x40 DUP3 KECCAK256 PUSH1 0xFF PUSH1 0x5 DUP3 ADD SLOAD PUSH2 0xB4B DUP3 DUP3 PUSH1 0x8 SHR AND ISZERO PUSH2 0x1A4C JUMP JUMPDEST AND ISZERO PUSH2 0xEA2 JUMPI PUSH1 0x4 CALLDATALOAD DUP4 MSTORE PUSH1 0x6 PUSH1 0x20 MSTORE PUSH1 0x40 DUP4 KECCAK256 PUSH1 0x40 MLOAD SWAP1 PUSH2 0xB6C DUP3 PUSH2 0x15EB JUMP JUMPDEST PUSH1 0x4 CALLDATALOAD DUP3 MSTORE PUSH1 0x24 CALLDATALOAD PUSH1 0x20 DUP4 ADD MSTORE DUP4 PUSH1 0x40 DUP4 ADD MSTORE TIMESTAMP PUSH1 0x60 DUP4 ADD MSTORE PUSH1 0x64 CALLDATALOAD PUSH1 0x80 DUP4 ADD MSTORE DUP1 SLOAD SWAP1 PUSH9 0x10000000000000000 DUP3 LT ISZERO PUSH2 0xE8E JUMPI SWAP1 PUSH2 0xBB1 SWAP2 PUSH1 0x1 DUP3 ADD DUP2 SSTORE PUSH2 0x166F JUMP JUMPDEST SWAP2 SWAP1 SWAP2 PUSH2 0xE7A JUMPI DUP1 MLOAD DUP3 SSTORE PUSH1 0x20 DUP2 ADD MLOAD PUSH1 0x1 DUP4 ADD SSTORE PUSH1 0x40 DUP2 ADD MLOAD DUP1 MLOAD SWAP1 PUSH8 0xFFFFFFFFFFFFFFFF DUP3 GT PUSH2 0xE66 JUMPI PUSH2 0xBEA PUSH1 0x2 DUP6 ADD SLOAD PUSH2 0x16A1 JUMP JUMPDEST PUSH1 0x1F DUP2 GT PUSH2 0xE22 JUMPI JUMPDEST POP PUSH1 0x20 SWAP1 PUSH1 0x1F DUP4 GT PUSH1 0x1 EQ PUSH2 0xDB0 JUMPI SWAP2 DUP1 PUSH1 0x4 SWAP5 SWAP3 PUSH1 0x80 SWAP5 DUP11 SWAP3 PUSH2 0xDA5 JUMPI JUMPDEST POP POP DUP2 PUSH1 0x1 SHL SWAP2 PUSH1 0x0 NOT SWAP1 PUSH1 0x3 SHL SHR NOT AND OR PUSH1 0x2 DUP6 ADD SSTORE JUMPDEST PUSH1 0x60 DUP2 ADD MLOAD PUSH1 0x3 DUP6 ADD SSTORE ADD MLOAD SWAP2 ADD SSTORE PUSH2 0x2710 PUSH2 0xC4A PUSH1 0xC SLOAD PUSH1 0x24 CALLDATALOAD PUSH2 0x197C JUMP JUMPDEST DIV SWAP1 PUSH1 0x1 DUP2 ADD DUP1 SLOAD SWAP3 PUSH1 0x2 DUP4 ADD SWAP4 PUSH2 0xC64 DUP6 SLOAD DUP1 SWAP3 PUSH2 0x1A98 JUMP JUMPDEST DUP1 DUP4 GT PUSH2 0xD9B JUMPI JUMPDEST POP DUP2 PUSH2 0xC77 SWAP2 PUSH2 0x19A5 JUMP JUMPDEST DUP5 SSTORE PUSH1 0x4 CALLDATALOAD DUP7 MSTORE PUSH1 0x9 PUSH1 0x20 MSTORE PUSH2 0xC92 PUSH1 0x40 DUP8 KECCAK256 SWAP2 DUP3 SLOAD PUSH2 0x19A5 JUMP JUMPDEST SWAP1 SSTORE DUP3 SLOAD SWAP1 SLOAD GT ISZERO PUSH2 0xCFB JUMPI JUMPDEST POP POP PUSH2 0xCAC PUSH1 0x4 CALLDATALOAD PUSH2 0x1B42 JUMP JUMPDEST PUSH1 0x40 MLOAD SWAP1 PUSH1 0x24 CALLDATALOAD DUP3 MSTORE PUSH1 0x40 PUSH1 0x20 DUP4 ADD MSTORE PUSH32 0x464D5C98607F6D9474536E404EFA5FBD01E3AF773EB9FC828BDAC1A9D45C2D47 CALLER SWAP3 DUP1 PUSH2 0xCF1 PUSH1 0x4 CALLDATALOAD SWAP5 PUSH1 0x40 DUP4 ADD SWAP1 PUSH2 0x1595 JUMP JUMPDEST SUB SWAP1 LOG3 PUSH1 0x1 DUP2 SSTORE DUP1 RETURN JUMPDEST PUSH1 0x5 ADD DUP1 SLOAD PUSH2 0xFF00 NOT AND PUSH2 0x100 OR SWAP1 SSTORE PUSH1 0x2 SLOAD DUP4 SWAP1 PUSH1 0x1 PUSH1 0x1 PUSH1 0xA0 SHL SUB AND DUP1 EXTCODESIZE ISZERO PUSH2 0xA03 JUMPI DUP2 SWAP1 PUSH1 0x44 PUSH1 0x40 MLOAD DUP1 SWAP5 DUP2 SWAP4 PUSH4 0xD11D498B PUSH1 0xE0 SHL DUP4 MSTORE PUSH1 0x4 CALLDATALOAD PUSH1 0x4 DUP5 ADD MSTORE PUSH1 0x5 PUSH1 0x24 DUP5 ADD MSTORE GAS CALL DUP1 ISZERO PUSH2 0x5B6 JUMPI PUSH2 0xD88 JUMPI JUMPDEST POP SLOAD PUSH1 0x40 MLOAD SWAP1 DUP2 MSTORE PUSH32 0xAD37D0DCBF8A11EE8EDB614AFE9F1CC8CA00876C67E8F2DAE58F738DB9C9431D PUSH1 0x20 PUSH1 0x4 CALLDATALOAD SWAP3 LOG2 CODESIZE DUP1 PUSH2 0xC9F JUMP JUMPDEST PUSH2 0xD94 SWAP1 SWAP4 SWAP2 SWAP4 PUSH2 0x1607 JUMP JUMPDEST SWAP2 CODESIZE PUSH2 0xD51 JUMP JUMPDEST SWAP2 POP PUSH2 0xC77 PUSH2 0xC6C JUMP JUMPDEST ADD MLOAD SWAP1 POP CODESIZE DUP1 PUSH2 0xC12 JUMP JUMPDEST SWAP1 PUSH1 0x2 DUP6 ADD DUP9 MSTORE PUSH1 0x20 DUP9 KECCAK256 SWAP2 DUP9 JUMPDEST PUSH1 0x1F NOT DUP6 AND DUP2 LT PUSH2 0xE0A JUMPI POP SWAP3 PUSH1 0x4 SWAP5 SWAP3 PUSH1 0x1 SWAP3 PUSH1 0x80 SWAP6 DUP4 PUSH1 0x1F NOT DUP2 AND LT PUSH2 0xDF1 JUMPI JUMPDEST POP POP POP DUP2 SHL ADD PUSH1 0x2 DUP6 ADD SSTORE PUSH2 0xC2A JUMP JUMPDEST ADD MLOAD PUSH1 0x0 NOT PUSH1 0xF8 DUP5 PUSH1 0x3 SHL AND SHR NOT AND SWAP1 SSTORE CODESIZE DUP1 DUP1 PUSH2 0xDE1 JUMP JUMPDEST SWAP2 SWAP3 PUSH1 0x20 PUSH1 0x1 DUP2 SWAP3 DUP7 DUP6 ADD MLOAD DUP2 SSTORE ADD SWAP5 ADD SWAP3 ADD PUSH2 0xDBE JUMP JUMPDEST PUSH1 0x2 DUP6 ADD DUP9 MSTORE PUSH1 0x20 DUP9 KECCAK256 PUSH1 0x1F DUP5 ADD PUSH1 0x5 SHR DUP2 ADD PUSH1 0x20 DUP6 LT PUSH2 0xE5F JUMPI JUMPDEST PUSH1 0x1F DUP4 ADD PUSH1 0x5 SHR DUP3 ADD DUP2 LT PUSH2 0xE54 JUMPI POP POP PUSH2 0xBF3 JUMP JUMPDEST DUP10 DUP2 SSTORE PUSH1 0x1 ADD PUSH2 0xE3E JUMP JUMPDEST POP DUP1 PUSH2 0xE3E JUMP JUMPDEST PUSH4 0x4E487B71 PUSH1 0xE0 SHL DUP8 MSTORE PUSH1 0x41 PUSH1 0x4 MSTORE PUSH1 0x24 DUP8 REVERT JUMPDEST PUSH4 0x4E487B71 PUSH1 0xE0 SHL DUP6 MSTORE PUSH1 0x4 DUP6 SWAP1 MSTORE PUSH1 0x24 DUP6 REVERT JUMPDEST PUSH4 0x4E487B71 PUSH1 0xE0 SHL DUP7 MSTORE PUSH1 0x41 PUSH1 0x4 MSTORE PUSH1 0x24 DUP7 REVERT JUMPDEST PUSH1 0x40 MLOAD PUSH3 0x461BCD PUSH1 0xE5 SHL DUP2 MSTORE PUSH1 0x20 PUSH1 0x4 DUP3 ADD MSTORE PUSH1 0x2C PUSH1 0x24 DUP3 ADD MSTORE PUSH32 0x50726F6A65746F206E616F20616365697461207265706167616D656E746F2070 PUSH1 0x44 DUP3 ADD MSTORE PUSH12 0x6F7220726F79616C74696573 PUSH1 0xA0 SHL PUSH1 0x64 DUP3 ADD MSTORE PUSH1 0x84 SWAP1 REVERT JUMPDEST PUSH1 0x40 MLOAD PUSH3 0x461BCD PUSH1 0xE5 SHL DUP2 MSTORE PUSH1 0x20 PUSH1 0x4 DUP3 ADD MSTORE PUSH1 0x16 PUSH1 0x24 DUP3 ADD MSTORE PUSH22 0x4F726163756C6F206E616F206175746F72697A61646F PUSH1 0x50 SHL PUSH1 0x44 DUP3 ADD MSTORE PUSH1 0x64 SWAP1 REVERT JUMPDEST POP CALLVALUE PUSH2 0x168 JUMPI PUSH1 0x20 CALLDATASIZE PUSH1 0x3 NOT ADD SLT PUSH2 0x168 JUMPI PUSH1 0x4 CALLDATALOAD PUSH1 0x24 PUSH1 0x1 DUP1 PUSH1 0xA0 SHL SUB DUP4 DUP2 PUSH1 0x2 SLOAD AND PUSH1 0x40 MLOAD SWAP4 DUP5 DUP1 SWAP3 PUSH4 0x1E1E7E59 PUSH1 0xE3 SHL DUP3 MSTORE DUP8 PUSH1 0x4 DUP4 ADD MSTORE GAS STATICCALL SWAP2 DUP3 ISZERO PUSH2 0x5B6 JUMPI DUP5 SWAP3 PUSH2 0x1009 JUMPI JUMPDEST POP PUSH1 0xA0 SWAP1 PUSH1 0x3 SLOAD AND SWAP3 PUSH1 0x24 PUSH1 0x40 MLOAD DUP1 SWAP6 DUP2 SWAP4 PUSH4 0xAE89AEB9 PUSH1 0xE0 SHL DUP4 MSTORE PUSH1 0x4 DUP4 ADD MSTORE GAS STATICCALL SWAP2 DUP3 ISZERO PUSH2 0xFFE JUMPI SWAP2 PUSH2 0xFCD SWAP2 PUSH2 0x2710 SWAP4 PUSH1 0x20 SWAP6 SWAP3 PUSH2 0xFD6 JUMPI JUMPDEST POP PUSH2 0x100 ADD MLOAD SWAP1 PUSH2 0x197C JUMP JUMPDEST DIV PUSH1 0x40 MLOAD SWAP1 DUP2 MSTORE RETURN JUMPDEST PUSH2 0x100 SWAP2 SWAP3 POP PUSH2 0xFF3 SWAP1 PUSH1 0xA0 RETURNDATASIZE DUP2 GT PUSH2 0x943 JUMPI PUSH2 0x92F DUP2 DUP4 PUSH2 0x161B JUMP JUMPDEST POP POP POP POP SWAP2 SWAP1 PUSH2 0xFC1 JUMP JUMPDEST PUSH1 0x40 MLOAD RETURNDATASIZE DUP6 DUP3 RETURNDATACOPY RETURNDATASIZE SWAP1 REVERT JUMPDEST PUSH1 0xA0 SWAP2 SWAP3 POP PUSH2 0x1021 SWAP1 RETURNDATASIZE DUP1 DUP8 DUP4 RETURNDATACOPY PUSH2 0x5A8 DUP2 DUP4 PUSH2 0x161B JUMP JUMPDEST SWAP2 SWAP1 PUSH2 0xF85 JUMP JUMPDEST POP CALLVALUE PUSH2 0x168 JUMPI PUSH1 0x20 CALLDATASIZE PUSH1 0x3 NOT ADD SLT PUSH2 0x168 JUMPI PUSH1 0xFF PUSH1 0x40 PUSH1 0x20 SWAP3 PUSH1 0x4 CALLDATALOAD DUP2 MSTORE PUSH1 0x8 DUP5 MSTORE KECCAK256 SLOAD AND PUSH1 0x40 MLOAD SWAP1 ISZERO ISZERO DUP2 MSTORE RETURN JUMPDEST POP CALLVALUE PUSH2 0x168 JUMPI PUSH1 0x20 CALLDATASIZE PUSH1 0x3 NOT ADD SLT PUSH2 0x168 JUMPI PUSH2 0x1071 PUSH2 0x15D5 JUMP JUMPDEST PUSH2 0x1079 PUSH2 0x1781 JUMP JUMPDEST PUSH1 0x1 PUSH1 0x1 PUSH1 0xA0 SHL SUB AND DUP2 MSTORE PUSH1 0xB PUSH1 0x20 MSTORE PUSH1 0x40 DUP2 KECCAK256 DUP1 SLOAD PUSH1 0xFF NOT AND PUSH1 0x1 OR SWAP1 SSTORE DUP1 RETURN JUMPDEST POP CALLVALUE PUSH2 0x168 JUMPI DUP1 PUSH1 0x3 NOT CALLDATASIZE ADD SLT PUSH2 0x168 JUMPI PUSH1 0x3 SLOAD PUSH1 0x40 MLOAD PUSH1 0x1 PUSH1 0x1 PUSH1 0xA0 SHL SUB SWAP1 SWAP2 AND DUP2 MSTORE PUSH1 0x20 SWAP1 RETURN JUMPDEST POP CALLVALUE PUSH2 0x168 JUMPI DUP1 PUSH1 0x3 NOT CALLDATASIZE ADD SLT PUSH2 0x168 JUMPI PUSH1 0x1 SLOAD PUSH1 0x40 MLOAD PUSH1 0x1 PUSH1 0x1 PUSH1 0xA0 SHL SUB SWAP1 SWAP2 AND DUP2 MSTORE PUSH1 0x20 SWAP1 RETURN JUMPDEST POP CALLVALUE PUSH2 0x168 JUMPI PUSH1 0x20 CALLDATASIZE PUSH1 0x3 NOT ADD SLT PUSH2 0x168 JUMPI PUSH2 0x1107 PUSH2 0x15D5 JUMP JUMPDEST PUSH2 0x110F PUSH2 0x1781 JUMP JUMPDEST PUSH1 0x1 PUSH1 0x1 PUSH1 0xA0 SHL SUB AND DUP2 MSTORE PUSH1 0xB PUSH1 0x20 MSTORE PUSH1 0x40 DUP2 KECCAK256 DUP1 SLOAD PUSH1 0xFF NOT AND SWAP1 SSTORE DUP1 RETURN JUMPDEST POP CALLVALUE PUSH2 0x168 JUMPI DUP1 PUSH1 0x3 NOT CALLDATASIZE ADD SLT PUSH2 0x168 JUMPI PUSH1 0x4 SLOAD PUSH1 0x40 MLOAD PUSH1 0x1 PUSH1 0x1 PUSH1 0xA0 SHL SUB SWAP1 SWAP2 AND DUP2 MSTORE PUSH1 0x20 SWAP1 RETURN JUMPDEST POP CALLVALUE PUSH2 0x168 JUMPI DUP1 PUSH1 0x3 NOT CALLDATASIZE ADD SLT PUSH2 0x168 JUMPI PUSH2 0x1170 PUSH2 0x1781 JUMP JUMPDEST PUSH1 0x1 DUP1 SLOAD PUSH1 0x1 PUSH1 0x1 PUSH1 0xA0 SHL SUB NOT DUP2 AND SWAP1 SWAP2 SSTORE DUP2 SWAP1 PUSH1 0x1 PUSH1 0x1 PUSH1 0xA0 SHL SUB AND PUSH32 0x8BE0079C531659141344CD1FD0A4F28419497F9722A3DAAFE3B4186F6B6457E0 DUP3 DUP1 LOG3 DUP1 RETURN JUMPDEST POP CALLVALUE PUSH2 0x168 JUMPI PUSH1 0x20 CALLDATASIZE PUSH1 0x3 NOT ADD SLT PUSH2 0x168 JUMPI PUSH2 0x11CE PUSH2 0x15D5 JUMP JUMPDEST PUSH2 0x11D6 PUSH2 0x1781 JUMP JUMPDEST PUSH1 0x1 DUP1 PUSH1 0xA0 SHL SUB AND PUSH12 0xFFFFFFFFFFFFFFFFFFFFFFFF PUSH1 0xA0 SHL PUSH1 0xA SLOAD AND OR PUSH1 0xA SSTORE DUP1 RETURN JUMPDEST POP CALLVALUE PUSH2 0x168 JUMPI PUSH1 0x40 CALLDATASIZE PUSH1 0x3 NOT ADD SLT PUSH2 0x168 JUMPI PUSH1 0x40 PUSH1 0x20 SWAP2 PUSH2 0x1218 PUSH2 0x15BA JUMP JUMPDEST PUSH1 0x4 CALLDATALOAD DUP3 MSTORE PUSH1 0x7 DUP5 MSTORE DUP3 DUP3 KECCAK256 PUSH1 0x1 PUSH1 0x1 PUSH1 0xA0 SHL SUB SWAP1 SWAP2 AND DUP3 MSTORE DUP4 MSTORE KECCAK256 SLOAD PUSH1 0x40 MLOAD SWAP1 DUP2 MSTORE RETURN JUMPDEST POP CALLVALUE PUSH2 0x168 JUMPI PUSH1 0x20 CALLDATASIZE PUSH1 0x3 NOT ADD SLT PUSH2 0x168 JUMPI PUSH1 0x20 SWAP1 PUSH1 0xFF SWAP1 PUSH1 0x40 SWAP1 PUSH1 0x1 PUSH1 0x1 PUSH1 0xA0 SHL SUB PUSH2 0x1268 PUSH2 0x15D5 JUMP JUMPDEST AND DUP2 MSTORE PUSH1 0xB DUP5 MSTORE KECCAK256 SLOAD AND PUSH1 0x40 MLOAD SWAP1 ISZERO ISZERO DUP2 MSTORE RETURN JUMPDEST POP CALLVALUE PUSH2 0x168 JUMPI DUP1 PUSH1 0x3 NOT CALLDATASIZE ADD SLT PUSH2 0x168 JUMPI PUSH1 0x2 SLOAD PUSH1 0x40 MLOAD PUSH1 0x1 PUSH1 0x1 PUSH1 0xA0 SHL SUB SWAP1 SWAP2 AND DUP2 MSTORE PUSH1 0x20 SWAP1 RETURN JUMPDEST POP CALLVALUE PUSH2 0x168 JUMPI PUSH1 0x20 CALLDATASIZE PUSH1 0x3 NOT ADD SLT PUSH2 0x168 JUMPI PUSH1 0x40 PUSH2 0x100 SWAP2 PUSH1 0x4 CALLDATALOAD DUP2 MSTORE PUSH1 0x5 PUSH1 0x20 MSTORE KECCAK256 DUP1 SLOAD SWAP1 PUSH1 0xFF PUSH1 0x1 DUP3 ADD SLOAD SWAP2 PUSH1 0x2 DUP2 ADD SLOAD PUSH1 0x3 DUP3 ADD SLOAD PUSH1 0x4 DUP4 ADD SLOAD SWAP2 PUSH1 0x6 PUSH1 0x5 DUP6 ADD SLOAD SWAP5 ADD SLOAD SWAP6 PUSH1 0x40 MLOAD SWAP8 DUP9 MSTORE PUSH1 0x20 DUP9 ADD MSTORE PUSH1 0x40 DUP8 ADD MSTORE PUSH1 0x60 DUP7 ADD MSTORE PUSH1 0x80 DUP6 ADD MSTORE DUP2 DUP2 AND ISZERO ISZERO PUSH1 0xA0 DUP6 ADD MSTORE PUSH1 0x8 SHR AND ISZERO ISZERO PUSH1 0xC0 DUP4 ADD MSTORE PUSH1 0xE0 DUP3 ADD MSTORE RETURN JUMPDEST POP CALLVALUE PUSH2 0x168 JUMPI PUSH1 0x20 CALLDATASIZE PUSH1 0x3 NOT ADD SLT PUSH2 0x168 JUMPI PUSH1 0x4 CALLDATALOAD DUP2 MSTORE PUSH1 0x5 PUSH1 0x20 MSTORE PUSH1 0x40 DUP2 KECCAK256 PUSH1 0x40 MLOAD SWAP1 PUSH2 0x100 DUP3 ADD DUP3 DUP2 LT PUSH8 0xFFFFFFFFFFFFFFFF DUP3 GT OR PUSH2 0x13EF JUMPI PUSH1 0xA0 SWAP4 POP PUSH1 0x40 MSTORE DUP1 SLOAD DUP3 MSTORE PUSH1 0x1 DUP2 ADD SLOAD SWAP2 DUP3 PUSH1 0x20 DUP3 ADD MSTORE PUSH1 0x2 DUP3 ADD SLOAD SWAP2 DUP3 PUSH1 0x40 DUP4 ADD MSTORE PUSH1 0x3 DUP2 ADD SLOAD SWAP2 PUSH1 0x60 DUP2 ADD SWAP3 DUP4 MSTORE PUSH1 0x4 DUP3 ADD SLOAD PUSH1 0x80 DUP3 ADD MSTORE PUSH1 0xE0 PUSH1 0x6 PUSH1 0x5 DUP5 ADD SLOAD SWAP4 PUSH1 0xFF DUP6 AND ISZERO ISZERO DUP10 DUP6 ADD MSTORE PUSH1 0xFF PUSH1 0xC0 DUP6 ADD SWAP6 PUSH1 0x8 SHR AND ISZERO ISZERO DUP6 MSTORE ADD SLOAD SWAP2 ADD MSTORE PUSH2 0x13CC DUP4 DUP6 PUSH2 0x1A98 JUMP JUMPDEST SWAP1 MLOAD ISZERO ISZERO SWAP2 MLOAD SWAP3 PUSH1 0x40 MLOAD SWAP5 DUP6 MSTORE PUSH1 0x20 DUP6 ADD MSTORE PUSH1 0x40 DUP5 ADD MSTORE PUSH1 0x60 DUP4 ADD MSTORE PUSH1 0x80 DUP3 ADD MSTORE RETURN JUMPDEST PUSH4 0x4E487B71 PUSH1 0xE0 SHL DUP5 MSTORE PUSH1 0x41 PUSH1 0x4 MSTORE PUSH1 0x24 DUP5 REVERT JUMPDEST POP CALLVALUE PUSH2 0x168 JUMPI DUP1 PUSH1 0x3 NOT CALLDATASIZE ADD SLT PUSH2 0x168 JUMPI PUSH1 0xA SLOAD PUSH1 0x40 MLOAD PUSH1 0x1 PUSH1 0x1 PUSH1 0xA0 SHL SUB SWAP1 SWAP2 AND DUP2 MSTORE PUSH1 0x20 SWAP1 RETURN JUMPDEST DUP3 CALLVALUE PUSH2 0x168 JUMPI PUSH1 0x20 SWAP2 DUP3 PUSH1 0x3 NOT CALLDATASIZE ADD SLT PUSH2 0xA03 JUMPI PUSH1 0x4 CALLDATALOAD DUP3 MSTORE PUSH1 0x6 DUP4 MSTORE PUSH1 0x40 DUP3 KECCAK256 SWAP1 DUP2 SLOAD SWAP4 PUSH8 0xFFFFFFFFFFFFFFFF DUP6 GT PUSH2 0x13EF JUMPI SWAP3 SWAP1 PUSH1 0x5 SWAP5 PUSH2 0x1473 DUP6 DUP3 DUP9 SHL ADD DUP4 PUSH2 0x161B JUMP JUMPDEST DUP1 DUP3 MSTORE DUP5 DUP3 ADD DUP1 SWAP5 DUP5 MSTORE DUP6 DUP5 KECCAK256 DUP8 DUP6 SWAP3 JUMPDEST DUP5 DUP5 LT PUSH2 0x1518 JUMPI POP POP POP POP POP PUSH1 0x40 MLOAD SWAP4 DUP1 DUP6 ADD SWAP2 DUP2 DUP7 MSTORE MLOAD DUP1 SWAP3 MSTORE PUSH1 0x40 DUP3 DUP2 DUP8 ADD SWAP8 SHL DUP7 ADD ADD SWAP4 SWAP3 SWAP6 JUMPDEST DUP3 DUP8 LT PUSH2 0x14BB JUMPI DUP6 DUP6 SUB DUP7 RETURN JUMPDEST SWAP1 SWAP2 SWAP3 SWAP4 DUP3 DUP1 PUSH1 0x1 SWAP3 PUSH1 0x3F NOT DUP10 DUP3 SUB ADD DUP6 MSTORE DUP8 MLOAD SWAP1 DUP2 MLOAD DUP2 MSTORE DUP3 DUP3 ADD MLOAD DUP4 DUP3 ADD MSTORE PUSH2 0x14F4 PUSH1 0x40 DUP4 ADD MLOAD PUSH1 0xA0 DUP1 PUSH1 0x40 DUP6 ADD MSTORE DUP4 ADD SWAP1 PUSH2 0x1595 JUMP JUMPDEST SWAP2 PUSH1 0x60 DUP1 DUP3 ADD MLOAD SWAP1 DUP4 ADD MSTORE PUSH1 0x80 DUP1 SWAP2 ADD MLOAD SWAP2 ADD MSTORE SWAP7 ADD SWAP3 ADD SWAP7 ADD SWAP6 SWAP3 SWAP2 SWAP1 SWAP3 PUSH2 0x14AE JUMP JUMPDEST SWAP1 DUP9 PUSH1 0x1 SWAP3 PUSH1 0x40 SWAP11 SWAP8 SWAP9 SWAP11 MLOAD PUSH2 0x152D DUP2 PUSH2 0x15EB JUMP JUMPDEST DUP6 SLOAD DUP2 MSTORE DUP5 DUP7 ADD SLOAD DUP4 DUP3 ADD MSTORE PUSH2 0x1545 PUSH1 0x2 DUP8 ADD PUSH2 0x16DB JUMP JUMPDEST PUSH1 0x40 DUP3 ADD MSTORE PUSH1 0x3 DUP7 ADD SLOAD PUSH1 0x60 DUP3 ADD MSTORE PUSH1 0x4 DUP7 ADD SLOAD PUSH1 0x80 DUP3 ADD MSTORE DUP2 MSTORE ADD SWAP3 ADD SWAP3 ADD SWAP2 SWAP1 DUP9 SWAP1 SWAP8 SWAP6 SWAP5 SWAP8 PUSH2 0x1484 JUMP JUMPDEST PUSH1 0x0 JUMPDEST DUP4 DUP2 LT PUSH2 0x1585 JUMPI POP POP PUSH1 0x0 SWAP2 ADD MSTORE JUMP JUMPDEST DUP2 DUP2 ADD MLOAD DUP4 DUP3 ADD MSTORE PUSH1 0x20 ADD PUSH2 0x1575 JUMP JUMPDEST SWAP1 PUSH1 0x20 SWAP2 PUSH2 0x15AE DUP2 MLOAD DUP1 SWAP3 DUP2 DUP6 MSTORE DUP6 DUP1 DUP7 ADD SWAP2 ADD PUSH2 0x1572 JUMP JUMPDEST PUSH1 0x1F ADD PUSH1 0x1F NOT AND ADD ADD SWAP1 JUMP JUMPDEST PUSH1 0x24 CALLDATALOAD SWAP1 PUSH1 0x1 PUSH1 0x1 PUSH1 0xA0 SHL SUB DUP3 AND DUP3 SUB PUSH2 0x15D0 JUMPI JUMP JUMPDEST PUSH1 0x0 DUP1 REVERT JUMPDEST PUSH1 0x4 CALLDATALOAD SWAP1 PUSH1 0x1 PUSH1 0x1 PUSH1 0xA0 SHL SUB DUP3 AND DUP3 SUB PUSH2 0x15D0 JUMPI JUMP JUMPDEST PUSH1 0xA0 DUP2 ADD SWAP1 DUP2 LT PUSH8 0xFFFFFFFFFFFFFFFF DUP3 GT OR PUSH2 0x4EC JUMPI PUSH1 0x40 MSTORE JUMP JUMPDEST PUSH8 0xFFFFFFFFFFFFFFFF DUP2 GT PUSH2 0x4EC JUMPI PUSH1 0x40 MSTORE JUMP JUMPDEST SWAP1 PUSH1 0x1F DUP1 NOT SWAP2 ADD AND DUP2 ADD SWAP1 DUP2 LT PUSH8 0xFFFFFFFFFFFFFFFF DUP3 GT OR PUSH2 0x4EC JUMPI PUSH1 0x40 MSTORE JUMP JUMPDEST PUSH8 0xFFFFFFFFFFFFFFFF DUP2 GT PUSH2 0x4EC JUMPI PUSH1 0x1F ADD PUSH1 0x1F NOT AND PUSH1 0x20 ADD SWAP1 JUMP JUMPDEST PUSH1 0x40 SWAP1 PUSH1 0x3 NOT ADD SLT PUSH2 0x15D0 JUMPI PUSH1 0x4 CALLDATALOAD SWAP1 PUSH1 0x24 CALLDATALOAD SWAP1 JUMP JUMPDEST DUP1 SLOAD DUP3 LT ISZERO PUSH2 0x168B JUMPI PUSH1 0x0 MSTORE PUSH1 0x5 PUSH1 0x20 PUSH1 0x0 KECCAK256 SWAP2 MUL ADD SWAP1 PUSH1 0x0 SWAP1 JUMP JUMPDEST PUSH4 0x4E487B71 PUSH1 0xE0 SHL PUSH1 0x0 MSTORE PUSH1 0x32 PUSH1 0x4 MSTORE PUSH1 0x24 PUSH1 0x0 REVERT JUMPDEST SWAP1 PUSH1 0x1 DUP3 DUP2 SHR SWAP3 AND DUP1 ISZERO PUSH2 0x16D1 JUMPI JUMPDEST PUSH1 0x20 DUP4 LT EQ PUSH2 0x16BB JUMPI JUMP JUMPDEST PUSH4 0x4E487B71 PUSH1 0xE0 SHL PUSH1 0x0 MSTORE PUSH1 0x22 PUSH1 0x4 MSTORE PUSH1 0x24 PUSH1 0x0 REVERT JUMPDEST SWAP2 PUSH1 0x7F AND SWAP2 PUSH2 0x16B0 JUMP JUMPDEST SWAP1 PUSH1 0x40 MLOAD SWAP2 DUP3 PUSH1 0x0 DUP3 SLOAD SWAP3 PUSH2 0x16EF DUP5 PUSH2 0x16A1 JUMP JUMPDEST SWAP1 DUP2 DUP5 MSTORE PUSH1 0x1 SWAP5 DUP6 DUP2 AND SWAP1 DUP2 PUSH1 0x0 EQ PUSH2 0x175E JUMPI POP PUSH1 0x1 EQ PUSH2 0x171B JUMPI JUMPDEST POP POP PUSH2 0x1719 SWAP3 POP SUB DUP4 PUSH2 0x161B JUMP JUMPDEST JUMP JUMPDEST SWAP1 SWAP4 SWAP2 POP PUSH1 0x0 MSTORE PUSH1 0x20 SWAP1 DUP2 PUSH1 0x0 KECCAK256 SWAP4 PUSH1 0x0 SWAP2 JUMPDEST DUP2 DUP4 LT PUSH2 0x1746 JUMPI POP POP PUSH2 0x1719 SWAP4 POP DUP3 ADD ADD CODESIZE DUP1 PUSH2 0x170B JUMP JUMPDEST DUP6 SLOAD DUP9 DUP5 ADD DUP6 ADD MSTORE SWAP5 DUP6 ADD SWAP5 DUP8 SWAP5 POP SWAP2 DUP4 ADD SWAP2 PUSH2 0x172E JUMP JUMPDEST SWAP2 POP POP PUSH2 0x1719 SWAP5 POP PUSH1 0x20 SWAP3 POP PUSH1 0xFF NOT AND DUP3 DUP5 ADD MSTORE ISZERO ISZERO PUSH1 0x5 SHL DUP3 ADD ADD CODESIZE DUP1 PUSH2 0x170B JUMP JUMPDEST PUSH1 0x1 SLOAD PUSH1 0x1 PUSH1 0x1 PUSH1 0xA0 SHL SUB AND CALLER SUB PUSH2 0x1795 JUMPI JUMP JUMPDEST PUSH1 0x64 PUSH1 0x40 MLOAD PUSH3 0x461BCD PUSH1 0xE5 SHL DUP2 MSTORE PUSH1 0x20 PUSH1 0x4 DUP3 ADD MSTORE PUSH1 0x20 PUSH1 0x24 DUP3 ADD MSTORE PUSH32 0x4F776E61626C653A2063616C6C6572206973206E6F7420746865206F776E6572 PUSH1 0x44 DUP3 ADD MSTORE REVERT JUMPDEST DUP2 PUSH1 0x1F DUP3 ADD SLT ISZERO PUSH2 0x15D0 JUMPI DUP1 MLOAD PUSH2 0x17EF DUP2 PUSH2 0x163D JUMP JUMPDEST SWAP3 PUSH2 0x17FD PUSH1 0x40 MLOAD SWAP5 DUP6 PUSH2 0x161B JUMP JUMPDEST DUP2 DUP5 MSTORE PUSH1 0x20 DUP3 DUP5 ADD ADD GT PUSH2 0x15D0 JUMPI PUSH2 0x181B SWAP2 PUSH1 0x20 DUP1 DUP6 ADD SWAP2 ADD PUSH2 0x1572 JUMP JUMPDEST SWAP1 JUMP JUMPDEST MLOAD SWAP1 DUP2 ISZERO ISZERO DUP3 SUB PUSH2 0x15D0 JUMPI JUMP JUMPDEST PUSH1 0x20 DUP2 DUP4 SUB SLT PUSH2 0x15D0 JUMPI DUP1 MLOAD PUSH8 0xFFFFFFFFFFFFFFFF SWAP2 DUP3 DUP3 GT PUSH2 0x15D0 JUMPI ADD SWAP1 PUSH2 0x1A0 SWAP3 DUP4 DUP4 DUP3 SUB SLT PUSH2 0x15D0 JUMPI PUSH1 0x40 MLOAD SWAP4 DUP5 ADD DUP5 DUP2 LT DUP4 DUP3 GT OR PUSH2 0x4EC JUMPI PUSH1 0x40 MSTORE DUP3 MLOAD DUP5 MSTORE PUSH1 0x20 DUP4 ADD MLOAD PUSH1 0x1 PUSH1 0x1 PUSH1 0xA0 SHL SUB DUP2 AND DUP2 SUB PUSH2 0x15D0 JUMPI PUSH1 0x20 DUP6 ADD MSTORE PUSH1 0x40 DUP4 ADD MLOAD DUP3 DUP2 GT PUSH2 0x15D0 JUMPI DUP2 PUSH2 0x18A1 SWAP2 DUP6 ADD PUSH2 0x17D9 JUMP JUMPDEST PUSH1 0x40 DUP6 ADD MSTORE PUSH1 0x60 DUP4 ADD MLOAD DUP3 DUP2 GT PUSH2 0x15D0 JUMPI DUP2 PUSH2 0x18BE SWAP2 DUP6 ADD PUSH2 0x17D9 JUMP JUMPDEST PUSH1 0x60 DUP6 ADD MSTORE PUSH1 0x80 DUP4 ADD MLOAD SWAP2 DUP3 GT PUSH2 0x15D0 JUMPI PUSH2 0x18DA SWAP2 DUP4 ADD PUSH2 0x17D9 JUMP JUMPDEST PUSH1 0x80 DUP4 ADD MSTORE PUSH1 0xA0 DUP2 ADD MLOAD PUSH1 0xA0 DUP4 ADD MSTORE PUSH1 0xC0 DUP2 ADD MLOAD PUSH1 0xC0 DUP4 ADD MSTORE PUSH1 0xE0 DUP2 ADD MLOAD PUSH1 0xE0 DUP4 ADD MSTORE PUSH2 0x100 DUP1 DUP3 ADD MLOAD SWAP1 DUP4 ADD MSTORE PUSH2 0x120 DUP1 DUP3 ADD MLOAD SWAP1 PUSH1 0x7 DUP3 LT ISZERO PUSH2 0x15D0 JUMPI DUP4 ADD MSTORE PUSH2 0x140 PUSH2 0x192A DUP2 DUP4 ADD PUSH2 0x181E JUMP JUMPDEST SWAP1 DUP4 ADD MSTORE PUSH2 0x160 DUP1 DUP3 ADD MLOAD SWAP1 DUP4 ADD MSTORE PUSH2 0x180 DUP1 SWAP2 ADD MLOAD SWAP1 DUP3 ADD MSTORE SWAP1 JUMP JUMPDEST SWAP1 DUP2 PUSH1 0xA0 SWAP2 SUB SLT PUSH2 0x15D0 JUMPI DUP1 MLOAD SWAP2 PUSH1 0x20 DUP3 ADD MLOAD SWAP2 PUSH2 0x1967 PUSH1 0x40 DUP3 ADD PUSH2 0x181E JUMP JUMPDEST SWAP2 PUSH1 0x80 PUSH2 0x1976 PUSH1 0x60 DUP5 ADD PUSH2 0x181E JUMP JUMPDEST SWAP3 ADD MLOAD SWAP1 JUMP JUMPDEST DUP2 DUP2 MUL SWAP3 SWAP2 DUP2 ISZERO SWAP2 DUP5 DIV EQ OR ISZERO PUSH2 0x198F JUMPI JUMP JUMPDEST PUSH4 0x4E487B71 PUSH1 0xE0 SHL PUSH1 0x0 MSTORE PUSH1 0x11 PUSH1 0x4 MSTORE PUSH1 0x24 PUSH1 0x0 REVERT JUMPDEST SWAP2 SWAP1 DUP3 ADD DUP1 SWAP3 GT PUSH2 0x198F JUMPI JUMP JUMPDEST PUSH1 0x2 PUSH1 0x0 SLOAD EQ PUSH2 0x19C3 JUMPI PUSH1 0x2 PUSH1 0x0 SSTORE JUMP JUMPDEST PUSH1 0x40 MLOAD PUSH3 0x461BCD PUSH1 0xE5 SHL DUP2 MSTORE PUSH1 0x20 PUSH1 0x4 DUP3 ADD MSTORE PUSH1 0x1F PUSH1 0x24 DUP3 ADD MSTORE PUSH32 0x5265656E7472616E637947756172643A207265656E7472616E742063616C6C00 PUSH1 0x44 DUP3 ADD MSTORE PUSH1 0x64 SWAP1 REVERT JUMPDEST ISZERO PUSH2 0x1A0F JUMPI JUMP JUMPDEST PUSH1 0x40 MLOAD PUSH3 0x461BCD PUSH1 0xE5 SHL DUP2 MSTORE PUSH1 0x20 PUSH1 0x4 DUP3 ADD MSTORE PUSH1 0x15 PUSH1 0x24 DUP3 ADD MSTORE PUSH21 0x43726F6E6F6772616D61206E616F20657869737465 PUSH1 0x58 SHL PUSH1 0x44 DUP3 ADD MSTORE PUSH1 0x64 SWAP1 REVERT JUMPDEST ISZERO PUSH2 0x1A53 JUMPI JUMP JUMPDEST PUSH1 0x40 MLOAD PUSH3 0x461BCD PUSH1 0xE5 SHL DUP2 MSTORE PUSH1 0x20 PUSH1 0x4 DUP3 ADD MSTORE PUSH1 0x19 PUSH1 0x24 DUP3 ADD MSTORE PUSH32 0x5265706167616D656E746F206A6120636F6D706C657461646F00000000000000 PUSH1 0x44 DUP3 ADD MSTORE PUSH1 0x64 SWAP1 REVERT JUMPDEST SWAP2 SWAP1 DUP3 SUB SWAP2 DUP3 GT PUSH2 0x198F JUMPI JUMP JUMPDEST SWAP2 SWAP3 SWAP1 ISZERO PUSH2 0x1B07 JUMPI POP DUP2 MLOAD ISZERO PUSH2 0x1AB9 JUMPI POP SWAP1 JUMP JUMPDEST EXTCODESIZE ISZERO PUSH2 0x1AC2 JUMPI SWAP1 JUMP JUMPDEST PUSH1 0x40 MLOAD PUSH3 0x461BCD PUSH1 0xE5 SHL DUP2 MSTORE PUSH1 0x20 PUSH1 0x4 DUP3 ADD MSTORE PUSH1 0x1D PUSH1 0x24 DUP3 ADD MSTORE PUSH32 0x416464726573733A2063616C6C20746F206E6F6E2D636F6E7472616374000000 PUSH1 0x44 DUP3 ADD MSTORE PUSH1 0x64 SWAP1 REVERT JUMPDEST DUP3 MLOAD SWAP1 SWAP2 POP ISZERO PUSH2 0x1B1A JUMPI POP DUP1 MLOAD SWAP1 PUSH1 0x20 ADD REVERT JUMPDEST PUSH1 0x40 MLOAD PUSH3 0x461BCD PUSH1 0xE5 SHL DUP2 MSTORE PUSH1 0x20 PUSH1 0x4 DUP3 ADD MSTORE SWAP1 DUP2 SWAP1 PUSH2 0x1B3E SWAP1 PUSH1 0x24 DUP4 ADD SWAP1 PUSH2 0x1595 JUMP JUMPDEST SUB SWAP1 REVERT JUMPDEST PUSH1 0x3 SLOAD PUSH1 0x40 MLOAD PUSH4 0xAE89AEB9 PUSH1 0xE0 SHL DUP2 MSTORE PUSH1 0x4 DUP2 ADD SWAP3 SWAP1 SWAP3 MSTORE PUSH1 0xA0 SWAP1 DUP3 SWAP1 PUSH1 0x24 SWAP1 DUP3 SWAP1 PUSH1 0x1 PUSH1 0x1 PUSH1 0xA0 SHL SUB AND GAS STATICCALL SWAP1 DUP2 ISZERO PUSH2 0x1BA8 JUMPI PUSH1 0x0 SWAP2 PUSH2 0x1B86 JUMPI JUMPDEST POP ISZERO PUSH2 0x1719 JUMPI JUMP JUMPDEST PUSH2 0x1B9E SWAP2 POP PUSH1 0xA0 RETURNDATASIZE DUP2 GT PUSH2 0x943 JUMPI PUSH2 0x92F DUP2 DUP4 PUSH2 0x161B JUMP JUMPDEST POP POP POP POP CODESIZE PUSH2 0x1B7E JUMP JUMPDEST PUSH1 0x40 MLOAD RETURNDATASIZE PUSH1 0x0 DUP3 RETURNDATACOPY RETURNDATASIZE SWAP1 REVERT INVALID LOG2 PUSH5 0x6970667358 0x22 SLT KECCAK256 0xE5 0xD KECCAK256 RETURNDATACOPY DUP16 LOG0 0xD3 PUSH32 0x4E7013B018DB9E812853D5581C623D80885B4C1061D90BBF64736F6C63430008 SGT STOP CALLER "},"methodIdentifiers":{"addAuthorizedOracle(address)":"a37202a8","authorizedOracles(address)":"61c992a3","calculateInterest(uint256)":"a57475e0","emergencyPauseRepayment(uint256)":"e0cf1efb","getInvestorPayments(uint256,address)":"3f0092ae","getRepaymentStatus(uint256)":"500f0914","getRoyaltyPayments(uint256)":"1bbbc2b1","investorPayments(uint256,address)":"67a77dba","loanEscrow()":"9d78cc34","makeTraditionalPayment(uint256,uint256)":"f7b3bf14","owner()":"8da5cb5b","paymentToken()":"3013ce29","priceFeed()":"741bef1a","processRoyaltyPayment(uint256,uint256,string,bytes32)":"a6b5e3e7","projectRegistry()":"5a33d8dc","removeAuthorizedOracle(address)":"88205b57","renounceOwnership()":"715018a6","repaymentSchedules(uint256)":"54a99824","royaltyConversionRate()":"f8837d7f","royaltyPayments(uint256,uint256)":"ac8308ac","royaltyPool(uint256)":"f9314dc7","scheduleExists(uint256)":"a4b186f8","scheduleRepayment(uint256)":"b05fb7b4","setPaymentToken(address)":"6a326ab1","setRoyaltyConversionRate(uint256)":"f3863bd0","transferOwnership(address)":"f2fde38b"}}}}}