{"contracts/mocks/MockV3Aggregator.sol":{"MockV3Aggregator":{"abi":[{"inputs":[{"internalType":"int256","name":"_initialAnswer","type":"int256"}],"stateMutability":"nonpayable","type":"constructor"},{"inputs":[],"name":"answer","outputs":[{"internalType":"int256","name":"","type":"int256"}],"stateMutability":"view","type":"function"},{"inputs":[],"name":"latestRoundData","outputs":[{"internalType":"uint80","name":"","type":"uint80"},{"internalType":"int256","name":"","type":"int256"},{"internalType":"uint256","name":"","type":"uint256"},{"internalType":"uint256","name":"","type":"uint256"},{"internalType":"uint80","name":"","type":"uint80"}],"stateMutability":"view","type":"function"},{"inputs":[{"internalType":"int256","name":"_answer","type":"int256"}],"name":"updateAnswer","outputs":[],"stateMutability":"nonpayable","type":"function"}],"evm":{"bytecode":{"linkReferences":{},"object":"60803461005057601f61014a38819003918201601f19168301916001600160401b0383118484101761005557808492602094604052833981010312610050575160005560405160de908161006c8239f35b600080fd5b634e487b7160e01b600052604160045260246000fdfe6080806040526004361015601257600080fd5b600090813560e01c90816385bb7d6914608c57508063a87a20ce1460745763feaf968c14603e57600080fd5b34607157806003193601126071578060a09154906040519181835260208301528060408301528060608301526080820152f35b80fd5b50346071576020366003190112607157600435815580f35b90503460a4578160031936011260a457602091548152f35b5080fdfea2646970667358221220b2d8185d5c1ac823aa3f919308130c2dbf2905dac6eb93a0551b58c28258d8d564736f6c63430008130033","opcodes":"PUSH1 0x80 CALLVALUE PUSH2 0x50 JUMPI PUSH1 0x1F PUSH2 0x14A CODESIZE DUP2 SWAP1 SUB SWAP2 DUP3 ADD PUSH1 0x1F NOT AND DUP4 ADD SWAP2 PUSH1 0x1 PUSH1 0x1 PUSH1 0x40 SHL SUB DUP4 GT DUP5 DUP5 LT OR PUSH2 0x55 JUMPI DUP1 DUP5 SWAP3 PUSH1 0x20 SWAP5 PUSH1 0x40 MSTORE DUP4 CODECOPY DUP2 ADD SUB SLT PUSH2 0x50 JUMPI MLOAD PUSH1 0x0 SSTORE PUSH1 0x40 MLOAD PUSH1 0xDE SWAP1 DUP2 PUSH2 0x6C DUP3 CODECOPY RETURN JUMPDEST PUSH1 0x0 DUP1 REVERT JUMPDEST PUSH4 0x4E487B71 PUSH1 0xE0 SHL PUSH1 0x0 MSTORE PUSH1 0x41 PUSH1 0x4 MSTORE PUSH1 0x24 PUSH1 0x0 REVERT INVALID PUSH1 0x80 DUP1 PUSH1 0x40 MSTORE PUSH1 0x4 CALLDATASIZE LT ISZERO PUSH1 0x12 JUMPI PUSH1 0x0 DUP1 REVERT JUMPDEST PUSH1 0x0 SWAP1 DUP2 CALLDATALOAD PUSH1 0xE0 SHR SWAP1 DUP2 PUSH4 0x85BB7D69 EQ PUSH1 0x8C JUMPI POP DUP1 PUSH4 0xA87A20CE EQ PUSH1 0x74 JUMPI PUSH4 0xFEAF968C EQ PUSH1 0x3E JUMPI PUSH1 0x0 DUP1 REVERT JUMPDEST CALLVALUE PUSH1 0x71 JUMPI DUP1 PUSH1 0x3 NOT CALLDATASIZE ADD SLT PUSH1 0x71 JUMPI DUP1 PUSH1 0xA0 SWAP2 SLOAD SWAP1 PUSH1 0x40 MLOAD SWAP2 DUP2 DUP4 MSTORE PUSH1 0x20 DUP4 ADD MSTORE DUP1 PUSH1 0x40 DUP4 ADD MSTORE DUP1 PUSH1 0x60 DUP4 ADD MSTORE PUSH1 0x80 DUP3 ADD MSTORE RETURN JUMPDEST DUP1 REVERT JUMPDEST POP CALLVALUE PUSH1 0x71 JUMPI PUSH1 0x20 CALLDATASIZE PUSH1 0x3 NOT ADD SLT PUSH1 0x71 JUMPI PUSH1 0x4 CALLDATALOAD DUP2 SSTORE DUP1 RETURN JUMPDEST SWAP1 POP CALLVALUE PUSH1 0xA4 JUMPI DUP2 PUSH1 0x3 NOT CALLDATASIZE ADD SLT PUSH1 0xA4 JUMPI PUSH1 0x20 SWAP2 SLOAD DUP2 MSTORE RETURN JUMPDEST POP DUP1 REVERT INVALID LOG2 PUSH5 0x6970667358 0x22 SLT KECCAK256 0xB2 0xD8 XOR 0x5D 0x5C BYTE 0xC8 0x23 0xAA EXTCODEHASH SWAP2 SWAP4 ADDMOD SGT 0xC 0x2D 0xBF 0x29 SDIV 0xDA 0xC6 0xEB SWAP4 LOG0 SSTORE SHL PC 0xC2 DUP3 PC 0xD8 0xD5 PUSH5 0x736F6C6343 STOP ADDMOD SGT STOP CALLER "},"methodIdentifiers":{"answer()":"85bb7d69","latestRoundData()":"feaf968c","updateAnswer(int256)":"a87a20ce"}}}}}