{"contracts/LoanEscrow.sol":{"LoanEscrow":{"abi":[{"inputs":[{"internalType":"address","name":"_projectRegistry","type":"address"},{"internalType":"address","name":"_feeRecipient","type":"address"},{"internalType":"address","name":"_acceptedToken","type":"address"}],"stateMutability":"nonpayable","type":"constructor"},{"anonymous":false,"inputs":[{"indexed":true,"internalType":"uint256","name":"projectId","type":"uint256"},{"indexed":false,"internalType":"uint256","name":"goalAmount","type":"uint256"},{"indexed":true,"internalType":"address","name":"artist","type":"address"}],"name":"EscrowCreated","type":"event"},{"anonymous":false,"inputs":[{"indexed":true,"internalType":"uint256","name":"projectId","type":"uint256"},{"indexed":true,"internalType":"address","name":"investor","type":"address"},{"indexed":false,"internalType":"uint256","name":"amount","type":"uint256"},{"indexed":false,"internalType":"uint256","name":"totalRaised","type":"uint256"}],"name":"FundsDeposited","type":"event"},{"anonymous":false,"inputs":[{"indexed":true,"internalType":"uint256","name":"projectId","type":"uint256"},{"indexed":true,"internalType":"address","name":"investor","type":"address"},{"indexed":false,"internalType":"uint256","name":"amount","type":"uint256"}],"name":"FundsRefunded","type":"event"},{"anonymous":false,"inputs":[{"indexed":true,"internalType":"uint256","name":"projectId","type":"uint256"},{"indexed":true,"internalType":"address","name":"artist","type":"address"},{"indexed":false,"internalType":"uint256","name":"amount","type":"uint256"},{"indexed":false,"internalType":"uint256","name":"platformFeeAmount","type":"uint256"}],"name":"FundsReleased","type":"event"},{"anonymous":false,"inputs":[{"indexed":true,"internalType":"uint256","name":"projectId","type":"uint256"},{"indexed":false,"internalType":"uint256","name":"totalRaised","type":"uint256"}],"name":"GoalReached","type":"event"},{"anonymous":false,"inputs":[{"indexed":true,"internalType":"address","name":"previousOwner","type":"address"},{"indexed":true,"internalType":"address","name":"newOwner","type":"address"}],"name":"OwnershipTransferred","type":"event"},{"inputs":[],"name":"acceptedToken","outputs":[{"internalType":"contract IERC20","name":"","type":"address"}],"stateMutability":"view","type":"function"},{"inputs":[{"internalType":"uint256","name":"_projectId","type":"uint256"}],"name":"createEscrow","outputs":[],"stateMutability":"nonpayable","type":"function"},{"inputs":[{"internalType":"uint256","name":"_projectId","type":"uint256"},{"internalType":"uint256","name":"_amount","type":"uint256"}],"name":"depositFunds","outputs":[],"stateMutability":"payable","type":"function"},{"inputs":[{"internalType":"uint256","name":"","type":"uint256"}],"name":"emergencyWithdraw","outputs":[],"stateMutability":"nonpayable","type":"function"},{"inputs":[{"internalType":"uint256","name":"","type":"uint256"}],"name":"escrowExists","outputs":[{"internalType":"bool","name":"","type":"bool"}],"stateMutability":"view","type":"function"},{"inputs":[{"internalType":"uint256","name":"","type":"uint256"}],"name":"escrows","outputs":[{"internalType":"uint256","name":"projectId","type":"uint256"},{"internalType":"uint256","name":"totalRaised","type":"uint256"},{"internalType":"uint256","name":"goalAmount","type":"uint256"},{"internalType":"bool","name":"fundsReleased","type":"bool"},{"internalType":"bool","name":"fundsRefunded","type":"bool"},{"internalType":"uint256","name":"createdAt","type":"uint256"}],"stateMutability":"view","type":"function"},{"inputs":[],"name":"feeRecipient","outputs":[{"internalType":"address","name":"","type":"address"}],"stateMutability":"view","type":"function"},{"inputs":[{"internalType":"uint256","name":"_projectId","type":"uint256"}],"name":"getEscrowData","outputs":[{"internalType":"uint256","name":"totalRaised","type":"uint256"},{"internalType":"uint256","name":"goalAmount","type":"uint256"},{"internalType":"bool","name":"fundsReleased","type":"bool"},{"internalType":"bool","name":"fundsRefunded","type":"bool"},{"internalType":"uint256","name":"investorCount","type":"uint256"}],"stateMutability":"view","type":"function"},{"inputs":[{"internalType":"uint256","name":"_projectId","type":"uint256"},{"internalType":"address","name":"_investor","type":"address"}],"name":"getInvestorData","outputs":[{"internalType":"uint256","name":"","type":"uint256"}],"stateMutability":"view","type":"function"},{"inputs":[],"name":"owner","outputs":[{"internalType":"address","name":"","type":"address"}],"stateMutability":"view","type":"function"},{"inputs":[{"internalType":"uint256","name":"_projectId","type":"uint256"},{"internalType":"uint256","name":"_percentage","type":"uint256"}],"name":"partialRelease","outputs":[],"stateMutability":"nonpayable","type":"function"},{"inputs":[],"name":"platformFee","outputs":[{"internalType":"uint256","name":"","type":"uint256"}],"stateMutability":"view","type":"function"},{"inputs":[],"name":"projectRegistry","outputs":[{"internalType":"contract IProjectRegistry","name":"","type":"address"}],"stateMutability":"view","type":"function"},{"inputs":[{"internalType":"uint256","name":"_projectId","type":"uint256"}],"name":"refundInvestors","outputs":[],"stateMutability":"nonpayable","type":"function"},{"inputs":[{"internalType":"uint256","name":"_projectId","type":"uint256"}],"name":"releaseFunds","outputs":[],"stateMutability":"nonpayable","type":"function"},{"inputs":[],"name":"renounceOwnership","outputs":[],"stateMutability":"nonpayable","type":"function"},{"inputs":[{"internalType":"address","name":"_newRecipient","type":"address"}],"name":"setFeeRecipient","outputs":[],"stateMutability":"nonpayable","type":"function"},{"inputs":[{"internalType":"uint256","name":"_newFee","type":"uint256"}],"name":"setPlatformFee","outputs":[],"stateMutability":"nonpayable","type":"function"},{"inputs":[{"internalType":"address","name":"newOwner","type":"address"}],"name":"transferOwnership","outputs":[],"stateMutability":"nonpayable","type":"function"}],"evm":{"bytecode":{"linkReferences":{},"object":"608034620000f357601f62001de038819003918201601f19168301916001600160401b03831184841017620000f857808492606094604052833981010312620000f3576200004d816200010e565b62000069604062000061602085016200010e565b93016200010e565b6001600081815581546001600160a01b0319808216339081179094556040519690956001600160a01b039594869492938593908416907f8be0079c531659141344cd1fd0a4f28419497f9722a3daafe3b4186f6b6457e09080a360fa600555168560025416176002551683600654161760065516906007541617600755611cbc9081620001248239f35b600080fd5b634e487b7160e01b600052604160045260246000fd5b51906001600160a01b0382168203620000f35756fe6080604081815260048036101561001557600080fd5b600092833560e01c908163012f52ee146114cc5750806312e8e2c31461146957806326232a2e1461144a578063451c3d801461142157806346904840146113f85780634d68282f146110cc5780635312ea8e14610fed5780635a33d8dc14610fc457806361638ed514610c74578063715018a614610c165780638da2c873146109f95780638da5cb5b146109d05780638e0eac0f146109a557806396a9d91314610668578063999b601914610604578381639ee987b2146102b757508063ae89aeb914610241578063e74b981b146101c05763f2fde38b146100f657600080fd5b346101bc5760203660031901126101bc5761010f611546565b9061011861155c565b6001600160a01b0391821692831561016a575050600154826001600160601b0360a01b821617600155167f8be0079c531659141344cd1fd0a4f28419497f9722a3daafe3b4186f6b6457e0600080a380f35b906020608492519162461bcd60e51b8352820152602660248201527f4f776e61626c653a206e6577206f776e657220697320746865207a65726f206160448201526564647265737360d01b6064820152fd5b8280fd5b50346101bc5760203660031901126101bc576101da611546565b6101e261155c565b6001600160a01b031691821561020a5750506001600160601b0360a01b600654161760065580f35b906020606492519162461bcd60e51b83528201526011602482015270456e64657265636f20696e76616c69646f60781b6044820152fd5b50346101bc5760203660031901126101bc5760a092818392359081835260205261027060ff848420541661186b565b81526003602052209060ff60018301549260028101549260066003830154920154938151958652602086015282821615159085015260081c16151560608301526080820152f35b9190503461060057602092836003193601126101bc5781356102d7611815565b8084528285526102ec60ff838620541661186b565b600280548351631e1e7e5960e31b81528581018490526024986001600160a01b039893959282908b9082908c165afa9081156105f65787916105d4575b5060c0810151421180156105bc575b1561056657610120015196600797888110156105545760031461051e57838752600383528187209760038901610100815460ff8116158061050f575b61037d906118ab565b61ff0019161790556006889901985b89548110156104a45761039f818b611966565b5084516103ab816115de565b878786808554168085526001860154908d8487019783895201548b870152816103f9575b5050505050505060001981146103e75760010161038c565b634e487b7160e01b8952601188528a89fd5b8854831680610471575050508d8093508092508091855116865190828215610468575bf11561045e577f80b577b4fc190ab86d963549e29f496afd079c5d81a2480d61217d4b5060a28c87868a935b511693518851908152a3388087878683806103cf565b85513d8c823e3d90fd5b506108fc61041c565b9161049f917f80b577b4fc190ab86d963549e29f496afd079c5d81a2480d61217d4b5060a28c969793611bd3565b610448565b88808c868b8a888d5416803b1561050b5785928360449260068751988996879563d11d498b60e01b87528601528401525af190811561050257506104eb575b506001905580f35b6104f4906115b4565b6104ff5780826104e3565b80fd5b513d84823e3d90fd5b8580fd5b50600881901c60ff1615610374565b815162461bcd60e51b81528087018490526011818b0152704d65746120666f69206174696e6769646160781b6044820152606490fd5b634e487b7160e01b8852602187528988fd5b815162461bcd60e51b8152808701849052602b818b01527f5072617a6f206e616f20657870697261646f206f752070726f6a65746f206e6160448201526a6f2063616e63656c61646f60a81b6064820152608490fd5b50610120810151600781101561055457600614610338565b6105f091503d8089833e6105e881836115fa565b8101906116ad565b38610329565b82513d89823e3d90fd5b5080fd5b50346101bc57816003193601126101bc576024356001600160a01b03811691803591839003610663578482859260059460209852875261064960ff848420541661186b565b815260038652200190600052825280600020549051908152f35b600080fd5b5090346101bc5761067836611530565b91610681611815565b81855260209284845261069960ff838820541661186b565b60018060a01b03806002541695835192631e1e7e5960e31b80855286838601526024948a8187818d5afa908b821561099a576106e6928792828d939261097f575b50500151163314611b74565b81151580610973575b1561093a578990858751809b819382528a878301525afa978815610930578998610914575b5061012088015160078110156109025782036108c0578589526003875284892060ff6003820154161561086b576107558a9493926001612710930154611bc0565b049382600754169182156000146107cb5750505061077583471015611c25565b8180808086858b8d0151168282156107c2575bf1156107b65785600080516020611c678339815191529596975b015116958351928352820152a36001815580f35b508251903d90823e3d90fd5b506108fc610788565b978099979887519283916370a0823160e01b8352309083015281855afa9081156108615790899291859161082d575b5085600080516020611c67833981519152989261081c82610828941015611c25565b85858501511690611bd3565b6107a2565b92809295508391503d831161085a575b61084781836115fa565b81010312610663575188928891856107fa565b503d61083d565b86513d86823e3d90fd5b855162461bcd60e51b8152808401899052602a818701527f46756e646f73207072696e63697061697320646576656d20746572207369646f604482015269206c6962657261646f7360b01b6064820152608490fd5b845162461bcd60e51b81528083018890526018818601527f50726f6a65746f206465766520657374617220617469766f00000000000000006044820152606490fd5b634e487b7160e01b8a5260218352848afd5b6109299198503d808b833e6105e881836115fa565b9638610714565b85513d8b823e3d90fd5b855162461bcd60e51b815280840189905260148187015273506f7263656e746167656d20696e76616c69646160601b6044820152606490fd5b506127108211156106ef565b61099392503d8091833e6105e881836115fa565b388e6106da565b8851903d90823e3d90fd5b50346101bc5760203660031901126101bc57816020938260ff93358252855220541690519015158152f35b50503461060057816003193601126106005760015490516001600160a01b039091168152602090f35b50346101bc5760209081600319360112610c1257803591610a18611815565b82855281815260ff8486205416610bdd576002548451631e1e7e5960e31b8152838101859052906001600160a01b039087908390602490829085165afa918215610bd3578792610bb7575b506101208201516007811015610ba457600103610b6157610a8960c083015142106117c9565b84875260038352868681209486865581600187015560a0840195865160028201556003810161ffff1981541690558142910155808552878220600160ff19825416179055826002541690813b156101bc578760448492838c51958694859363d11d498b60e01b8552840152600260248401525af18015610b5757610b3f575b5050827f4c98e229e2f01f3e7de1e15f4599733605128275cac56f442301b55975b538bc9451920151169451908152a36001815580f35b610b48906115b4565b610b53578638610b08565b8680fd5b88513d84823e3d90fd5b855162461bcd60e51b8152808501849052601b60248201527f50726f6a65746f2064657665206573746172206170726f7661646f00000000006044820152606490fd5b634e487b7160e01b885260218552602488fd5b610bcc9192503d8089833e6105e881836115fa565b9038610a63565b86513d89823e3d90fd5b835162461bcd60e51b815291820152601060248201526f457363726f77206a612065786973746560801b604482015260649150fd5b8380fd5b83346104ff57806003193601126104ff57610c2f61155c565b600180546001600160a01b031981169091556000906001600160a01b03167f8be0079c531659141344cd1fd0a4f28419497f9722a3daafe3b4186f6b6457e08280a380f35b50610c7e36611530565b919092610c89611815565b83855284602092808452610ca260ff848420541661186b565b6002548351631e1e7e5960e31b81528281018890526024936001600160a01b039282908690829086165afa908115610930578991610faa575b506101208101516007811015610f9857600203610f565760c0610d0191015142106117c9565b8688526003855283882095610d26600388015460ff8116159081610f47575b506118ab565b60075482169081610edb57505034610d3f8115156118f7565b3360005260058701865284600020610d58828254611943565b90556001870196610d6a828954611943565b8855855160068201610d7b826115de565b3382528882018481528883019142835280549068010000000000000000821015610ec95790610daf91600182018155611966565b939093610eb85786959492600294928f9a9998869351166001600160601b0360a01b855416178455516001840155519101558954928851908152838a8201528b7f1c5831173620d6383a8570c099431dfb1eb2fcafeb44302976ed2cfecc4b788b8a3393a301541115610e25575b836001815580f35b6002541690813b15610c12576044889185809460038951978896879563d11d498b60e01b87528601528401525af18015610eae57610e96575b50507f85b3ed4e45559c5f41fb220aa4ac86a440dfc741f219089de694242940aaa09c92549051908152a23880808084818080610e1d565b610e9f906115b4565b610eaa578438610e5e565b8480fd5b83513d84823e3d90fd5b634e487b7160e01b8e528d8852888efd5b634e487b7160e01b8f5260418952898ffd5b8091610ee88215156118f7565b8651916323b872dd60e01b89840152338784015230604484015260648301526064825260a0820182811067ffffffffffffffff821117610f33578752610f2e9190611998565b610d3f565b86604187634e487b7160e01b600052526000fd5b60ff915060081c161538610d20565b845162461bcd60e51b8152808401879052601e818601527f50726f6a65746f206465766520657374617220656d20636170746163616f00006044820152606490fd5b634e487b7160e01b8a5260218452848afd5b610fbe91503d808b833e6105e881836115fa565b38610cdb565b50503461060057816003193601126106005760025490516001600160a01b039091168152602090f35b5090346101bc5760203660031901126101bc5761100861155c565b6007546001600160a01b0392849184168061104f5750508080809394600154164790828215611046575bf11561103c575080f35b51903d90823e3d90fd5b506108fc611032565b91509260015416908251936370a0823160e01b85523090850152602084602481845afa9283156110c35750849261108e575b61108b9350611bd3565b80f35b91506020833d82116110bb575b816110a8602093836115fa565b810103126106635761108b925191611081565b3d915061109b565b513d86823e3d90fd5b5091903461060057602090816003193601126101bc578335906110ed611815565b81845284835261110260ff828620541661186b565b60018060a01b03806002541695825191631e1e7e5960e31b8084528583850152602493888186818d5afa9081156112b35783898b949361114e9386916113de575b500151163314611b74565b848651809b8193825289878301525afa9788156113d45787986113b8575b5061012088015160078110156113a657600303611365578487526003865283872060038101805460ff81161580611357575b156113035790600180939260ff19161790550154926127106111c260055486611bc0565b0492838503948086116112f15784846007541680156000146112c657508a8080809388600654168282156112bd575bf1156112b3578980808881948f8e8a91015116908a8491146112aa575bf11561129c575b826002541691823b156112a6579060448a92838951958694859363d11d498b60e01b85528d828601528401525af1801561129c57611277575b5085600080516020611c6783398151915295969798015116958351928352820152a36001815580f35b958097611293600080516020611c6783398151915297986115b4565b9796955061124e565b85513d8a823e3d90fd5b8980fd5b506108fc61120e565b86513d8b823e3d90fd5b506108fc6111f1565b6112d69250856006541690611bd3565b6112ec858b858b81600754169201511690611bd3565b611215565b50634e487b7160e01b89526011905287fd5b865162461bcd60e51b81528086018a90526029818801527f46756e646f73206a6120666f72616d206c6962657261646f73206f75207265656044820152686d626f6c7361646f7360b81b6064820152608490fd5b5060ff8160081c161561119e565b50601b6064928685519362461bcd60e51b85528401528201527f4d657461206465766520746572207369646f206174696e6769646100000000006044820152fd5b634e487b7160e01b8852602183528388fd5b6113cd9198503d8089833e6105e881836115fa565b963861116c565b84513d89823e3d90fd5b6113f291503d8088833e6105e881836115fa565b38611143565b50503461060057816003193601126106005760065490516001600160a01b039091168152602090f35b50503461060057816003193601126106005760075490516001600160a01b039091168152602090f35b5050346106005781600319360112610600576020906005549051908152f35b50346101bc5760203660031901126101bc5780359161148661155c565b6103e8831161149757505060055580f35b906020606492519162461bcd60e51b8352820152600f60248201526e54617861206d6178696d612031302560881b6044820152fd5b9291905034610c12576020366003190112610c1257808260c09560ff93358152600360205220908154936001830154600284015492600385015494015495875260208701528501528181161515606085015260081c161515608083015260a0820152f35b6040906003190112610663576004359060243590565b600435906001600160a01b038216820361066357565b6001546001600160a01b0316330361157057565b606460405162461bcd60e51b815260206004820152602060248201527f4f776e61626c653a2063616c6c6572206973206e6f7420746865206f776e65726044820152fd5b67ffffffffffffffff81116115c857604052565b634e487b7160e01b600052604160045260246000fd5b6060810190811067ffffffffffffffff8211176115c857604052565b90601f8019910116810190811067ffffffffffffffff8211176115c857604052565b67ffffffffffffffff81116115c857601f01601f191660200190565b60005b83811061164b5750506000910152565b818101518382015260200161163b565b81601f820112156106635780516116718161161c565b9261167f60405194856115fa565b818452602082840101116106635761169d9160208085019101611638565b90565b5190811515820361066357565b60208183031261066357805167ffffffffffffffff918282116106635701906101a092838382031261066357604051938401848110838211176115c8576040528251845260208301516001600160a01b03811681036106635760208501526040830151828111610663578161172391850161165b565b60408501526060830151828111610663578161174091850161165b565b606085015260808301519182116106635761175c91830161165b565b608083015260a081015160a083015260c081015160c083015260e081015160e0830152610100808201519083015261012080820151906007821015610663578301526101406117ac8183016116a0565b908301526101608082015190830152610180809101519082015290565b156117d057565b60405162461bcd60e51b815260206004820152601a60248201527f5072617a6f20646520636170746163616f20657870697261646f0000000000006044820152606490fd5b600260005414611826576002600055565b60405162461bcd60e51b815260206004820152601f60248201527f5265656e7472616e637947756172643a207265656e7472616e742063616c6c006044820152606490fd5b1561187257565b60405162461bcd60e51b8152602060048201526011602482015270457363726f77206e616f2065786973746560781b6044820152606490fd5b156118b257565b60405162461bcd60e51b815260206004820152601860248201527f457363726f77206a6120666f692066696e616c697a61646f00000000000000006044820152606490fd5b156118fe57565b60405162461bcd60e51b815260206004820152601d60248201527f56616c6f72206465766520736572206d61696f7220717565207a65726f0000006044820152606490fd5b9190820180921161195057565b634e487b7160e01b600052601160045260246000fd5b8054821015611982576000526003602060002091020190600090565b634e487b7160e01b600052603260045260246000fd5b60018060a01b031690604051604081019080821067ffffffffffffffff8311176115c857611a28916040526020938482527f5361666545524332303a206c6f772d6c6576656c2063616c6c206661696c6564858301526000808587829751910182855af13d15611abd573d91611a0d8361161c565b92611a1b60405194856115fa565b83523d868885013e611ac1565b90815190838215928315611a9b575b505050905015611a445750565b6084906040519062461bcd60e51b82526004820152602a60248201527f5361666545524332303a204552433230206f7065726174696f6e20646964206e6044820152691bdd081cdd58d8d9595960b21b6064820152fd5b8480929394500103126104ff575081611ab491016116a0565b80388381611a37565b6060915b91929015611b235750815115611ad5575090565b3b15611ade5790565b60405162461bcd60e51b815260206004820152601d60248201527f416464726573733a2063616c6c20746f206e6f6e2d636f6e74726163740000006044820152606490fd5b825190915015611b365750805190602001fd5b6044604051809262461bcd60e51b825260206004830152611b668151809281602486015260208686019101611638565b601f01601f19168101030190fd5b15611b7b57565b60405162461bcd60e51b815260206004820152601e60248201527f4170656e6173206f206172746973746120706f646520657865637574617200006044820152606490fd5b8181029291811591840414171561195057565b60405163a9059cbb60e01b60208201526001600160a01b039092166024830152604480830193909352918152608081019167ffffffffffffffff8311828410176115c857611c2392604052611998565b565b15611c2c57565b60405162461bcd60e51b815260206004820152601260248201527153616c646f20696e737566696369656e746560701b6044820152606490fdfe93e901cc5aea20ea9655887d9290a3215a5b3999c024812f4e4b749f7534349ca264697066735822122065cd3d7d71aa9b7e71883d05b1a5f78e40be4ce7a05f6477911528cd002990e664736f6c63430008130033","opcodes":"PUSH1 0x80 CALLVALUE PUSH3 0xF3 JUMPI PUSH1 0x1F PUSH3 0x1DE0 CODESIZE DUP2 SWAP1 SUB SWAP2 DUP3 ADD PUSH1 0x1F NOT AND DUP4 ADD SWAP2 PUSH1 0x1 PUSH1 0x1 PUSH1 0x40 SHL SUB DUP4 GT DUP5 DUP5 LT OR PUSH3 0xF8 JUMPI DUP1 DUP5 SWAP3 PUSH1 0x60 SWAP5 PUSH1 0x40 MSTORE DUP4 CODECOPY DUP2 ADD SUB SLT PUSH3 0xF3 JUMPI PUSH3 0x4D DUP2 PUSH3 0x10E JUMP JUMPDEST PUSH3 0x69 PUSH1 0x40 PUSH3 0x61 PUSH1 0x20 DUP6 ADD PUSH3 0x10E JUMP JUMPDEST SWAP4 ADD PUSH3 0x10E JUMP JUMPDEST PUSH1 0x1 PUSH1 0x0 DUP2 DUP2 SSTORE DUP2 SLOAD PUSH1 0x1 PUSH1 0x1 PUSH1 0xA0 SHL SUB NOT DUP1 DUP3 AND CALLER SWAP1 DUP2 OR SWAP1 SWAP5 SSTORE PUSH1 0x40 MLOAD SWAP7 SWAP1 SWAP6 PUSH1 0x1 PUSH1 0x1 PUSH1 0xA0 SHL SUB SWAP6 SWAP5 DUP7 SWAP5 SWAP3 SWAP4 DUP6 SWAP4 SWAP1 DUP5 AND SWAP1 PUSH32 0x8BE0079C531659141344CD1FD0A4F28419497F9722A3DAAFE3B4186F6B6457E0 SWAP1 DUP1 LOG3 PUSH1 0xFA PUSH1 0x5 SSTORE AND DUP6 PUSH1 0x2 SLOAD AND OR PUSH1 0x2 SSTORE AND DUP4 PUSH1 0x6 SLOAD AND OR PUSH1 0x6 SSTORE AND SWAP1 PUSH1 0x7 SLOAD AND OR PUSH1 0x7 SSTORE PUSH2 0x1CBC SWAP1 DUP2 PUSH3 0x124 DUP3 CODECOPY RETURN JUMPDEST PUSH1 0x0 DUP1 REVERT JUMPDEST PUSH4 0x4E487B71 PUSH1 0xE0 SHL PUSH1 0x0 MSTORE PUSH1 0x41 PUSH1 0x4 MSTORE PUSH1 0x24 PUSH1 0x0 REVERT JUMPDEST MLOAD SWAP1 PUSH1 0x1 PUSH1 0x1 PUSH1 0xA0 SHL SUB DUP3 AND DUP3 SUB PUSH3 0xF3 JUMPI JUMP INVALID PUSH1 0x80 PUSH1 0x40 DUP2 DUP2 MSTORE PUSH1 0x4 DUP1 CALLDATASIZE LT ISZERO PUSH2 0x15 JUMPI PUSH1 0x0 DUP1 REVERT JUMPDEST PUSH1 0x0 SWAP3 DUP4 CALLDATALOAD PUSH1 0xE0 SHR SWAP1 DUP2 PUSH4 0x12F52EE EQ PUSH2 0x14CC JUMPI POP DUP1 PUSH4 0x12E8E2C3 EQ PUSH2 0x1469 JUMPI DUP1 PUSH4 0x26232A2E EQ PUSH2 0x144A JUMPI DUP1 PUSH4 0x451C3D80 EQ PUSH2 0x1421 JUMPI DUP1 PUSH4 0x46904840 EQ PUSH2 0x13F8 JUMPI DUP1 PUSH4 0x4D68282F EQ PUSH2 0x10CC JUMPI DUP1 PUSH4 0x5312EA8E EQ PUSH2 0xFED JUMPI DUP1 PUSH4 0x5A33D8DC EQ PUSH2 0xFC4 JUMPI DUP1 PUSH4 0x61638ED5 EQ PUSH2 0xC74 JUMPI DUP1 PUSH4 0x715018A6 EQ PUSH2 0xC16 JUMPI DUP1 PUSH4 0x8DA2C873 EQ PUSH2 0x9F9 JUMPI DUP1 PUSH4 0x8DA5CB5B EQ PUSH2 0x9D0 JUMPI DUP1 PUSH4 0x8E0EAC0F EQ PUSH2 0x9A5 JUMPI DUP1 PUSH4 0x96A9D913 EQ PUSH2 0x668 JUMPI DUP1 PUSH4 0x999B6019 EQ PUSH2 0x604 JUMPI DUP4 DUP2 PUSH4 0x9EE987B2 EQ PUSH2 0x2B7 JUMPI POP DUP1 PUSH4 0xAE89AEB9 EQ PUSH2 0x241 JUMPI DUP1 PUSH4 0xE74B981B EQ PUSH2 0x1C0 JUMPI PUSH4 0xF2FDE38B EQ PUSH2 0xF6 JUMPI PUSH1 0x0 DUP1 REVERT JUMPDEST CALLVALUE PUSH2 0x1BC JUMPI PUSH1 0x20 CALLDATASIZE PUSH1 0x3 NOT ADD SLT PUSH2 0x1BC JUMPI PUSH2 0x10F PUSH2 0x1546 JUMP JUMPDEST SWAP1 PUSH2 0x118 PUSH2 0x155C JUMP JUMPDEST PUSH1 0x1 PUSH1 0x1 PUSH1 0xA0 SHL SUB SWAP2 DUP3 AND SWAP3 DUP4 ISZERO PUSH2 0x16A JUMPI POP POP PUSH1 0x1 SLOAD DUP3 PUSH1 0x1 PUSH1 0x1 PUSH1 0x60 SHL SUB PUSH1 0xA0 SHL DUP3 AND OR PUSH1 0x1 SSTORE AND PUSH32 0x8BE0079C531659141344CD1FD0A4F28419497F9722A3DAAFE3B4186F6B6457E0 PUSH1 0x0 DUP1 LOG3 DUP1 RETURN JUMPDEST SWAP1 PUSH1 0x20 PUSH1 0x84 SWAP3 MLOAD SWAP2 PUSH3 0x461BCD PUSH1 0xE5 SHL DUP4 MSTORE DUP3 ADD MSTORE PUSH1 0x26 PUSH1 0x24 DUP3 ADD MSTORE PUSH32 0x4F776E61626C653A206E6577206F776E657220697320746865207A65726F2061 PUSH1 0x44 DUP3 ADD MSTORE PUSH6 0x646472657373 PUSH1 0xD0 SHL PUSH1 0x64 DUP3 ADD MSTORE REVERT JUMPDEST DUP3 DUP1 REVERT JUMPDEST POP CALLVALUE PUSH2 0x1BC JUMPI PUSH1 0x20 CALLDATASIZE PUSH1 0x3 NOT ADD SLT PUSH2 0x1BC JUMPI PUSH2 0x1DA PUSH2 0x1546 JUMP JUMPDEST PUSH2 0x1E2 PUSH2 0x155C JUMP JUMPDEST PUSH1 0x1 PUSH1 0x1 PUSH1 0xA0 SHL SUB AND SWAP2 DUP3 ISZERO PUSH2 0x20A JUMPI POP POP PUSH1 0x1 PUSH1 0x1 PUSH1 0x60 SHL SUB PUSH1 0xA0 SHL PUSH1 0x6 SLOAD AND OR PUSH1 0x6 SSTORE DUP1 RETURN JUMPDEST SWAP1 PUSH1 0x20 PUSH1 0x64 SWAP3 MLOAD SWAP2 PUSH3 0x461BCD PUSH1 0xE5 SHL DUP4 MSTORE DUP3 ADD MSTORE PUSH1 0x11 PUSH1 0x24 DUP3 ADD MSTORE PUSH17 0x456E64657265636F20696E76616C69646F PUSH1 0x78 SHL PUSH1 0x44 DUP3 ADD MSTORE REVERT JUMPDEST POP CALLVALUE PUSH2 0x1BC JUMPI PUSH1 0x20 CALLDATASIZE PUSH1 0x3 NOT ADD SLT PUSH2 0x1BC JUMPI PUSH1 0xA0 SWAP3 DUP2 DUP4 SWAP3 CALLDATALOAD SWAP1 DUP2 DUP4 MSTORE PUSH1 0x20 MSTORE PUSH2 0x270 PUSH1 0xFF DUP5 DUP5 KECCAK256 SLOAD AND PUSH2 0x186B JUMP JUMPDEST DUP2 MSTORE PUSH1 0x3 PUSH1 0x20 MSTORE KECCAK256 SWAP1 PUSH1 0xFF PUSH1 0x1 DUP4 ADD SLOAD SWAP3 PUSH1 0x2 DUP2 ADD SLOAD SWAP3 PUSH1 0x6 PUSH1 0x3 DUP4 ADD SLOAD SWAP3 ADD SLOAD SWAP4 DUP2 MLOAD SWAP6 DUP7 MSTORE PUSH1 0x20 DUP7 ADD MSTORE DUP3 DUP3 AND ISZERO ISZERO SWAP1 DUP6 ADD MSTORE PUSH1 0x8 SHR AND ISZERO ISZERO PUSH1 0x60 DUP4 ADD MSTORE PUSH1 0x80 DUP3 ADD MSTORE RETURN JUMPDEST SWAP2 SWAP1 POP CALLVALUE PUSH2 0x600 JUMPI PUSH1 0x20 SWAP3 DUP4 PUSH1 0x3 NOT CALLDATASIZE ADD SLT PUSH2 0x1BC JUMPI DUP2 CALLDATALOAD PUSH2 0x2D7 PUSH2 0x1815 JUMP JUMPDEST DUP1 DUP5 MSTORE DUP3 DUP6 MSTORE PUSH2 0x2EC PUSH1 0xFF DUP4 DUP7 KECCAK256 SLOAD AND PUSH2 0x186B JUMP JUMPDEST PUSH1 0x2 DUP1 SLOAD DUP4 MLOAD PUSH4 0x1E1E7E59 PUSH1 0xE3 SHL DUP2 MSTORE DUP6 DUP2 ADD DUP5 SWAP1 MSTORE PUSH1 0x24 SWAP9 PUSH1 0x1 PUSH1 0x1 PUSH1 0xA0 SHL SUB SWAP9 SWAP4 SWAP6 SWAP3 DUP3 SWAP1 DUP12 SWAP1 DUP3 SWAP1 DUP13 AND GAS STATICCALL SWAP1 DUP2 ISZERO PUSH2 0x5F6 JUMPI DUP8 SWAP2 PUSH2 0x5D4 JUMPI JUMPDEST POP PUSH1 0xC0 DUP2 ADD MLOAD TIMESTAMP GT DUP1 ISZERO PUSH2 0x5BC JUMPI JUMPDEST ISZERO PUSH2 0x566 JUMPI PUSH2 0x120 ADD MLOAD SWAP7 PUSH1 0x7 SWAP8 DUP9 DUP2 LT ISZERO PUSH2 0x554 JUMPI PUSH1 0x3 EQ PUSH2 0x51E JUMPI DUP4 DUP8 MSTORE PUSH1 0x3 DUP4 MSTORE DUP2 DUP8 KECCAK256 SWAP8 PUSH1 0x3 DUP10 ADD PUSH2 0x100 DUP2 SLOAD PUSH1 0xFF DUP2 AND ISZERO DUP1 PUSH2 0x50F JUMPI JUMPDEST PUSH2 0x37D SWAP1 PUSH2 0x18AB JUMP JUMPDEST PUSH2 0xFF00 NOT AND OR SWAP1 SSTORE PUSH1 0x6 DUP9 SWAP10 ADD SWAP9 JUMPDEST DUP10 SLOAD DUP2 LT ISZERO PUSH2 0x4A4 JUMPI PUSH2 0x39F DUP2 DUP12 PUSH2 0x1966 JUMP JUMPDEST POP DUP5 MLOAD PUSH2 0x3AB DUP2 PUSH2 0x15DE JUMP JUMPDEST DUP8 DUP8 DUP7 DUP1 DUP6 SLOAD AND DUP1 DUP6 MSTORE PUSH1 0x1 DUP7 ADD SLOAD SWAP1 DUP14 DUP5 DUP8 ADD SWAP8 DUP4 DUP10 MSTORE ADD SLOAD DUP12 DUP8 ADD MSTORE DUP2 PUSH2 0x3F9 JUMPI JUMPDEST POP POP POP POP POP POP POP PUSH1 0x0 NOT DUP2 EQ PUSH2 0x3E7 JUMPI PUSH1 0x1 ADD PUSH2 0x38C JUMP JUMPDEST PUSH4 0x4E487B71 PUSH1 0xE0 SHL DUP10 MSTORE PUSH1 0x11 DUP9 MSTORE DUP11 DUP10 REVERT JUMPDEST DUP9 SLOAD DUP4 AND DUP1 PUSH2 0x471 JUMPI POP POP POP DUP14 DUP1 SWAP4 POP DUP1 SWAP3 POP DUP1 SWAP2 DUP6 MLOAD AND DUP7 MLOAD SWAP1 DUP3 DUP3 ISZERO PUSH2 0x468 JUMPI JUMPDEST CALL ISZERO PUSH2 0x45E JUMPI PUSH32 0x80B577B4FC190AB86D963549E29F496AFD079C5D81A2480D61217D4B5060A28C DUP8 DUP7 DUP11 SWAP4 JUMPDEST MLOAD AND SWAP4 MLOAD DUP9 MLOAD SWAP1 DUP2 MSTORE LOG3 CODESIZE DUP1 DUP8 DUP8 DUP7 DUP4 DUP1 PUSH2 0x3CF JUMP JUMPDEST DUP6 MLOAD RETURNDATASIZE DUP13 DUP3 RETURNDATACOPY RETURNDATASIZE SWAP1 REVERT JUMPDEST POP PUSH2 0x8FC PUSH2 0x41C JUMP JUMPDEST SWAP2 PUSH2 0x49F SWAP2 PUSH32 0x80B577B4FC190AB86D963549E29F496AFD079C5D81A2480D61217D4B5060A28C SWAP7 SWAP8 SWAP4 PUSH2 0x1BD3 JUMP JUMPDEST PUSH2 0x448 JUMP JUMPDEST DUP9 DUP1 DUP13 DUP7 DUP12 DUP11 DUP9 DUP14 SLOAD AND DUP1 EXTCODESIZE ISZERO PUSH2 0x50B JUMPI DUP6 SWAP3 DUP4 PUSH1 0x44 SWAP3 PUSH1 0x6 DUP8 MLOAD SWAP9 DUP10 SWAP7 DUP8 SWAP6 PUSH4 0xD11D498B PUSH1 0xE0 SHL DUP8 MSTORE DUP7 ADD MSTORE DUP5 ADD MSTORE GAS CALL SWAP1 DUP2 ISZERO PUSH2 0x502 JUMPI POP PUSH2 0x4EB JUMPI JUMPDEST POP PUSH1 0x1 SWAP1 SSTORE DUP1 RETURN JUMPDEST PUSH2 0x4F4 SWAP1 PUSH2 0x15B4 JUMP JUMPDEST PUSH2 0x4FF JUMPI DUP1 DUP3 PUSH2 0x4E3 JUMP JUMPDEST DUP1 REVERT JUMPDEST MLOAD RETURNDATASIZE DUP5 DUP3 RETURNDATACOPY RETURNDATASIZE SWAP1 REVERT JUMPDEST DUP6 DUP1 REVERT JUMPDEST POP PUSH1 0x8 DUP2 SWAP1 SHR PUSH1 0xFF AND ISZERO PUSH2 0x374 JUMP JUMPDEST DUP2 MLOAD PUSH3 0x461BCD PUSH1 0xE5 SHL DUP2 MSTORE DUP1 DUP8 ADD DUP5 SWAP1 MSTORE PUSH1 0x11 DUP2 DUP12 ADD MSTORE PUSH17 0x4D65746120666F69206174696E67696461 PUSH1 0x78 SHL PUSH1 0x44 DUP3 ADD MSTORE PUSH1 0x64 SWAP1 REVERT JUMPDEST PUSH4 0x4E487B71 PUSH1 0xE0 SHL DUP9 MSTORE PUSH1 0x21 DUP8 MSTORE DUP10 DUP9 REVERT JUMPDEST DUP2 MLOAD PUSH3 0x461BCD PUSH1 0xE5 SHL DUP2 MSTORE DUP1 DUP8 ADD DUP5 SWAP1 MSTORE PUSH1 0x2B DUP2 DUP12 ADD MSTORE PUSH32 0x5072617A6F206E616F20657870697261646F206F752070726F6A65746F206E61 PUSH1 0x44 DUP3 ADD MSTORE PUSH11 0x6F2063616E63656C61646F PUSH1 0xA8 SHL PUSH1 0x64 DUP3 ADD MSTORE PUSH1 0x84 SWAP1 REVERT JUMPDEST POP PUSH2 0x120 DUP2 ADD MLOAD PUSH1 0x7 DUP2 LT ISZERO PUSH2 0x554 JUMPI PUSH1 0x6 EQ PUSH2 0x338 JUMP JUMPDEST PUSH2 0x5F0 SWAP2 POP RETURNDATASIZE DUP1 DUP10 DUP4 RETURNDATACOPY PUSH2 0x5E8 DUP2 DUP4 PUSH2 0x15FA JUMP JUMPDEST DUP2 ADD SWAP1 PUSH2 0x16AD JUMP JUMPDEST CODESIZE PUSH2 0x329 JUMP JUMPDEST DUP3 MLOAD RETURNDATASIZE DUP10 DUP3 RETURNDATACOPY RETURNDATASIZE SWAP1 REVERT JUMPDEST POP DUP1 REVERT JUMPDEST POP CALLVALUE PUSH2 0x1BC JUMPI DUP2 PUSH1 0x3 NOT CALLDATASIZE ADD SLT PUSH2 0x1BC JUMPI PUSH1 0x24 CALLDATALOAD PUSH1 0x1 PUSH1 0x1 PUSH1 0xA0 SHL SUB DUP2 AND SWAP2 DUP1 CALLDATALOAD SWAP2 DUP4 SWAP1 SUB PUSH2 0x663 JUMPI DUP5 DUP3 DUP6 SWAP3 PUSH1 0x5 SWAP5 PUSH1 0x20 SWAP9 MSTORE DUP8 MSTORE PUSH2 0x649 PUSH1 0xFF DUP5 DUP5 KECCAK256 SLOAD AND PUSH2 0x186B JUMP JUMPDEST DUP2 MSTORE PUSH1 0x3 DUP7 MSTORE KECCAK256 ADD SWAP1 PUSH1 0x0 MSTORE DUP3 MSTORE DUP1 PUSH1 0x0 KECCAK256 SLOAD SWAP1 MLOAD SWAP1 DUP2 MSTORE RETURN JUMPDEST PUSH1 0x0 DUP1 REVERT JUMPDEST POP SWAP1 CALLVALUE PUSH2 0x1BC JUMPI PUSH2 0x678 CALLDATASIZE PUSH2 0x1530 JUMP JUMPDEST SWAP2 PUSH2 0x681 PUSH2 0x1815 JUMP JUMPDEST DUP2 DUP6 MSTORE PUSH1 0x20 SWAP3 DUP5 DUP5 MSTORE PUSH2 0x699 PUSH1 0xFF DUP4 DUP9 KECCAK256 SLOAD AND PUSH2 0x186B JUMP JUMPDEST PUSH1 0x1 DUP1 PUSH1 0xA0 SHL SUB DUP1 PUSH1 0x2 SLOAD AND SWAP6 DUP4 MLOAD SWAP3 PUSH4 0x1E1E7E59 PUSH1 0xE3 SHL DUP1 DUP6 MSTORE DUP7 DUP4 DUP7 ADD MSTORE PUSH1 0x24 SWAP5 DUP11 DUP2 DUP8 DUP2 DUP14 GAS STATICCALL SWAP1 DUP12 DUP3 ISZERO PUSH2 0x99A JUMPI PUSH2 0x6E6 SWAP3 DUP8 SWAP3 DUP3 DUP14 SWAP4 SWAP3 PUSH2 0x97F JUMPI JUMPDEST POP POP ADD MLOAD AND CALLER EQ PUSH2 0x1B74 JUMP JUMPDEST DUP2 ISZERO ISZERO DUP1 PUSH2 0x973 JUMPI JUMPDEST ISZERO PUSH2 0x93A JUMPI DUP10 SWAP1 DUP6 DUP8 MLOAD DUP1 SWAP12 DUP2 SWAP4 DUP3 MSTORE DUP11 DUP8 DUP4 ADD MSTORE GAS STATICCALL SWAP8 DUP9 ISZERO PUSH2 0x930 JUMPI DUP10 SWAP9 PUSH2 0x914 JUMPI JUMPDEST POP PUSH2 0x120 DUP9 ADD MLOAD PUSH1 0x7 DUP2 LT ISZERO PUSH2 0x902 JUMPI DUP3 SUB PUSH2 0x8C0 JUMPI DUP6 DUP10 MSTORE PUSH1 0x3 DUP8 MSTORE DUP5 DUP10 KECCAK256 PUSH1 0xFF PUSH1 0x3 DUP3 ADD SLOAD AND ISZERO PUSH2 0x86B JUMPI PUSH2 0x755 DUP11 SWAP5 SWAP4 SWAP3 PUSH1 0x1 PUSH2 0x2710 SWAP4 ADD SLOAD PUSH2 0x1BC0 JUMP JUMPDEST DIV SWAP4 DUP3 PUSH1 0x7 SLOAD AND SWAP2 DUP3 ISZERO PUSH1 0x0 EQ PUSH2 0x7CB JUMPI POP POP POP PUSH2 0x775 DUP4 SELFBALANCE LT ISZERO PUSH2 0x1C25 JUMP JUMPDEST DUP2 DUP1 DUP1 DUP1 DUP7 DUP6 DUP12 DUP14 ADD MLOAD AND DUP3 DUP3 ISZERO PUSH2 0x7C2 JUMPI JUMPDEST CALL ISZERO PUSH2 0x7B6 JUMPI DUP6 PUSH1 0x0 DUP1 MLOAD PUSH1 0x20 PUSH2 0x1C67 DUP4 CODECOPY DUP2 MLOAD SWAP2 MSTORE SWAP6 SWAP7 SWAP8 JUMPDEST ADD MLOAD AND SWAP6 DUP4 MLOAD SWAP3 DUP4 MSTORE DUP3 ADD MSTORE LOG3 PUSH1 0x1 DUP2 SSTORE DUP1 RETURN JUMPDEST POP DUP3 MLOAD SWAP1 RETURNDATASIZE SWAP1 DUP3 RETURNDATACOPY RETURNDATASIZE SWAP1 REVERT JUMPDEST POP PUSH2 0x8FC PUSH2 0x788 JUMP JUMPDEST SWAP8 DUP1 SWAP10 SWAP8 SWAP9 DUP8 MLOAD SWAP3 DUP4 SWAP2 PUSH4 0x70A08231 PUSH1 0xE0 SHL DUP4 MSTORE ADDRESS SWAP1 DUP4 ADD MSTORE DUP2 DUP6 GAS STATICCALL SWAP1 DUP2 ISZERO PUSH2 0x861 JUMPI SWAP1 DUP10 SWAP3 SWAP2 DUP6 SWAP2 PUSH2 0x82D JUMPI JUMPDEST POP DUP6 PUSH1 0x0 DUP1 MLOAD PUSH1 0x20 PUSH2 0x1C67 DUP4 CODECOPY DUP2 MLOAD SWAP2 MSTORE SWAP9 SWAP3 PUSH2 0x81C DUP3 PUSH2 0x828 SWAP5 LT ISZERO PUSH2 0x1C25 JUMP JUMPDEST DUP6 DUP6 DUP6 ADD MLOAD AND SWAP1 PUSH2 0x1BD3 JUMP JUMPDEST PUSH2 0x7A2 JUMP JUMPDEST SWAP3 DUP1 SWAP3 SWAP6 POP DUP4 SWAP2 POP RETURNDATASIZE DUP4 GT PUSH2 0x85A JUMPI JUMPDEST PUSH2 0x847 DUP2 DUP4 PUSH2 0x15FA JUMP JUMPDEST DUP2 ADD SUB SLT PUSH2 0x663 JUMPI MLOAD DUP9 SWAP3 DUP9 SWAP2 DUP6 PUSH2 0x7FA JUMP JUMPDEST POP RETURNDATASIZE PUSH2 0x83D JUMP JUMPDEST DUP7 MLOAD RETURNDATASIZE DUP7 DUP3 RETURNDATACOPY RETURNDATASIZE SWAP1 REVERT JUMPDEST DUP6 MLOAD PUSH3 0x461BCD PUSH1 0xE5 SHL DUP2 MSTORE DUP1 DUP5 ADD DUP10 SWAP1 MSTORE PUSH1 0x2A DUP2 DUP8 ADD MSTORE PUSH32 0x46756E646F73207072696E63697061697320646576656D20746572207369646F PUSH1 0x44 DUP3 ADD MSTORE PUSH10 0x206C6962657261646F73 PUSH1 0xB0 SHL PUSH1 0x64 DUP3 ADD MSTORE PUSH1 0x84 SWAP1 REVERT JUMPDEST DUP5 MLOAD PUSH3 0x461BCD PUSH1 0xE5 SHL DUP2 MSTORE DUP1 DUP4 ADD DUP9 SWAP1 MSTORE PUSH1 0x18 DUP2 DUP7 ADD MSTORE PUSH32 0x50726F6A65746F206465766520657374617220617469766F0000000000000000 PUSH1 0x44 DUP3 ADD MSTORE PUSH1 0x64 SWAP1 REVERT JUMPDEST PUSH4 0x4E487B71 PUSH1 0xE0 SHL DUP11 MSTORE PUSH1 0x21 DUP4 MSTORE DUP5 DUP11 REVERT JUMPDEST PUSH2 0x929 SWAP2 SWAP9 POP RETURNDATASIZE DUP1 DUP12 DUP4 RETURNDATACOPY PUSH2 0x5E8 DUP2 DUP4 PUSH2 0x15FA JUMP JUMPDEST SWAP7 CODESIZE PUSH2 0x714 JUMP JUMPDEST DUP6 MLOAD RETURNDATASIZE DUP12 DUP3 RETURNDATACOPY RETURNDATASIZE SWAP1 REVERT JUMPDEST DUP6 MLOAD PUSH3 0x461BCD PUSH1 0xE5 SHL DUP2 MSTORE DUP1 DUP5 ADD DUP10 SWAP1 MSTORE PUSH1 0x14 DUP2 DUP8 ADD MSTORE PUSH20 0x506F7263656E746167656D20696E76616C696461 PUSH1 0x60 SHL PUSH1 0x44 DUP3 ADD MSTORE PUSH1 0x64 SWAP1 REVERT JUMPDEST POP PUSH2 0x2710 DUP3 GT ISZERO PUSH2 0x6EF JUMP JUMPDEST PUSH2 0x993 SWAP3 POP RETURNDATASIZE DUP1 SWAP2 DUP4 RETURNDATACOPY PUSH2 0x5E8 DUP2 DUP4 PUSH2 0x15FA JUMP JUMPDEST CODESIZE DUP15 PUSH2 0x6DA JUMP JUMPDEST DUP9 MLOAD SWAP1 RETURNDATASIZE SWAP1 DUP3 RETURNDATACOPY RETURNDATASIZE SWAP1 REVERT JUMPDEST POP CALLVALUE PUSH2 0x1BC JUMPI PUSH1 0x20 CALLDATASIZE PUSH1 0x3 NOT ADD SLT PUSH2 0x1BC JUMPI DUP2 PUSH1 0x20 SWAP4 DUP3 PUSH1 0xFF SWAP4 CALLDATALOAD DUP3 MSTORE DUP6 MSTORE KECCAK256 SLOAD AND SWAP1 MLOAD SWAP1 ISZERO ISZERO DUP2 MSTORE RETURN JUMPDEST POP POP CALLVALUE PUSH2 0x600 JUMPI DUP2 PUSH1 0x3 NOT CALLDATASIZE ADD SLT PUSH2 0x600 JUMPI PUSH1 0x1 SLOAD SWAP1 MLOAD PUSH1 0x1 PUSH1 0x1 PUSH1 0xA0 SHL SUB SWAP1 SWAP2 AND DUP2 MSTORE PUSH1 0x20 SWAP1 RETURN JUMPDEST POP CALLVALUE PUSH2 0x1BC JUMPI PUSH1 0x20 SWAP1 DUP2 PUSH1 0x3 NOT CALLDATASIZE ADD SLT PUSH2 0xC12 JUMPI DUP1 CALLDATALOAD SWAP2 PUSH2 0xA18 PUSH2 0x1815 JUMP JUMPDEST DUP3 DUP6 MSTORE DUP2 DUP2 MSTORE PUSH1 0xFF DUP5 DUP7 KECCAK256 SLOAD AND PUSH2 0xBDD JUMPI PUSH1 0x2 SLOAD DUP5 MLOAD PUSH4 0x1E1E7E59 PUSH1 0xE3 SHL DUP2 MSTORE DUP4 DUP2 ADD DUP6 SWAP1 MSTORE SWAP1 PUSH1 0x1 PUSH1 0x1 PUSH1 0xA0 SHL SUB SWAP1 DUP8 SWAP1 DUP4 SWAP1 PUSH1 0x24 SWAP1 DUP3 SWAP1 DUP6 AND GAS STATICCALL SWAP2 DUP3 ISZERO PUSH2 0xBD3 JUMPI DUP8 SWAP3 PUSH2 0xBB7 JUMPI JUMPDEST POP PUSH2 0x120 DUP3 ADD MLOAD PUSH1 0x7 DUP2 LT ISZERO PUSH2 0xBA4 JUMPI PUSH1 0x1 SUB PUSH2 0xB61 JUMPI PUSH2 0xA89 PUSH1 0xC0 DUP4 ADD MLOAD TIMESTAMP LT PUSH2 0x17C9 JUMP JUMPDEST DUP5 DUP8 MSTORE PUSH1 0x3 DUP4 MSTORE DUP7 DUP7 DUP2 KECCAK256 SWAP5 DUP7 DUP7 SSTORE DUP2 PUSH1 0x1 DUP8 ADD SSTORE PUSH1 0xA0 DUP5 ADD SWAP6 DUP7 MLOAD PUSH1 0x2 DUP3 ADD SSTORE PUSH1 0x3 DUP2 ADD PUSH2 0xFFFF NOT DUP2 SLOAD AND SWAP1 SSTORE DUP2 TIMESTAMP SWAP2 ADD SSTORE DUP1 DUP6 MSTORE DUP8 DUP3 KECCAK256 PUSH1 0x1 PUSH1 0xFF NOT DUP3 SLOAD AND OR SWAP1 SSTORE DUP3 PUSH1 0x2 SLOAD AND SWAP1 DUP2 EXTCODESIZE ISZERO PUSH2 0x1BC JUMPI DUP8 PUSH1 0x44 DUP5 SWAP3 DUP4 DUP13 MLOAD SWAP6 DUP7 SWAP5 DUP6 SWAP4 PUSH4 0xD11D498B PUSH1 0xE0 SHL DUP6 MSTORE DUP5 ADD MSTORE PUSH1 0x2 PUSH1 0x24 DUP5 ADD MSTORE GAS CALL DUP1 ISZERO PUSH2 0xB57 JUMPI PUSH2 0xB3F JUMPI JUMPDEST POP POP DUP3 PUSH32 0x4C98E229E2F01F3E7DE1E15F4599733605128275CAC56F442301B55975B538BC SWAP5 MLOAD SWAP3 ADD MLOAD AND SWAP5 MLOAD SWAP1 DUP2 MSTORE LOG3 PUSH1 0x1 DUP2 SSTORE DUP1 RETURN JUMPDEST PUSH2 0xB48 SWAP1 PUSH2 0x15B4 JUMP JUMPDEST PUSH2 0xB53 JUMPI DUP7 CODESIZE PUSH2 0xB08 JUMP JUMPDEST DUP7 DUP1 REVERT JUMPDEST DUP9 MLOAD RETURNDATASIZE DUP5 DUP3 RETURNDATACOPY RETURNDATASIZE SWAP1 REVERT JUMPDEST DUP6 MLOAD PUSH3 0x461BCD PUSH1 0xE5 SHL DUP2 MSTORE DUP1 DUP6 ADD DUP5 SWAP1 MSTORE PUSH1 0x1B PUSH1 0x24 DUP3 ADD MSTORE PUSH32 0x50726F6A65746F2064657665206573746172206170726F7661646F0000000000 PUSH1 0x44 DUP3 ADD MSTORE PUSH1 0x64 SWAP1 REVERT JUMPDEST PUSH4 0x4E487B71 PUSH1 0xE0 SHL DUP9 MSTORE PUSH1 0x21 DUP6 MSTORE PUSH1 0x24 DUP9 REVERT JUMPDEST PUSH2 0xBCC SWAP2 SWAP3 POP RETURNDATASIZE DUP1 DUP10 DUP4 RETURNDATACOPY PUSH2 0x5E8 DUP2 DUP4 PUSH2 0x15FA JUMP JUMPDEST SWAP1 CODESIZE PUSH2 0xA63 JUMP JUMPDEST DUP7 MLOAD RETURNDATASIZE DUP10 DUP3 RETURNDATACOPY RETURNDATASIZE SWAP1 REVERT JUMPDEST DUP4 MLOAD PUSH3 0x461BCD PUSH1 0xE5 SHL DUP2 MSTORE SWAP2 DUP3 ADD MSTORE PUSH1 0x10 PUSH1 0x24 DUP3 ADD MSTORE PUSH16 0x457363726F77206A6120657869737465 PUSH1 0x80 SHL PUSH1 0x44 DUP3 ADD MSTORE PUSH1 0x64 SWAP2 POP REVERT JUMPDEST DUP4 DUP1 REVERT JUMPDEST DUP4 CALLVALUE PUSH2 0x4FF JUMPI DUP1 PUSH1 0x3 NOT CALLDATASIZE ADD SLT PUSH2 0x4FF JUMPI PUSH2 0xC2F PUSH2 0x155C JUMP JUMPDEST PUSH1 0x1 DUP1 SLOAD PUSH1 0x1 PUSH1 0x1 PUSH1 0xA0 SHL SUB NOT DUP2 AND SWAP1 SWAP2 SSTORE PUSH1 0x0 SWAP1 PUSH1 0x1 PUSH1 0x1 PUSH1 0xA0 SHL SUB AND PUSH32 0x8BE0079C531659141344CD1FD0A4F28419497F9722A3DAAFE3B4186F6B6457E0 DUP3 DUP1 LOG3 DUP1 RETURN JUMPDEST POP PUSH2 0xC7E CALLDATASIZE PUSH2 0x1530 JUMP JUMPDEST SWAP2 SWAP1 SWAP3 PUSH2 0xC89 PUSH2 0x1815 JUMP JUMPDEST DUP4 DUP6 MSTORE DUP5 PUSH1 0x20 SWAP3 DUP1 DUP5 MSTORE PUSH2 0xCA2 PUSH1 0xFF DUP5 DUP5 KECCAK256 SLOAD AND PUSH2 0x186B JUMP JUMPDEST PUSH1 0x2 SLOAD DUP4 MLOAD PUSH4 0x1E1E7E59 PUSH1 0xE3 SHL DUP2 MSTORE DUP3 DUP2 ADD DUP9 SWAP1 MSTORE PUSH1 0x24 SWAP4 PUSH1 0x1 PUSH1 0x1 PUSH1 0xA0 SHL SUB SWAP3 DUP3 SWAP1 DUP7 SWAP1 DUP3 SWAP1 DUP7 AND GAS STATICCALL SWAP1 DUP2 ISZERO PUSH2 0x930 JUMPI DUP10 SWAP2 PUSH2 0xFAA JUMPI JUMPDEST POP PUSH2 0x120 DUP2 ADD MLOAD PUSH1 0x7 DUP2 LT ISZERO PUSH2 0xF98 JUMPI PUSH1 0x2 SUB PUSH2 0xF56 JUMPI PUSH1 0xC0 PUSH2 0xD01 SWAP2 ADD MLOAD TIMESTAMP LT PUSH2 0x17C9 JUMP JUMPDEST DUP7 DUP9 MSTORE PUSH1 0x3 DUP6 MSTORE DUP4 DUP9 KECCAK256 SWAP6 PUSH2 0xD26 PUSH1 0x3 DUP9 ADD SLOAD PUSH1 0xFF DUP2 AND ISZERO SWAP1 DUP2 PUSH2 0xF47 JUMPI JUMPDEST POP PUSH2 0x18AB JUMP JUMPDEST PUSH1 0x7 SLOAD DUP3 AND SWAP1 DUP2 PUSH2 0xEDB JUMPI POP POP CALLVALUE PUSH2 0xD3F DUP2 ISZERO ISZERO PUSH2 0x18F7 JUMP JUMPDEST CALLER PUSH1 0x0 MSTORE PUSH1 0x5 DUP8 ADD DUP7 MSTORE DUP5 PUSH1 0x0 KECCAK256 PUSH2 0xD58 DUP3 DUP3 SLOAD PUSH2 0x1943 JUMP JUMPDEST SWAP1 SSTORE PUSH1 0x1 DUP8 ADD SWAP7 PUSH2 0xD6A DUP3 DUP10 SLOAD PUSH2 0x1943 JUMP JUMPDEST DUP9 SSTORE DUP6 MLOAD PUSH1 0x6 DUP3 ADD PUSH2 0xD7B DUP3 PUSH2 0x15DE JUMP JUMPDEST CALLER DUP3 MSTORE DUP9 DUP3 ADD DUP5 DUP2 MSTORE DUP9 DUP4 ADD SWAP2 TIMESTAMP DUP4 MSTORE DUP1 SLOAD SWAP1 PUSH9 0x10000000000000000 DUP3 LT ISZERO PUSH2 0xEC9 JUMPI SWAP1 PUSH2 0xDAF SWAP2 PUSH1 0x1 DUP3 ADD DUP2 SSTORE PUSH2 0x1966 JUMP JUMPDEST SWAP4 SWAP1 SWAP4 PUSH2 0xEB8 JUMPI DUP7 SWAP6 SWAP5 SWAP3 PUSH1 0x2 SWAP5 SWAP3 DUP16 SWAP11 SWAP10 SWAP9 DUP7 SWAP4 MLOAD AND PUSH1 0x1 PUSH1 0x1 PUSH1 0x60 SHL SUB PUSH1 0xA0 SHL DUP6 SLOAD AND OR DUP5 SSTORE MLOAD PUSH1 0x1 DUP5 ADD SSTORE MLOAD SWAP2 ADD SSTORE DUP10 SLOAD SWAP3 DUP9 MLOAD SWAP1 DUP2 MSTORE DUP4 DUP11 DUP3 ADD MSTORE DUP12 PUSH32 0x1C5831173620D6383A8570C099431DFB1EB2FCAFEB44302976ED2CFECC4B788B DUP11 CALLER SWAP4 LOG3 ADD SLOAD GT ISZERO PUSH2 0xE25 JUMPI JUMPDEST DUP4 PUSH1 0x1 DUP2 SSTORE DUP1 RETURN JUMPDEST PUSH1 0x2 SLOAD AND SWAP1 DUP2 EXTCODESIZE ISZERO PUSH2 0xC12 JUMPI PUSH1 0x44 DUP9 SWAP2 DUP6 DUP1 SWAP5 PUSH1 0x3 DUP10 MLOAD SWAP8 DUP9 SWAP7 DUP8 SWAP6 PUSH4 0xD11D498B PUSH1 0xE0 SHL DUP8 MSTORE DUP7 ADD MSTORE DUP5 ADD MSTORE GAS CALL DUP1 ISZERO PUSH2 0xEAE JUMPI PUSH2 0xE96 JUMPI JUMPDEST POP POP PUSH32 0x85B3ED4E45559C5F41FB220AA4AC86A440DFC741F219089DE694242940AAA09C SWAP3 SLOAD SWAP1 MLOAD SWAP1 DUP2 MSTORE LOG2 CODESIZE DUP1 DUP1 DUP1 DUP5 DUP2 DUP1 DUP1 PUSH2 0xE1D JUMP JUMPDEST PUSH2 0xE9F SWAP1 PUSH2 0x15B4 JUMP JUMPDEST PUSH2 0xEAA JUMPI DUP5 CODESIZE PUSH2 0xE5E JUMP JUMPDEST DUP5 DUP1 REVERT JUMPDEST DUP4 MLOAD RETURNDATASIZE DUP5 DUP3 RETURNDATACOPY RETURNDATASIZE SWAP1 REVERT JUMPDEST PUSH4 0x4E487B71 PUSH1 0xE0 SHL DUP15 MSTORE DUP14 DUP9 MSTORE DUP9 DUP15 REVERT JUMPDEST PUSH4 0x4E487B71 PUSH1 0xE0 SHL DUP16 MSTORE PUSH1 0x41 DUP10 MSTORE DUP10 DUP16 REVERT JUMPDEST DUP1 SWAP2 PUSH2 0xEE8 DUP3 ISZERO ISZERO PUSH2 0x18F7 JUMP JUMPDEST DUP7 MLOAD SWAP2 PUSH4 0x23B872DD PUSH1 0xE0 SHL DUP10 DUP5 ADD MSTORE CALLER DUP8 DUP5 ADD MSTORE ADDRESS PUSH1 0x44 DUP5 ADD MSTORE PUSH1 0x64 DUP4 ADD MSTORE PUSH1 0x64 DUP3 MSTORE PUSH1 0xA0 DUP3 ADD DUP3 DUP2 LT PUSH8 0xFFFFFFFFFFFFFFFF DUP3 GT OR PUSH2 0xF33 JUMPI DUP8 MSTORE PUSH2 0xF2E SWAP2 SWAP1 PUSH2 0x1998 JUMP JUMPDEST PUSH2 0xD3F JUMP JUMPDEST DUP7 PUSH1 0x41 DUP8 PUSH4 0x4E487B71 PUSH1 0xE0 SHL PUSH1 0x0 MSTORE MSTORE PUSH1 0x0 REVERT JUMPDEST PUSH1 0xFF SWAP2 POP PUSH1 0x8 SHR AND ISZERO CODESIZE PUSH2 0xD20 JUMP JUMPDEST DUP5 MLOAD PUSH3 0x461BCD PUSH1 0xE5 SHL DUP2 MSTORE DUP1 DUP5 ADD DUP8 SWAP1 MSTORE PUSH1 0x1E DUP2 DUP7 ADD MSTORE PUSH32 0x50726F6A65746F206465766520657374617220656D20636170746163616F0000 PUSH1 0x44 DUP3 ADD MSTORE PUSH1 0x64 SWAP1 REVERT JUMPDEST PUSH4 0x4E487B71 PUSH1 0xE0 SHL DUP11 MSTORE PUSH1 0x21 DUP5 MSTORE DUP5 DUP11 REVERT JUMPDEST PUSH2 0xFBE SWAP2 POP RETURNDATASIZE DUP1 DUP12 DUP4 RETURNDATACOPY PUSH2 0x5E8 DUP2 DUP4 PUSH2 0x15FA JUMP JUMPDEST CODESIZE PUSH2 0xCDB JUMP JUMPDEST POP POP CALLVALUE PUSH2 0x600 JUMPI DUP2 PUSH1 0x3 NOT CALLDATASIZE ADD SLT PUSH2 0x600 JUMPI PUSH1 0x2 SLOAD SWAP1 MLOAD PUSH1 0x1 PUSH1 0x1 PUSH1 0xA0 SHL SUB SWAP1 SWAP2 AND DUP2 MSTORE PUSH1 0x20 SWAP1 RETURN JUMPDEST POP SWAP1 CALLVALUE PUSH2 0x1BC JUMPI PUSH1 0x20 CALLDATASIZE PUSH1 0x3 NOT ADD SLT PUSH2 0x1BC JUMPI PUSH2 0x1008 PUSH2 0x155C JUMP JUMPDEST PUSH1 0x7 SLOAD PUSH1 0x1 PUSH1 0x1 PUSH1 0xA0 SHL SUB SWAP3 DUP5 SWAP2 DUP5 AND DUP1 PUSH2 0x104F JUMPI POP POP DUP1 DUP1 DUP1 SWAP4 SWAP5 PUSH1 0x1 SLOAD AND SELFBALANCE SWAP1 DUP3 DUP3 ISZERO PUSH2 0x1046 JUMPI JUMPDEST CALL ISZERO PUSH2 0x103C JUMPI POP DUP1 RETURN JUMPDEST MLOAD SWAP1 RETURNDATASIZE SWAP1 DUP3 RETURNDATACOPY RETURNDATASIZE SWAP1 REVERT JUMPDEST POP PUSH2 0x8FC PUSH2 0x1032 JUMP JUMPDEST SWAP2 POP SWAP3 PUSH1 0x1 SLOAD AND SWAP1 DUP3 MLOAD SWAP4 PUSH4 0x70A08231 PUSH1 0xE0 SHL DUP6 MSTORE ADDRESS SWAP1 DUP6 ADD MSTORE PUSH1 0x20 DUP5 PUSH1 0x24 DUP2 DUP5 GAS STATICCALL SWAP3 DUP4 ISZERO PUSH2 0x10C3 JUMPI POP DUP5 SWAP3 PUSH2 0x108E JUMPI JUMPDEST PUSH2 0x108B SWAP4 POP PUSH2 0x1BD3 JUMP JUMPDEST DUP1 RETURN JUMPDEST SWAP2 POP PUSH1 0x20 DUP4 RETURNDATASIZE DUP3 GT PUSH2 0x10BB JUMPI JUMPDEST DUP2 PUSH2 0x10A8 PUSH1 0x20 SWAP4 DUP4 PUSH2 0x15FA JUMP JUMPDEST DUP2 ADD SUB SLT PUSH2 0x663 JUMPI PUSH2 0x108B SWAP3 MLOAD SWAP2 PUSH2 0x1081 JUMP JUMPDEST RETURNDATASIZE SWAP2 POP PUSH2 0x109B JUMP JUMPDEST MLOAD RETURNDATASIZE DUP7 DUP3 RETURNDATACOPY RETURNDATASIZE SWAP1 REVERT JUMPDEST POP SWAP2 SWAP1 CALLVALUE PUSH2 0x600 JUMPI PUSH1 0x20 SWAP1 DUP2 PUSH1 0x3 NOT CALLDATASIZE ADD SLT PUSH2 0x1BC JUMPI DUP4 CALLDATALOAD SWAP1 PUSH2 0x10ED PUSH2 0x1815 JUMP JUMPDEST DUP2 DUP5 MSTORE DUP5 DUP4 MSTORE PUSH2 0x1102 PUSH1 0xFF DUP3 DUP7 KECCAK256 SLOAD AND PUSH2 0x186B JUMP JUMPDEST PUSH1 0x1 DUP1 PUSH1 0xA0 SHL SUB DUP1 PUSH1 0x2 SLOAD AND SWAP6 DUP3 MLOAD SWAP2 PUSH4 0x1E1E7E59 PUSH1 0xE3 SHL DUP1 DUP5 MSTORE DUP6 DUP4 DUP6 ADD MSTORE PUSH1 0x24 SWAP4 DUP9 DUP2 DUP7 DUP2 DUP14 GAS STATICCALL SWAP1 DUP2 ISZERO PUSH2 0x12B3 JUMPI DUP4 DUP10 DUP12 SWAP5 SWAP4 PUSH2 0x114E SWAP4 DUP7 SWAP2 PUSH2 0x13DE JUMPI JUMPDEST POP ADD MLOAD AND CALLER EQ PUSH2 0x1B74 JUMP JUMPDEST DUP5 DUP7 MLOAD DUP1 SWAP12 DUP2 SWAP4 DUP3 MSTORE DUP10 DUP8 DUP4 ADD MSTORE GAS STATICCALL SWAP8 DUP9 ISZERO PUSH2 0x13D4 JUMPI DUP8 SWAP9 PUSH2 0x13B8 JUMPI JUMPDEST POP PUSH2 0x120 DUP9 ADD MLOAD PUSH1 0x7 DUP2 LT ISZERO PUSH2 0x13A6 JUMPI PUSH1 0x3 SUB PUSH2 0x1365 JUMPI DUP5 DUP8 MSTORE PUSH1 0x3 DUP7 MSTORE DUP4 DUP8 KECCAK256 PUSH1 0x3 DUP2 ADD DUP1 SLOAD PUSH1 0xFF DUP2 AND ISZERO DUP1 PUSH2 0x1357 JUMPI JUMPDEST ISZERO PUSH2 0x1303 JUMPI SWAP1 PUSH1 0x1 DUP1 SWAP4 SWAP3 PUSH1 0xFF NOT AND OR SWAP1 SSTORE ADD SLOAD SWAP3 PUSH2 0x2710 PUSH2 0x11C2 PUSH1 0x5 SLOAD DUP7 PUSH2 0x1BC0 JUMP JUMPDEST DIV SWAP3 DUP4 DUP6 SUB SWAP5 DUP1 DUP7 GT PUSH2 0x12F1 JUMPI DUP5 DUP5 PUSH1 0x7 SLOAD AND DUP1 ISZERO PUSH1 0x0 EQ PUSH2 0x12C6 JUMPI POP DUP11 DUP1 DUP1 DUP1 SWAP4 DUP9 PUSH1 0x6 SLOAD AND DUP3 DUP3 ISZERO PUSH2 0x12BD JUMPI JUMPDEST CALL ISZERO PUSH2 0x12B3 JUMPI DUP10 DUP1 DUP1 DUP9 DUP2 SWAP5 DUP16 DUP15 DUP11 SWAP2 ADD MLOAD AND SWAP1 DUP11 DUP5 SWAP2 EQ PUSH2 0x12AA JUMPI JUMPDEST CALL ISZERO PUSH2 0x129C JUMPI JUMPDEST DUP3 PUSH1 0x2 SLOAD AND SWAP2 DUP3 EXTCODESIZE ISZERO PUSH2 0x12A6 JUMPI SWAP1 PUSH1 0x44 DUP11 SWAP3 DUP4 DUP10 MLOAD SWAP6 DUP7 SWAP5 DUP6 SWAP4 PUSH4 0xD11D498B PUSH1 0xE0 SHL DUP6 MSTORE DUP14 DUP3 DUP7 ADD MSTORE DUP5 ADD MSTORE GAS CALL DUP1 ISZERO PUSH2 0x129C JUMPI PUSH2 0x1277 JUMPI JUMPDEST POP DUP6 PUSH1 0x0 DUP1 MLOAD PUSH1 0x20 PUSH2 0x1C67 DUP4 CODECOPY DUP2 MLOAD SWAP2 MSTORE SWAP6 SWAP7 SWAP8 SWAP9 ADD MLOAD AND SWAP6 DUP4 MLOAD SWAP3 DUP4 MSTORE DUP3 ADD MSTORE LOG3 PUSH1 0x1 DUP2 SSTORE DUP1 RETURN JUMPDEST SWAP6 DUP1 SWAP8 PUSH2 0x1293 PUSH1 0x0 DUP1 MLOAD PUSH1 0x20 PUSH2 0x1C67 DUP4 CODECOPY DUP2 MLOAD SWAP2 MSTORE SWAP8 SWAP9 PUSH2 0x15B4 JUMP JUMPDEST SWAP8 SWAP7 SWAP6 POP PUSH2 0x124E JUMP JUMPDEST DUP6 MLOAD RETURNDATASIZE DUP11 DUP3 RETURNDATACOPY RETURNDATASIZE SWAP1 REVERT JUMPDEST DUP10 DUP1 REVERT JUMPDEST POP PUSH2 0x8FC PUSH2 0x120E JUMP JUMPDEST DUP7 MLOAD RETURNDATASIZE DUP12 DUP3 RETURNDATACOPY RETURNDATASIZE SWAP1 REVERT JUMPDEST POP PUSH2 0x8FC PUSH2 0x11F1 JUMP JUMPDEST PUSH2 0x12D6 SWAP3 POP DUP6 PUSH1 0x6 SLOAD AND SWAP1 PUSH2 0x1BD3 JUMP JUMPDEST PUSH2 0x12EC DUP6 DUP12 DUP6 DUP12 DUP2 PUSH1 0x7 SLOAD AND SWAP3 ADD MLOAD AND SWAP1 PUSH2 0x1BD3 JUMP JUMPDEST PUSH2 0x1215 JUMP JUMPDEST POP PUSH4 0x4E487B71 PUSH1 0xE0 SHL DUP10 MSTORE PUSH1 0x11 SWAP1 MSTORE DUP8 REVERT JUMPDEST DUP7 MLOAD PUSH3 0x461BCD PUSH1 0xE5 SHL DUP2 MSTORE DUP1 DUP7 ADD DUP11 SWAP1 MSTORE PUSH1 0x29 DUP2 DUP9 ADD MSTORE PUSH32 0x46756E646F73206A6120666F72616D206C6962657261646F73206F7520726565 PUSH1 0x44 DUP3 ADD MSTORE PUSH9 0x6D626F6C7361646F73 PUSH1 0xB8 SHL PUSH1 0x64 DUP3 ADD MSTORE PUSH1 0x84 SWAP1 REVERT JUMPDEST POP PUSH1 0xFF DUP2 PUSH1 0x8 SHR AND ISZERO PUSH2 0x119E JUMP JUMPDEST POP PUSH1 0x1B PUSH1 0x64 SWAP3 DUP7 DUP6 MLOAD SWAP4 PUSH3 0x461BCD PUSH1 0xE5 SHL DUP6 MSTORE DUP5 ADD MSTORE DUP3 ADD MSTORE PUSH32 0x4D657461206465766520746572207369646F206174696E676964610000000000 PUSH1 0x44 DUP3 ADD MSTORE REVERT JUMPDEST PUSH4 0x4E487B71 PUSH1 0xE0 SHL DUP9 MSTORE PUSH1 0x21 DUP4 MSTORE DUP4 DUP9 REVERT JUMPDEST PUSH2 0x13CD SWAP2 SWAP9 POP RETURNDATASIZE DUP1 DUP10 DUP4 RETURNDATACOPY PUSH2 0x5E8 DUP2 DUP4 PUSH2 0x15FA JUMP JUMPDEST SWAP7 CODESIZE PUSH2 0x116C JUMP JUMPDEST DUP5 MLOAD RETURNDATASIZE DUP10 DUP3 RETURNDATACOPY RETURNDATASIZE SWAP1 REVERT JUMPDEST PUSH2 0x13F2 SWAP2 POP RETURNDATASIZE DUP1 DUP9 DUP4 RETURNDATACOPY PUSH2 0x5E8 DUP2 DUP4 PUSH2 0x15FA JUMP JUMPDEST CODESIZE PUSH2 0x1143 JUMP JUMPDEST POP POP CALLVALUE PUSH2 0x600 JUMPI DUP2 PUSH1 0x3 NOT CALLDATASIZE ADD SLT PUSH2 0x600 JUMPI PUSH1 0x6 SLOAD SWAP1 MLOAD PUSH1 0x1 PUSH1 0x1 PUSH1 0xA0 SHL SUB SWAP1 SWAP2 AND DUP2 MSTORE PUSH1 0x20 SWAP1 RETURN JUMPDEST POP POP CALLVALUE PUSH2 0x600 JUMPI DUP2 PUSH1 0x3 NOT CALLDATASIZE ADD SLT PUSH2 0x600 JUMPI PUSH1 0x7 SLOAD SWAP1 MLOAD PUSH1 0x1 PUSH1 0x1 PUSH1 0xA0 SHL SUB SWAP1 SWAP2 AND DUP2 MSTORE PUSH1 0x20 SWAP1 RETURN JUMPDEST POP POP CALLVALUE PUSH2 0x600 JUMPI DUP2 PUSH1 0x3 NOT CALLDATASIZE ADD SLT PUSH2 0x600 JUMPI PUSH1 0x20 SWAP1 PUSH1 0x5 SLOAD SWAP1 MLOAD SWAP1 DUP2 MSTORE RETURN JUMPDEST POP CALLVALUE PUSH2 0x1BC JUMPI PUSH1 0x20 CALLDATASIZE PUSH1 0x3 NOT ADD SLT PUSH2 0x1BC JUMPI DUP1 CALLDATALOAD SWAP2 PUSH2 0x1486 PUSH2 0x155C JUMP JUMPDEST PUSH2 0x3E8 DUP4 GT PUSH2 0x1497 JUMPI POP POP PUSH1 0x5 SSTORE DUP1 RETURN JUMPDEST SWAP1 PUSH1 0x20 PUSH1 0x64 SWAP3 MLOAD SWAP2 PUSH3 0x461BCD PUSH1 0xE5 SHL DUP4 MSTORE DUP3 ADD MSTORE PUSH1 0xF PUSH1 0x24 DUP3 ADD MSTORE PUSH15 0x54617861206D6178696D6120313025 PUSH1 0x88 SHL PUSH1 0x44 DUP3 ADD MSTORE REVERT JUMPDEST SWAP3 SWAP2 SWAP1 POP CALLVALUE PUSH2 0xC12 JUMPI PUSH1 0x20 CALLDATASIZE PUSH1 0x3 NOT ADD SLT PUSH2 0xC12 JUMPI DUP1 DUP3 PUSH1 0xC0 SWAP6 PUSH1 0xFF SWAP4 CALLDATALOAD DUP2 MSTORE PUSH1 0x3 PUSH1 0x20 MSTORE KECCAK256 SWAP1 DUP2 SLOAD SWAP4 PUSH1 0x1 DUP4 ADD SLOAD PUSH1 0x2 DUP5 ADD SLOAD SWAP3 PUSH1 0x3 DUP6 ADD SLOAD SWAP5 ADD SLOAD SWAP6 DUP8 MSTORE PUSH1 0x20 DUP8 ADD MSTORE DUP6 ADD MSTORE DUP2 DUP2 AND ISZERO ISZERO PUSH1 0x60 DUP6 ADD MSTORE PUSH1 0x8 SHR AND ISZERO ISZERO PUSH1 0x80 DUP4 ADD MSTORE PUSH1 0xA0 DUP3 ADD MSTORE RETURN JUMPDEST PUSH1 0x40 SWAP1 PUSH1 0x3 NOT ADD SLT PUSH2 0x663 JUMPI PUSH1 0x4 CALLDATALOAD SWAP1 PUSH1 0x24 CALLDATALOAD SWAP1 JUMP JUMPDEST PUSH1 0x4 CALLDATALOAD SWAP1 PUSH1 0x1 PUSH1 0x1 PUSH1 0xA0 SHL SUB DUP3 AND DUP3 SUB PUSH2 0x663 JUMPI JUMP JUMPDEST PUSH1 0x1 SLOAD PUSH1 0x1 PUSH1 0x1 PUSH1 0xA0 SHL SUB AND CALLER SUB PUSH2 0x1570 JUMPI JUMP JUMPDEST PUSH1 0x64 PUSH1 0x40 MLOAD PUSH3 0x461BCD PUSH1 0xE5 SHL DUP2 MSTORE PUSH1 0x20 PUSH1 0x4 DUP3 ADD MSTORE PUSH1 0x20 PUSH1 0x24 DUP3 ADD MSTORE PUSH32 0x4F776E61626C653A2063616C6C6572206973206E6F7420746865206F776E6572 PUSH1 0x44 DUP3 ADD MSTORE REVERT JUMPDEST PUSH8 0xFFFFFFFFFFFFFFFF DUP2 GT PUSH2 0x15C8 JUMPI PUSH1 0x40 MSTORE JUMP JUMPDEST PUSH4 0x4E487B71 PUSH1 0xE0 SHL PUSH1 0x0 MSTORE PUSH1 0x41 PUSH1 0x4 MSTORE PUSH1 0x24 PUSH1 0x0 REVERT JUMPDEST PUSH1 0x60 DUP2 ADD SWAP1 DUP2 LT PUSH8 0xFFFFFFFFFFFFFFFF DUP3 GT OR PUSH2 0x15C8 JUMPI PUSH1 0x40 MSTORE JUMP JUMPDEST SWAP1 PUSH1 0x1F DUP1 NOT SWAP2 ADD AND DUP2 ADD SWAP1 DUP2 LT PUSH8 0xFFFFFFFFFFFFFFFF DUP3 GT OR PUSH2 0x15C8 JUMPI PUSH1 0x40 MSTORE JUMP JUMPDEST PUSH8 0xFFFFFFFFFFFFFFFF DUP2 GT PUSH2 0x15C8 JUMPI PUSH1 0x1F ADD PUSH1 0x1F NOT AND PUSH1 0x20 ADD SWAP1 JUMP JUMPDEST PUSH1 0x0 JUMPDEST DUP4 DUP2 LT PUSH2 0x164B JUMPI POP POP PUSH1 0x0 SWAP2 ADD MSTORE JUMP JUMPDEST DUP2 DUP2 ADD MLOAD DUP4 DUP3 ADD MSTORE PUSH1 0x20 ADD PUSH2 0x163B JUMP JUMPDEST DUP2 PUSH1 0x1F DUP3 ADD SLT ISZERO PUSH2 0x663 JUMPI DUP1 MLOAD PUSH2 0x1671 DUP2 PUSH2 0x161C JUMP JUMPDEST SWAP3 PUSH2 0x167F PUSH1 0x40 MLOAD SWAP5 DUP6 PUSH2 0x15FA JUMP JUMPDEST DUP2 DUP5 MSTORE PUSH1 0x20 DUP3 DUP5 ADD ADD GT PUSH2 0x663 JUMPI PUSH2 0x169D SWAP2 PUSH1 0x20 DUP1 DUP6 ADD SWAP2 ADD PUSH2 0x1638 JUMP JUMPDEST SWAP1 JUMP JUMPDEST MLOAD SWAP1 DUP2 ISZERO ISZERO DUP3 SUB PUSH2 0x663 JUMPI JUMP JUMPDEST PUSH1 0x20 DUP2 DUP4 SUB SLT PUSH2 0x663 JUMPI DUP1 MLOAD PUSH8 0xFFFFFFFFFFFFFFFF SWAP2 DUP3 DUP3 GT PUSH2 0x663 JUMPI ADD SWAP1 PUSH2 0x1A0 SWAP3 DUP4 DUP4 DUP3 SUB SLT PUSH2 0x663 JUMPI PUSH1 0x40 MLOAD SWAP4 DUP5 ADD DUP5 DUP2 LT DUP4 DUP3 GT OR PUSH2 0x15C8 JUMPI PUSH1 0x40 MSTORE DUP3 MLOAD DUP5 MSTORE PUSH1 0x20 DUP4 ADD MLOAD PUSH1 0x1 PUSH1 0x1 PUSH1 0xA0 SHL SUB DUP2 AND DUP2 SUB PUSH2 0x663 JUMPI PUSH1 0x20 DUP6 ADD MSTORE PUSH1 0x40 DUP4 ADD MLOAD DUP3 DUP2 GT PUSH2 0x663 JUMPI DUP2 PUSH2 0x1723 SWAP2 DUP6 ADD PUSH2 0x165B JUMP JUMPDEST PUSH1 0x40 DUP6 ADD MSTORE PUSH1 0x60 DUP4 ADD MLOAD DUP3 DUP2 GT PUSH2 0x663 JUMPI DUP2 PUSH2 0x1740 SWAP2 DUP6 ADD PUSH2 0x165B JUMP JUMPDEST PUSH1 0x60 DUP6 ADD MSTORE PUSH1 0x80 DUP4 ADD MLOAD SWAP2 DUP3 GT PUSH2 0x663 JUMPI PUSH2 0x175C SWAP2 DUP4 ADD PUSH2 0x165B JUMP JUMPDEST PUSH1 0x80 DUP4 ADD MSTORE PUSH1 0xA0 DUP2 ADD MLOAD PUSH1 0xA0 DUP4 ADD MSTORE PUSH1 0xC0 DUP2 ADD MLOAD PUSH1 0xC0 DUP4 ADD MSTORE PUSH1 0xE0 DUP2 ADD MLOAD PUSH1 0xE0 DUP4 ADD MSTORE PUSH2 0x100 DUP1 DUP3 ADD MLOAD SWAP1 DUP4 ADD MSTORE PUSH2 0x120 DUP1 DUP3 ADD MLOAD SWAP1 PUSH1 0x7 DUP3 LT ISZERO PUSH2 0x663 JUMPI DUP4 ADD MSTORE PUSH2 0x140 PUSH2 0x17AC DUP2 DUP4 ADD PUSH2 0x16A0 JUMP JUMPDEST SWAP1 DUP4 ADD MSTORE PUSH2 0x160 DUP1 DUP3 ADD MLOAD SWAP1 DUP4 ADD MSTORE PUSH2 0x180 DUP1 SWAP2 ADD MLOAD SWAP1 DUP3 ADD MSTORE SWAP1 JUMP JUMPDEST ISZERO PUSH2 0x17D0 JUMPI JUMP JUMPDEST PUSH1 0x40 MLOAD PUSH3 0x461BCD PUSH1 0xE5 SHL DUP2 MSTORE PUSH1 0x20 PUSH1 0x4 DUP3 ADD MSTORE PUSH1 0x1A PUSH1 0x24 DUP3 ADD MSTORE PUSH32 0x5072617A6F20646520636170746163616F20657870697261646F000000000000 PUSH1 0x44 DUP3 ADD MSTORE PUSH1 0x64 SWAP1 REVERT JUMPDEST PUSH1 0x2 PUSH1 0x0 SLOAD EQ PUSH2 0x1826 JUMPI PUSH1 0x2 PUSH1 0x0 SSTORE JUMP JUMPDEST PUSH1 0x40 MLOAD PUSH3 0x461BCD PUSH1 0xE5 SHL DUP2 MSTORE PUSH1 0x20 PUSH1 0x4 DUP3 ADD MSTORE PUSH1 0x1F PUSH1 0x24 DUP3 ADD MSTORE PUSH32 0x5265656E7472616E637947756172643A207265656E7472616E742063616C6C00 PUSH1 0x44 DUP3 ADD MSTORE PUSH1 0x64 SWAP1 REVERT JUMPDEST ISZERO PUSH2 0x1872 JUMPI JUMP JUMPDEST PUSH1 0x40 MLOAD PUSH3 0x461BCD PUSH1 0xE5 SHL DUP2 MSTORE PUSH1 0x20 PUSH1 0x4 DUP3 ADD MSTORE PUSH1 0x11 PUSH1 0x24 DUP3 ADD MSTORE PUSH17 0x457363726F77206E616F20657869737465 PUSH1 0x78 SHL PUSH1 0x44 DUP3 ADD MSTORE PUSH1 0x64 SWAP1 REVERT JUMPDEST ISZERO PUSH2 0x18B2 JUMPI JUMP JUMPDEST PUSH1 0x40 MLOAD PUSH3 0x461BCD PUSH1 0xE5 SHL DUP2 MSTORE PUSH1 0x20 PUSH1 0x4 DUP3 ADD MSTORE PUSH1 0x18 PUSH1 0x24 DUP3 ADD MSTORE PUSH32 0x457363726F77206A6120666F692066696E616C697A61646F0000000000000000 PUSH1 0x44 DUP3 ADD MSTORE PUSH1 0x64 SWAP1 REVERT JUMPDEST ISZERO PUSH2 0x18FE JUMPI JUMP JUMPDEST PUSH1 0x40 MLOAD PUSH3 0x461BCD PUSH1 0xE5 SHL DUP2 MSTORE PUSH1 0x20 PUSH1 0x4 DUP3 ADD MSTORE PUSH1 0x1D PUSH1 0x24 DUP3 ADD MSTORE PUSH32 0x56616C6F72206465766520736572206D61696F7220717565207A65726F000000 PUSH1 0x44 DUP3 ADD MSTORE PUSH1 0x64 SWAP1 REVERT JUMPDEST SWAP2 SWAP1 DUP3 ADD DUP1 SWAP3 GT PUSH2 0x1950 JUMPI JUMP JUMPDEST PUSH4 0x4E487B71 PUSH1 0xE0 SHL PUSH1 0x0 MSTORE PUSH1 0x11 PUSH1 0x4 MSTORE PUSH1 0x24 PUSH1 0x0 REVERT JUMPDEST DUP1 SLOAD DUP3 LT ISZERO PUSH2 0x1982 JUMPI PUSH1 0x0 MSTORE PUSH1 0x3 PUSH1 0x20 PUSH1 0x0 KECCAK256 SWAP2 MUL ADD SWAP1 PUSH1 0x0 SWAP1 JUMP JUMPDEST PUSH4 0x4E487B71 PUSH1 0xE0 SHL PUSH1 0x0 MSTORE PUSH1 0x32 PUSH1 0x4 MSTORE PUSH1 0x24 PUSH1 0x0 REVERT JUMPDEST PUSH1 0x1 DUP1 PUSH1 0xA0 SHL SUB AND SWAP1 PUSH1 0x40 MLOAD PUSH1 0x40 DUP2 ADD SWAP1 DUP1 DUP3 LT PUSH8 0xFFFFFFFFFFFFFFFF DUP4 GT OR PUSH2 0x15C8 JUMPI PUSH2 0x1A28 SWAP2 PUSH1 0x40 MSTORE PUSH1 0x20 SWAP4 DUP5 DUP3 MSTORE PUSH32 0x5361666545524332303A206C6F772D6C6576656C2063616C6C206661696C6564 DUP6 DUP4 ADD MSTORE PUSH1 0x0 DUP1 DUP6 DUP8 DUP3 SWAP8 MLOAD SWAP2 ADD DUP3 DUP6 GAS CALL RETURNDATASIZE ISZERO PUSH2 0x1ABD JUMPI RETURNDATASIZE SWAP2 PUSH2 0x1A0D DUP4 PUSH2 0x161C JUMP JUMPDEST SWAP3 PUSH2 0x1A1B PUSH1 0x40 MLOAD SWAP5 DUP6 PUSH2 0x15FA JUMP JUMPDEST DUP4 MSTORE RETURNDATASIZE DUP7 DUP9 DUP6 ADD RETURNDATACOPY PUSH2 0x1AC1 JUMP JUMPDEST SWAP1 DUP2 MLOAD SWAP1 DUP4 DUP3 ISZERO SWAP3 DUP4 ISZERO PUSH2 0x1A9B JUMPI JUMPDEST POP POP POP SWAP1 POP ISZERO PUSH2 0x1A44 JUMPI POP JUMP JUMPDEST PUSH1 0x84 SWAP1 PUSH1 0x40 MLOAD SWAP1 PUSH3 0x461BCD PUSH1 0xE5 SHL DUP3 MSTORE PUSH1 0x4 DUP3 ADD MSTORE PUSH1 0x2A PUSH1 0x24 DUP3 ADD MSTORE PUSH32 0x5361666545524332303A204552433230206F7065726174696F6E20646964206E PUSH1 0x44 DUP3 ADD MSTORE PUSH10 0x1BDD081CDD58D8D95959 PUSH1 0xB2 SHL PUSH1 0x64 DUP3 ADD MSTORE REVERT JUMPDEST DUP5 DUP1 SWAP3 SWAP4 SWAP5 POP ADD SUB SLT PUSH2 0x4FF JUMPI POP DUP2 PUSH2 0x1AB4 SWAP2 ADD PUSH2 0x16A0 JUMP JUMPDEST DUP1 CODESIZE DUP4 DUP2 PUSH2 0x1A37 JUMP JUMPDEST PUSH1 0x60 SWAP2 JUMPDEST SWAP2 SWAP3 SWAP1 ISZERO PUSH2 0x1B23 JUMPI POP DUP2 MLOAD ISZERO PUSH2 0x1AD5 JUMPI POP SWAP1 JUMP JUMPDEST EXTCODESIZE ISZERO PUSH2 0x1ADE JUMPI SWAP1 JUMP JUMPDEST PUSH1 0x40 MLOAD PUSH3 0x461BCD PUSH1 0xE5 SHL DUP2 MSTORE PUSH1 0x20 PUSH1 0x4 DUP3 ADD MSTORE PUSH1 0x1D PUSH1 0x24 DUP3 ADD MSTORE PUSH32 0x416464726573733A2063616C6C20746F206E6F6E2D636F6E7472616374000000 PUSH1 0x44 DUP3 ADD MSTORE PUSH1 0x64 SWAP1 REVERT JUMPDEST DUP3 MLOAD SWAP1 SWAP2 POP ISZERO PUSH2 0x1B36 JUMPI POP DUP1 MLOAD SWAP1 PUSH1 0x20 ADD REVERT JUMPDEST PUSH1 0x44 PUSH1 0x40 MLOAD DUP1 SWAP3 PUSH3 0x461BCD PUSH1 0xE5 SHL DUP3 MSTORE PUSH1 0x20 PUSH1 0x4 DUP4 ADD MSTORE PUSH2 0x1B66 DUP2 MLOAD DUP1 SWAP3 DUP2 PUSH1 0x24 DUP7 ADD MSTORE PUSH1 0x20 DUP7 DUP7 ADD SWAP2 ADD PUSH2 0x1638 JUMP JUMPDEST PUSH1 0x1F ADD PUSH1 0x1F NOT AND DUP2 ADD SUB ADD SWAP1 REVERT JUMPDEST ISZERO PUSH2 0x1B7B JUMPI JUMP JUMPDEST PUSH1 0x40 MLOAD PUSH3 0x461BCD PUSH1 0xE5 SHL DUP2 MSTORE PUSH1 0x20 PUSH1 0x4 DUP3 ADD MSTORE PUSH1 0x1E PUSH1 0x24 DUP3 ADD MSTORE PUSH32 0x4170656E6173206F206172746973746120706F64652065786563757461720000 PUSH1 0x44 DUP3 ADD MSTORE PUSH1 0x64 SWAP1 REVERT JUMPDEST DUP2 DUP2 MUL SWAP3 SWAP2 DUP2 ISZERO SWAP2 DUP5 DIV EQ OR ISZERO PUSH2 0x1950 JUMPI JUMP JUMPDEST PUSH1 0x40 MLOAD PUSH4 0xA9059CBB PUSH1 0xE0 SHL PUSH1 0x20 DUP3 ADD MSTORE PUSH1 0x1 PUSH1 0x1 PUSH1 0xA0 SHL SUB SWAP1 SWAP3 AND PUSH1 0x24 DUP4 ADD MSTORE PUSH1 0x44 DUP1 DUP4 ADD SWAP4 SWAP1 SWAP4 MSTORE SWAP2 DUP2 MSTORE PUSH1 0x80 DUP2 ADD SWAP2 PUSH8 0xFFFFFFFFFFFFFFFF DUP4 GT DUP3 DUP5 LT OR PUSH2 0x15C8 JUMPI PUSH2 0x1C23 SWAP3 PUSH1 0x40 MSTORE PUSH2 0x1998 JUMP JUMPDEST JUMP JUMPDEST ISZERO PUSH2 0x1C2C JUMPI JUMP JUMPDEST PUSH1 0x40 MLOAD PUSH3 0x461BCD PUSH1 0xE5 SHL DUP2 MSTORE PUSH1 0x20 PUSH1 0x4 DUP3 ADD MSTORE PUSH1 0x12 PUSH1 0x24 DUP3 ADD MSTORE PUSH18 0x53616C646F20696E737566696369656E7465 PUSH1 0x70 SHL PUSH1 0x44 DUP3 ADD MSTORE PUSH1 0x64 SWAP1 REVERT INVALID SWAP4 0xE9 ADD 0xCC GAS 0xEA KECCAK256 0xEA SWAP7 SSTORE DUP9 PUSH30 0x9290A3215A5B3999C024812F4E4B749F7534349CA2646970667358221220 PUSH6 0xCD3D7D71AA9B PUSH31 0x71883D05B1A5F78E40BE4CE7A05F6477911528CD002990E664736F6C634300 ADDMOD SGT STOP CALLER "},"methodIdentifiers":{"acceptedToken()":"451c3d80","createEscrow(uint256)":"8da2c873","depositFunds(uint256,uint256)":"61638ed5","emergencyWithdraw(uint256)":"5312ea8e","escrowExists(uint256)":"8e0eac0f","escrows(uint256)":"012f52ee","feeRecipient()":"46904840","getEscrowData(uint256)":"ae89aeb9","getInvestorData(uint256,address)":"999b6019","owner()":"8da5cb5b","partialRelease(uint256,uint256)":"96a9d913","platformFee()":"26232a2e","projectRegistry()":"5a33d8dc","refundInvestors(uint256)":"9ee987b2","releaseFunds(uint256)":"4d68282f","renounceOwnership()":"715018a6","setFeeRecipient(address)":"e74b981b","setPlatformFee(uint256)":"12e8e2c3","transferOwnership(address)":"f2fde38b"}}}}}