{
  "_format": "hh-sol-artifact-1",
  "contractName": "ReputationManager",
  "sourceName": "contracts/ReputationManager.sol",
  "abi": [
    {
      "inputs": [
        {
          "internalType": "address",
          "name": "_projectRegistry",
          "type": "address"
        },
        {
          "internalType": "address",
          "name": "_repaymentManager",
          "type": "address"
        }
      ],
      "stateMutability": "nonpayable",
      "type": "constructor"
    },
    {
      "anonymous": false,
      "inputs": [
        {
          "indexed": true,
          "internalType": "address",
          "name": "artist",
          "type": "address"
        },
        {
          "indexed": true,
          "internalType": "address",
          "name": "verifier",
          "type": "address"
        }
      ],
      "name": "ArtistVerified",
      "type": "event"
    },
    {
      "anonymous": false,
      "inputs": [
        {
          "indexed": true,
          "internalType": "address",
          "name": "artist",
          "type": "address"
        },
        {
          "indexed": true,
          "internalType": "uint256",
          "name": "projectId",
          "type": "uint256"
        },
        {
          "indexed": false,
          "internalType": "string",
          "name": "deliverableType",
          "type": "string"
        },
        {
          "indexed": false,
          "internalType": "bool",
          "name": "isOnTime",
          "type": "bool"
        },
        {
          "indexed": false,
          "internalType": "uint256",
          "name": "qualityScore",
          "type": "uint256"
        }
      ],
      "name": "DeliveryRecorded",
      "type": "event"
    },
    {
      "anonymous": false,
      "inputs": [
        {
          "indexed": true,
          "internalType": "address",
          "name": "previousOwner",
          "type": "address"
        },
        {
          "indexed": true,
          "internalType": "address",
          "name": "newOwner",
          "type": "address"
        }
      ],
      "name": "OwnershipTransferred",
      "type": "event"
    },
    {
      "anonymous": false,
      "inputs": [
        {
          "indexed": true,
          "internalType": "address",
          "name": "artist",
          "type": "address"
        },
        {
          "indexed": false,
          "internalType": "uint256",
          "name": "oldScore",
          "type": "uint256"
        },
        {
          "indexed": false,
          "internalType": "uint256",
          "name": "newScore",
          "type": "uint256"
        },
        {
          "indexed": false,
          "internalType": "string",
          "name": "reason",
          "type": "string"
        }
      ],
      "name": "ReputationUpdated",
      "type": "event"
    },
    {
      "anonymous": false,
      "inputs": [
        {
          "indexed": true,
          "internalType": "address",
          "name": "artist",
          "type": "address"
        },
        {
          "indexed": false,
          "internalType": "uint256",
          "name": "followers",
          "type": "uint256"
        },
        {
          "indexed": false,
          "internalType": "uint256",
          "name": "engagementRate",
          "type": "uint256"
        },
        {
          "indexed": true,
          "internalType": "address",
          "name": "oracle",
          "type": "address"
        }
      ],
      "name": "SocialMetricsUpdated",
      "type": "event"
    },
    {
      "inputs": [
        {
          "internalType": "address",
          "name": "_oracle",
          "type": "address"
        }
      ],
      "name": "addSocialOracle",
      "outputs": [],
      "stateMutability": "nonpayable",
      "type": "function"
    },
    {
      "inputs": [
        {
          "internalType": "address",
          "name": "",
          "type": "address"
        }
      ],
      "name": "artistExists",
      "outputs": [
        {
          "internalType": "bool",
          "name": "",
          "type": "bool"
        }
      ],
      "stateMutability": "view",
      "type": "function"
    },
    {
      "inputs": [
        {
          "internalType": "address",
          "name": "",
          "type": "address"
        }
      ],
      "name": "artistReputation",
      "outputs": [
        {
          "internalType": "uint256",
          "name": "score",
          "type": "uint256"
        },
        {
          "internalType": "uint256",
          "name": "projectsCompleted",
          "type": "uint256"
        },
        {
          "internalType": "uint256",
          "name": "projectsTotal",
          "type": "uint256"
        },
        {
          "internalType": "uint256",
          "name": "onTimePayments",
          "type": "uint256"
        },
        {
          "internalType": "uint256",
          "name": "latePayments",
          "type": "uint256"
        },
        {
          "internalType": "uint256",
          "name": "totalRaised",
          "type": "uint256"
        },
        {
          "internalType": "uint256",
          "name": "lastUpdated",
          "type": "uint256"
        },
        {
          "internalType": "bool",
          "name": "isVerified",
          "type": "bool"
        }
      ],
      "stateMutability": "view",
      "type": "function"
    },
    {
      "inputs": [
        {
          "internalType": "address",
          "name": "_artist",
          "type": "address"
        }
      ],
      "name": "canAutoApprove",
      "outputs": [
        {
          "internalType": "bool",
          "name": "",
          "type": "bool"
        }
      ],
      "stateMutability": "view",
      "type": "function"
    },
    {
      "inputs": [],
      "name": "consistencyBonus",
      "outputs": [
        {
          "internalType": "uint256",
          "name": "",
          "type": "uint256"
        }
      ],
      "stateMutability": "view",
      "type": "function"
    },
    {
      "inputs": [
        {
          "internalType": "address",
          "name": "",
          "type": "address"
        },
        {
          "internalType": "uint256",
          "name": "",
          "type": "uint256"
        }
      ],
      "name": "deliveryHistory",
      "outputs": [
        {
          "internalType": "uint256",
          "name": "projectId",
          "type": "uint256"
        },
        {
          "internalType": "string",
          "name": "deliverableType",
          "type": "string"
        },
        {
          "internalType": "string",
          "name": "ipfsHash",
          "type": "string"
        },
        {
          "internalType": "uint256",
          "name": "timestamp",
          "type": "uint256"
        },
        {
          "internalType": "bool",
          "name": "isOnTime",
          "type": "bool"
        },
        {
          "internalType": "uint256",
          "name": "qualityScore",
          "type": "uint256"
        },
        {
          "internalType": "bytes32",
          "name": "offChainDataHash",
          "type": "bytes32"
        }
      ],
      "stateMutability": "view",
      "type": "function"
    },
    {
      "inputs": [],
      "name": "deliveryWeight",
      "outputs": [
        {
          "internalType": "uint256",
          "name": "",
          "type": "uint256"
        }
      ],
      "stateMutability": "view",
      "type": "function"
    },
    {
      "inputs": [],
      "name": "engagementWeight",
      "outputs": [
        {
          "internalType": "uint256",
          "name": "",
          "type": "uint256"
        }
      ],
      "stateMutability": "view",
      "type": "function"
    },
    {
      "inputs": [
        {
          "internalType": "address",
          "name": "_artist",
          "type": "address"
        }
      ],
      "name": "getDeliveryHistory",
      "outputs": [
        {
          "components": [
            {
              "internalType": "uint256",
              "name": "projectId",
              "type": "uint256"
            },
            {
              "internalType": "string",
              "name": "deliverableType",
              "type": "string"
            },
            {
              "internalType": "string",
              "name": "ipfsHash",
              "type": "string"
            },
            {
              "internalType": "uint256",
              "name": "timestamp",
              "type": "uint256"
            },
            {
              "internalType": "bool",
              "name": "isOnTime",
              "type": "bool"
            },
            {
              "internalType": "uint256",
              "name": "qualityScore",
              "type": "uint256"
            },
            {
              "internalType": "bytes32",
              "name": "offChainDataHash",
              "type": "bytes32"
            }
          ],
          "internalType": "struct ReputationManager.DeliveryRecord[]",
          "name": "",
          "type": "tuple[]"
        }
      ],
      "stateMutability": "view",
      "type": "function"
    },
    {
      "inputs": [
        {
          "internalType": "address",
          "name": "_artist",
          "type": "address"
        }
      ],
      "name": "getReputationData",
      "outputs": [
        {
          "components": [
            {
              "internalType": "uint256",
              "name": "score",
              "type": "uint256"
            },
            {
              "internalType": "uint256",
              "name": "projectsCompleted",
              "type": "uint256"
            },
            {
              "internalType": "uint256",
              "name": "projectsTotal",
              "type": "uint256"
            },
            {
              "internalType": "uint256",
              "name": "onTimePayments",
              "type": "uint256"
            },
            {
              "internalType": "uint256",
              "name": "latePayments",
              "type": "uint256"
            },
            {
              "internalType": "uint256",
              "name": "totalRaised",
              "type": "uint256"
            },
            {
              "internalType": "uint256",
              "name": "lastUpdated",
              "type": "uint256"
            },
            {
              "internalType": "bool",
              "name": "isVerified",
              "type": "bool"
            }
          ],
          "internalType": "struct ReputationManager.ReputationData",
          "name": "",
          "type": "tuple"
        }
      ],
      "stateMutability": "view",
      "type": "function"
    },
    {
      "inputs": [
        {
          "internalType": "address",
          "name": "_artist",
          "type": "address"
        }
      ],
      "name": "getSocialMetrics",
      "outputs": [
        {
          "components": [
            {
              "internalType": "uint256",
              "name": "followersCount",
              "type": "uint256"
            },
            {
              "internalType": "uint256",
              "name": "engagementRate",
              "type": "uint256"
            },
            {
              "internalType": "uint256",
              "name": "streamingPlays",
              "type": "uint256"
            },
            {
              "internalType": "uint256",
              "name": "lastSocialUpdate",
              "type": "uint256"
            },
            {
              "internalType": "string[]",
              "name": "verifiedPlatforms",
              "type": "string[]"
            }
          ],
          "internalType": "struct ReputationManager.SocialMetrics",
          "name": "",
          "type": "tuple"
        }
      ],
      "stateMutability": "view",
      "type": "function"
    },
    {
      "inputs": [
        {
          "internalType": "address",
          "name": "_artist",
          "type": "address"
        }
      ],
      "name": "initializeArtist",
      "outputs": [],
      "stateMutability": "nonpayable",
      "type": "function"
    },
    {
      "inputs": [],
      "name": "minimumApprovalScore",
      "outputs": [
        {
          "internalType": "uint256",
          "name": "",
          "type": "uint256"
        }
      ],
      "stateMutability": "view",
      "type": "function"
    },
    {
      "inputs": [],
      "name": "owner",
      "outputs": [
        {
          "internalType": "address",
          "name": "",
          "type": "address"
        }
      ],
      "stateMutability": "view",
      "type": "function"
    },
    {
      "inputs": [],
      "name": "paymentWeight",
      "outputs": [
        {
          "internalType": "uint256",
          "name": "",
          "type": "uint256"
        }
      ],
      "stateMutability": "view",
      "type": "function"
    },
    {
      "inputs": [],
      "name": "projectRegistry",
      "outputs": [
        {
          "internalType": "contract IProjectRegistry",
          "name": "",
          "type": "address"
        }
      ],
      "stateMutability": "view",
      "type": "function"
    },
    {
      "inputs": [],
      "name": "qualityWeight",
      "outputs": [
        {
          "internalType": "uint256",
          "name": "",
          "type": "uint256"
        }
      ],
      "stateMutability": "view",
      "type": "function"
    },
    {
      "inputs": [
        {
          "internalType": "address",
          "name": "_artist",
          "type": "address"
        },
        {
          "internalType": "uint256",
          "name": "_projectId",
          "type": "uint256"
        },
        {
          "internalType": "string",
          "name": "_deliverableType",
          "type": "string"
        },
        {
          "internalType": "string",
          "name": "_ipfsHash",
          "type": "string"
        },
        {
          "internalType": "bool",
          "name": "_isOnTime",
          "type": "bool"
        },
        {
          "internalType": "uint256",
          "name": "_qualityScore",
          "type": "uint256"
        },
        {
          "internalType": "bytes32",
          "name": "_offChainDataHash",
          "type": "bytes32"
        }
      ],
      "name": "recordDelivery",
      "outputs": [],
      "stateMutability": "nonpayable",
      "type": "function"
    },
    {
      "inputs": [
        {
          "internalType": "address",
          "name": "_oracle",
          "type": "address"
        }
      ],
      "name": "removeSocialOracle",
      "outputs": [],
      "stateMutability": "nonpayable",
      "type": "function"
    },
    {
      "inputs": [],
      "name": "renounceOwnership",
      "outputs": [],
      "stateMutability": "nonpayable",
      "type": "function"
    },
    {
      "inputs": [],
      "name": "repaymentManager",
      "outputs": [
        {
          "internalType": "contract IRepaymentManager",
          "name": "",
          "type": "address"
        }
      ],
      "stateMutability": "view",
      "type": "function"
    },
    {
      "inputs": [
        {
          "internalType": "uint256",
          "name": "_newScore",
          "type": "uint256"
        }
      ],
      "name": "setMinimumApprovalScore",
      "outputs": [],
      "stateMutability": "nonpayable",
      "type": "function"
    },
    {
      "inputs": [
        {
          "internalType": "uint256",
          "name": "_delivery",
          "type": "uint256"
        },
        {
          "internalType": "uint256",
          "name": "_quality",
          "type": "uint256"
        },
        {
          "internalType": "uint256",
          "name": "_payment",
          "type": "uint256"
        },
        {
          "internalType": "uint256",
          "name": "_engagement",
          "type": "uint256"
        },
        {
          "internalType": "uint256",
          "name": "_transparency",
          "type": "uint256"
        }
      ],
      "name": "setWeights",
      "outputs": [],
      "stateMutability": "nonpayable",
      "type": "function"
    },
    {
      "inputs": [
        {
          "internalType": "address",
          "name": "",
          "type": "address"
        }
      ],
      "name": "socialMetrics",
      "outputs": [
        {
          "internalType": "uint256",
          "name": "followersCount",
          "type": "uint256"
        },
        {
          "internalType": "uint256",
          "name": "engagementRate",
          "type": "uint256"
        },
        {
          "internalType": "uint256",
          "name": "streamingPlays",
          "type": "uint256"
        },
        {
          "internalType": "uint256",
          "name": "lastSocialUpdate",
          "type": "uint256"
        }
      ],
      "stateMutability": "view",
      "type": "function"
    },
    {
      "inputs": [
        {
          "internalType": "address",
          "name": "",
          "type": "address"
        }
      ],
      "name": "socialOracles",
      "outputs": [
        {
          "internalType": "bool",
          "name": "",
          "type": "bool"
        }
      ],
      "stateMutability": "view",
      "type": "function"
    },
    {
      "inputs": [
        {
          "internalType": "address",
          "name": "newOwner",
          "type": "address"
        }
      ],
      "name": "transferOwnership",
      "outputs": [],
      "stateMutability": "nonpayable",
      "type": "function"
    },
    {
      "inputs": [],
      "name": "transparencyWeight",
      "outputs": [
        {
          "internalType": "uint256",
          "name": "",
          "type": "uint256"
        }
      ],
      "stateMutability": "view",
      "type": "function"
    },
    {
      "inputs": [
        {
          "internalType": "address",
          "name": "_artist",
          "type": "address"
        },
        {
          "internalType": "uint256",
          "name": "_projectId",
          "type": "uint256"
        }
      ],
      "name": "updatePaymentMetrics",
      "outputs": [],
      "stateMutability": "nonpayable",
      "type": "function"
    },
    {
      "inputs": [
        {
          "internalType": "address",
          "name": "_artist",
          "type": "address"
        },
        {
          "internalType": "uint256",
          "name": "_followersCount",
          "type": "uint256"
        },
        {
          "internalType": "uint256",
          "name": "_engagementRate",
          "type": "uint256"
        },
        {
          "internalType": "uint256",
          "name": "_streamingPlays",
          "type": "uint256"
        },
        {
          "internalType": "string[]",
          "name": "_verifiedPlatforms",
          "type": "string[]"
        }
      ],
      "name": "updateSocialMetrics",
      "outputs": [],
      "stateMutability": "nonpayable",
      "type": "function"
    },
    {
      "inputs": [
        {
          "internalType": "address",
          "name": "_artist",
          "type": "address"
        }
      ],
      "name": "verifyArtist",
      "outputs": [],
      "stateMutability": "nonpayable",
      "type": "function"
    }
  ],
  "bytecode": "0x608034620000f957601f620023b438819003918201601f19168301916001600160401b03831184841017620000fe578084926040948552833981010312620000f9576200005a6020620000528362000114565b920162000114565b60008054336001600160a01b0319808316821784556040519590946001600160a01b03949093859391908416907f8be0079c531659141344cd1fd0a4f28419497f9722a3daafe3b4186f6b6457e09080a360018055610fa06009556109c4600a556107d0600b556103e8600c556101f4600d5560c8600e55610258600f55168360025416176002551690600354161760035561228a90816200012a8239f35b600080fd5b634e487b7160e01b600052604160045260246000fd5b51906001600160a01b0382168203620000f95756fe6080604052600436101561001257600080fd5b60e0600035811c90816306d93d101461126e5781631837f20f14610e7a57816319a9c0b014610e5c5781631a77777114610e1757816341311d3014610dd85781634c7061b114610d475781635481288e14610d1e57816358d26bd614610cbb5781635a33d8dc14610c925781635f86de0214610c6557816367e5973414610c475781636e5c9cef14610c05578163715018a614610bac5781637347ae0b14610b8e5781637a00d3c414610a845781637a1fe3eb14610a2857816382ac9cf714610a0a5781638da5cb5b146109e15781639117b16b146109a25781639a13280214610882578163a06b921a14610864578163a36e3b73146106d4578163ab42e04314610560578163ad1dc007146104c6578163b6c06cd314610439578163cda7aed614610335578163d2e8c07414610317578163d5b169621461025557508063dc48bb3f146102375763f2fde38b1461016957600080fd5b3461023257602036600319011261023257610182611763565b61018a6119ab565b6001600160a01b039081169081156101de57600054826bffffffffffffffffffffffff60a01b821617600055167f8be0079c531659141344cd1fd0a4f28419497f9722a3daafe3b4186f6b6457e0600080a3005b60405162461bcd60e51b815260206004820152602660248201527f4f776e61626c653a206e6577206f776e657220697320746865207a65726f206160448201526564647265737360d01b6064820152608490fd5b600080fd5b34610232576000366003190112610232576020600954604051908152f35b346102325760403660031901126102325761026e611763565b6001600160a01b031660009081526005602052604090208054602435908110156102325761029b91611899565b508054906102ab60018201611905565b6102b760028301611905565b916003810154926102fc60ff600484015416916102ee6006600586015495015495604051998a998a528060208b0152890190611859565b908782036040890152611859565b9360608601521515608085015260a084015260c08301520390f35b34610232576000366003190112610232576020600a54604051908152f35b34610232576040366003190112610232576024610350611763565b6001600160a01b038181166000818152600760205260409020546103769060ff16611a03565b600052600460205260a06040600020916003541660405194858092631403c24560e21b8252823560048301525afa801561042d576103d4936000906000926103f8575b50156103d657506003016103cd8154611a5b565b9055611af1565b005b42116103e3575b50611af1565b6004016103f08154611a5b565b9055826103dd565b905061041b915060a03d8111610426575b61041381836117cb565b810190611a80565b9350915050856103b9565b503d610409565b6040513d6000823e3d90fd5b3461023257602036600319011261023257610100906001600160a01b0361045e611763565b1660005260046020526040600020908154916001810154906002810154600382015460048301549060058401549260ff600760068701549601541695604051988952602089015260408801526060870152608086015260a085015260c0840152151590820152f35b346102325760a0366003190112610232576084356064356044356024356004356104ee6119ab565b61271061050c8661050787610507886105078989611ae4565b611ae4565b0361052257600955600a55600b55600c55600d55005b60405162461bcd60e51b81526020600482015260166024820152755065736f7320646576656d20736f6d6172203130302560501b6044820152606490fd5b3461023257602090816003193601126102325761057b611763565b6060608060405161058b816117b0565b6000815260008682015260006040820152600083820152015260018060a01b031660005260068252604060002090604051906105c6826117b0565b825482526001918284015493858201948552600281015490604083019182526004600382015491606085019283520191825461060181611842565b9361060f60405195866117cb565b81855260009081528981208a86015b8383106106ad5750505050608084019283526040519688885260c08801945189890152516040880152516060870152516080860152519460a080860152855180925280838601938360051b8701019601926000905b8382106106805786880387f35b9091929394838061069c839a60df198b82030186528951611859565b999701959493919091019101610673565b9089808d819e9a9b9c95946106c185611905565b8152019201920192509a9897969a61061e565b34610232576020908160031936011261023257906001600160a01b036106f8611763565b166000526005808252604060002090815461071281611842565b9061072060405192836117cb565b8082528482018094600052856000206000915b8383106107ea5750505050604051938085019181865251809252604082818701941b86010193926000965b83881061076b5786860387f35b90919293948380600192603f198a8203018652885190815181526107af61079d84840151888685015288840190611859565b60408401518382036040850152611859565b916060808201519083015260808082015115159083015260a0808201519083015260c08091015191015297019301970196909392919361075e565b60078860019260409b9a97989b5161080181611779565b85548152610810858701611905565b8382015261082060028701611905565b60408201526003860154606082015260ff600487015416151560808201528c86015460a0820152600686015460c08201528152019201920191909794939697610733565b34610232576000366003190112610232576020600b54604051908152f35b3461023257602080600319360112610232576001600160a01b036108a4611763565b16806000526007825260ff60406000205416610969576007928361095692604051926108cf84611794565b6101f48452858401600081526040850160008152606086016000815260808701916000835260a08801936000855260c08901954287528901966000885260005260048b5260406000209851895551600189015551600288015551600387015551600486015551600585015551600684015551151591019060ff801983541691151516179055565b526040600020805460ff19166001179055005b60405162461bcd60e51b815260048101839052601160248201527041727469737461206a612065786973746560781b6044820152606490fd5b34610232576020366003190112610232576001600160a01b036109c3611763565b166000526007602052602060ff604060002054166040519015158152f35b34610232576000366003190112610232576000546040516001600160a01b039091168152602090f35b34610232576000366003190112610232576020600d54604051908152f35b34610232576020366003190112610232576001600160a01b03610a49611763565b166000526006602052608060406000208054906001810154906003600282015491015491604051938452602084015260408301526060820152f35b346102325760203660031901126102325761010090610aa1611763565b600082604051610ab081611794565b8281528260208201528260408201528260608201528260808201528260a08201528260c0820152015260018060a01b03166000526004602052604060002090604051610afb81611794565b8254928382526001810154602083019081526002820154604084019081526003830154606085019081526004840154916080860192835260058501549360a087019485528760ff600760068901549860c08b01998a52015416970196151587526040519889525160208901525160408801525160608701525160808601525160a08501525160c084015251151590820152f35b34610232576000366003190112610232576020600e54604051908152f35b3461023257600036600319011261023257610bc56119ab565b600080546001600160a01b0319811682556001600160a01b03167f8be0079c531659141344cd1fd0a4f28419497f9722a3daafe3b4186f6b6457e08280a3005b3461023257602036600319011261023257610c1e611763565b610c266119ab565b6001600160a01b03166000908152600860205260409020805460ff19169055005b34610232576000366003190112610232576020600c54604051908152f35b34610232576020366003190112610232576020610c88610c83611763565b61221c565b6040519015158152f35b34610232576000366003190112610232576002546040516001600160a01b039091168152602090f35b3461023257602036600319011261023257600435610cd76119ab565b6103e88111610ce557600f55005b60405162461bcd60e51b8152602060048201526011602482015270053636f7265206d6178696d6f203130303607c1b6044820152606490fd5b34610232576000366003190112610232576003546040516001600160a01b039091168152602090f35b34610232576020366003190112610232576103d4610d63611763565b610d6b6119ab565b6001600160a01b038116600081815260076020526040902054610d909060ff16611a03565b8060005260046020526007604060002001600160ff1982541617905533907fd20570121be2bd57cea6cc3cb241fbeb60b4162709bb5e0f86414ac92409ff25600080a3611af1565b34610232576020366003190112610232576001600160a01b03610df9611763565b166000526008602052602060ff604060002054166040519015158152f35b3461023257602036600319011261023257610e30611763565b610e386119ab565b6001600160a01b03166000908152600860205260409020805460ff19166001179055005b34610232576000366003190112610232576020600f54604051908152f35b346102325760a036600319011261023257610e93611763565b608435906001600160401b0382116102325736602383011215610232578160040135610ebe81611842565b92610ecc60405194856117cb565b81845260208401906024829360051b820101903682116102325760248101925b82841061123f575050505033600052600860205260ff60406000205416801561122b575b156111ee576001600160a01b038216600090815260076020526040902054610f3a9060ff16611a03565b612710604435116111a9576001600160a01b0382166000908152600660205260409020602435815560443560018201556064356002820155426003820155925190600160401b821161111a576004840154826004860155808310611130575b5060049093016000526020600020926000905b828210610ffc576103d4846040516024358152604435602082015233907f35178eb3fcd064dc0084e75a550cae8e019f2fa118179cc503f6ac7f010dc3b6604060018060a01b03851692a3611af1565b80518051906001600160401b03821161111a5761101987546118cb565b90601f918281116110e0575b506020918311600114611070579282600194936020938695600092611065575b5050600019600383901b1c191690841b1788555b01950191019093610fac565b015190508a80611045565b908760005260206000209160005b601f19851681106110c8575083602093600196938796938794601f198116106110af575b505050811b018855611059565b015160001960f88460031b161c191690558a80806110a2565b9192602060018192868501518155019401920161107e565b61110b908960005260206000208480870160051c82019260208810611111575b0160051c0190611a44565b88611025565b92508192611100565b634e487b7160e01b600052604160045260246000fd5b600485016000526020600020908382015b8183018110611151575050610f99565b8061115e600192546118cb565b8061116b575b5001611141565b601f908181118414611184575050600081555b88611164565b6111a060009284845260208420920160051c8201858301611a44565b8183555561117e565b60405162461bcd60e51b815260206004820152601960248201527f5461786120656e67616a616d656e746f20696e76616c696461000000000000006044820152606490fd5b60405162461bcd60e51b81526020600482015260156024820152744f7261636c65206e616f206175746f72697a61646f60581b6044820152606490fd5b506000546001600160a01b03163314610f10565b83356001600160401b038111610232576020916112638392602436918701016117ec565b815201930192610eec565b346102325736600319011261023257611285611763565b6044356001600160401b038111610232576112a49036906004016117ec565b906064356001600160401b038111610232576112c49036906004016117ec565b916084358015158103610232576112d96119ab565b6001600160a01b0383166000908152600760205260409020546112fe9060ff16611a03565b600160a435101580611756575b156117115760018060a01b03831660005260056020526040600020936040519461133486611779565b602435865260208601918483526040870152426060870152821515608087015260a43560a087015260c43560c08701528054600160401b81101561111a5761138191600182018155611899565b9190916116fb5785518255518051906001600160401b03821161111a5781906113ad60018501546118cb565b601f81116116c6575b50602090601f831160011461165457600092611649575b50508160011b916000199060031b1c19161760018201555b60408501519485516001600160401b03811161111a5761140860028401546118cb565b601f8111611609575b506020601f821160011461159357918160c09260069460249a600092611588575b50508160011b916000199060031b1c19161760028501555b6060810151600385015561147360808201511515600486019060ff801983541691151516179055565b60a0810151600585015501519101556001600160a01b03831660009081526004602052604090206002810180546114a990611a5b565b9055600354604051631403c24560e21b8152863560048201529560a09187919082906001600160a01b03165afa801561042d576103d495600091611565575b50611550575b5061150460405192606084526060840190611859565b901515602083015260a4356040830152602435916001600160a01b038416917f695417b5ec20cf21063d3091af84149c6853891eb93677d078b84648d701d265919081900390a3611af1565b60010161155d8154611a5b565b9055846114ee565b61157d915060a03d81116104265761041381836117cb565b5092505050866114e8565b015190508a80611432565b6002840160005260206000209760005b601f19841681106115f15750826024996006959360019360c096601f198116106115d8575b505050811b01600285015561144a565b015160001960f88460031b161c191690558a80806115c8565b828201518a55600190990198602092830192016115a3565b61163990600285016000526020600020601f840160051c8101916020851061163f575b601f0160051c0190611a44565b87611411565b909150819061162c565b0151905087806113cd565b9250600184016000526020600020906000935b601f19841685106116ab576001945083601f19811610611692575b505050811b0160018201556113e5565b015160001960f88460031b161c19169055878080611682565b81810151835560209485019460019093019290910190611667565b6116f590600186016000526020600020601f850160051c8101916020861061163f57601f0160051c0190611a44565b886113b6565b634e487b7160e01b600052600060045260246000fd5b60405162461bcd60e51b815260206004820152601860248201527f53636f7265207175616c696461646520696e76616c69646f00000000000000006044820152606490fd5b50606460a435111561130b565b600435906001600160a01b038216820361023257565b60e081019081106001600160401b0382111761111a57604052565b61010081019081106001600160401b0382111761111a57604052565b60a081019081106001600160401b0382111761111a57604052565b90601f801991011681019081106001600160401b0382111761111a57604052565b81601f82011215610232578035906001600160401b03821161111a5760405192611820601f8401601f1916602001856117cb565b8284526020838301011161023257816000926020809301838601378301015290565b6001600160401b03811161111a5760051b60200190565b919082519283825260005b848110611885575050826000602080949584010152601f8019910116010190565b602081830181015184830182015201611864565b80548210156118b5576000526007602060002091020190600090565b634e487b7160e01b600052603260045260246000fd5b90600182811c921680156118fb575b60208310146118e557565b634e487b7160e01b600052602260045260246000fd5b91607f16916118da565b9060405191826000825492611919846118cb565b9081845260019485811690816000146119885750600114611945575b5050611943925003836117cb565b565b9093915060005260209081600020936000915b81831061197057505061194393508201013880611935565b85548884018501529485019487945091830191611958565b91505061194394506020925060ff191682840152151560051b8201013880611935565b6000546001600160a01b031633036119bf57565b606460405162461bcd60e51b815260206004820152602060248201527f4f776e61626c653a2063616c6c6572206973206e6f7420746865206f776e65726044820152fd5b15611a0a57565b60405162461bcd60e51b815260206004820152601260248201527141727469737461206e616f2065786973746560701b6044820152606490fd5b818110611a4f575050565b60008155600101611a44565b6000198114611a6a5760010190565b634e487b7160e01b600052601160045260246000fd5b908160a091031261023257805191602082015191604081015191606082015180151581036102325760809092015190565b81810292918115918404141715611a6a57565b8115611ace570490565b634e487b7160e01b600052601260045260246000fd5b91908201809211611a6a57565b6001600160a01b038116600090815260046020526040902080546002820154909291908015611fa2576001820154906103e891828102928184041490151715611a6a57611b3d91611ac4565b915b611b4881611fac565b926003830154611b5c600485015482611ae4565b8015611f97576103e891828102928184041490151715611a6a57611b7f91611ac4565b925b60018060a01b0383166000526006602052604060002060405190611ba4826117b0565b805482526001810154602083015260028101546040830152600381015460608301526004810154611bd481611842565b91611be260405193846117cb565b818352600460208401910160005260206000206000915b838310611f7a57505050506080820152602081015180606481020460641481151715611a6a57611c3f9151620186a08111600014611f45575060646103e8915b02611ae4565b60011c9460018060a01b03841660005260066020526040600020600460405191611c68836117b0565b80548352600181015460208401526002810154604084015260038101546060840152018054611c9681611842565b91611ca460405193846117cb565b818352602083019060005260206000206000915b838310611f285750505050608082015260018060a01b03851660005260056020526040600020908154611cea81611842565b92611cf860405194856117cb565b818452602084019060005260206000206000915b838310611eb6575050505060806101f49101515191606483029280840460641490151715611a6a578282018211611a6a57519182603281020460321483151715611a6a576032611d5e93029101611ae4565b6001600160a01b03851660009081526004602052604090206007015460ff16611e94575b6103e89381858093116000147f4146a620f234be49686701963664655b5fb451997f8462f773d272d68f17043f99611def611dff60a09b611def611df5611e339a611def611de5611def9c611e189b611e099b611e8c57509b5b60095490611ab1565b91600a5490611ab1565b90611ae4565b91600b5490611ab1565b91600c5490611ab1565b612710938493600d5490611ab1565b0490611e2c611e26876120f0565b83611ab1565b0490611ae4565b91808311611e84575b50818155600642910155604051948552602085015260606040850152601160608501527053636f726520726563616c63756c61646f60781b6080850152600180831b031692a2565b915038611e3c565b90509b611ddc565b60c8810180911115611d8257634e487b7160e01b600052601160045260246000fd5b60076020600192604051611ec981611779565b85548152611ed8858701611905565b83820152611ee860028701611905565b60408201526003860154606082015260ff60048701541615156080820152600586015460a0820152600686015460c0820152815201920192019190611d0c565b600160208192611f3785611905565b815201920192019190611cb8565b612710811115611f5b5750606461032091611c39565b6103e81015611f6f57606461025891611c39565b606461019091611c39565b600160208192611f8985611905565b815201920192019190611bf9565b50506101f492611b81565b506101f491611b3f565b6001600160a01b03166000908152600560208181526040808420805492959493919290611fd882611842565b93611fe5815195866117cb565b8285529085528685208591888087015b858510612080575050505050508151156120765782805b835185101561203a5761202e6120349160a08988871b88010151015190611ae4565b94611a5b565b9361200c565b9350945050600a820291808304600a14901517156120625761205f9293505190611ac4565b90565b634e487b7160e01b84526011600452602484fd5b506101f493505050565b600191600791845161209181611779565b865481526120a0858801611905565b838201526120b060028801611905565b868201526003870154606082015260ff600488015416151560808201528987015460a0820152600687015460c08201528152019301930192918990611ff5565b6001600160a01b031660009081526004602052604080822090519061211482611794565b80548252600360018201549283602082015260028301549060e060ff6007604084019685885286810154606086015260048101546080860152600581015460a0860152600681015460c086015201541615159101521061221757606482029180830460641490151715612203575161218b91611ac4565b605a8110156121fb5760508110156121db57604611156121a85790565b600e54906032820291808304603214901517156121c757506064900490565b634e487b7160e01b81526011600452602490fd5b50600e5490604b820291808304604b14901517156121c757506064900490565b5050600e5490565b634e487b7160e01b83526011600452602483fd5b505090565b6001600160a01b031660009081526007602052604090205460ff161561224f576004602052604060002054600f54111590565b60009056fea2646970667358221220e334bb43a92713f1390b4d03f8a28a56a8a6ee6c2abe503fb1e5ba96873a261964736f6c63430008130033",
  "linkReferences": {},
  "deployedLinkReferences": {}
}